{
  "_format": "hh-sol-artifact-1",
  "contractName": "NFtalk",
  "sourceName": "contracts/NFtalk.sol",
  "abi": [
    {
      "anonymous": false,
      "inputs": [
        {
          "indexed": true,
          "internalType": "address",
          "name": "owner",
          "type": "address"
        },
        {
          "indexed": true,
          "internalType": "address",
          "name": "approved",
          "type": "address"
        },
        {
          "indexed": true,
          "internalType": "uint256",
          "name": "tokenId",
          "type": "uint256"
        }
      ],
      "name": "Approval",
      "type": "event"
    },
    {
      "anonymous": false,
      "inputs": [
        {
          "indexed": true,
          "internalType": "address",
          "name": "owner",
          "type": "address"
        },
        {
          "indexed": true,
          "internalType": "address",
          "name": "operator",
          "type": "address"
        },
        {
          "indexed": false,
          "internalType": "bool",
          "name": "approved",
          "type": "bool"
        }
      ],
      "name": "ApprovalForAll",
      "type": "event"
    },
    {
      "anonymous": false,
      "inputs": [
        {
          "indexed": false,
          "internalType": "uint256",
          "name": "value",
          "type": "uint256"
        }
      ],
      "name": "MESSAGE_VOTES_INVISIBLE_SET",
      "type": "event"
    },
    {
      "anonymous": false,
      "inputs": [
        {
          "indexed": false,
          "internalType": "uint256",
          "name": "Id",
          "type": "uint256"
        },
        {
          "indexed": false,
          "internalType": "address",
          "name": "author",
          "type": "address"
        },
        {
          "indexed": false,
          "internalType": "string",
          "name": "message",
          "type": "string"
        },
        {
          "indexed": false,
          "internalType": "uint256",
          "name": "timestamp",
          "type": "uint256"
        },
        {
          "indexed": false,
          "internalType": "uint256",
          "name": "replyTo",
          "type": "uint256"
        }
      ],
      "name": "NewMessage",
      "type": "event"
    },
    {
      "anonymous": false,
      "inputs": [
        {
          "indexed": true,
          "internalType": "address",
          "name": "previousOwner",
          "type": "address"
        },
        {
          "indexed": true,
          "internalType": "address",
          "name": "newOwner",
          "type": "address"
        }
      ],
      "name": "OwnershipTransferred",
      "type": "event"
    },
    {
      "anonymous": false,
      "inputs": [
        {
          "indexed": true,
          "internalType": "address",
          "name": "from",
          "type": "address"
        },
        {
          "indexed": true,
          "internalType": "address",
          "name": "to",
          "type": "address"
        },
        {
          "indexed": true,
          "internalType": "uint256",
          "name": "tokenId",
          "type": "uint256"
        }
      ],
      "name": "Transfer",
      "type": "event"
    },
    {
      "anonymous": false,
      "inputs": [
        {
          "indexed": false,
          "internalType": "address",
          "name": "user",
          "type": "address"
        },
        {
          "indexed": false,
          "internalType": "string",
          "name": "name",
          "type": "string"
        }
      ],
      "name": "UserNameSet",
      "type": "event"
    },
    {
      "anonymous": false,
      "inputs": [
        {
          "indexed": false,
          "internalType": "address",
          "name": "voter",
          "type": "address"
        },
        {
          "indexed": false,
          "internalType": "uint256",
          "name": "Id",
          "type": "uint256"
        }
      ],
      "name": "VoteDown",
      "type": "event"
    },
    {
      "anonymous": false,
      "inputs": [
        {
          "indexed": false,
          "internalType": "address",
          "name": "voter",
          "type": "address"
        },
        {
          "indexed": false,
          "internalType": "uint256",
          "name": "Id",
          "type": "uint256"
        }
      ],
      "name": "VoteUp",
      "type": "event"
    },
    {
      "anonymous": false,
      "inputs": [
        {
          "indexed": false,
          "internalType": "address",
          "name": "voter",
          "type": "address"
        },
        {
          "indexed": false,
          "internalType": "address",
          "name": "voted",
          "type": "address"
        }
      ],
      "name": "VoteUserDown",
      "type": "event"
    },
    {
      "anonymous": false,
      "inputs": [
        {
          "indexed": false,
          "internalType": "address",
          "name": "voter",
          "type": "address"
        },
        {
          "indexed": false,
          "internalType": "address",
          "name": "voted",
          "type": "address"
        }
      ],
      "name": "VoteUserUp",
      "type": "event"
    },
    {
      "inputs": [],
      "name": "MAX_MESSAGE_LENGTH",
      "outputs": [
        {
          "internalType": "uint256",
          "name": "",
          "type": "uint256"
        }
      ],
      "stateMutability": "view",
      "type": "function"
    },
    {
      "inputs": [],
      "name": "MAX_USERNAME_LENGTH",
      "outputs": [
        {
          "internalType": "uint256",
          "name": "",
          "type": "uint256"
        }
      ],
      "stateMutability": "view",
      "type": "function"
    },
    {
      "inputs": [],
      "name": "MESSAGE_VOTES_INVISIBLE",
      "outputs": [
        {
          "internalType": "uint256",
          "name": "",
          "type": "uint256"
        }
      ],
      "stateMutability": "view",
      "type": "function"
    },
    {
      "inputs": [
        {
          "internalType": "address",
          "name": "to",
          "type": "address"
        },
        {
          "internalType": "uint256",
          "name": "tokenId",
          "type": "uint256"
        }
      ],
      "name": "approve",
      "outputs": [],
      "stateMutability": "nonpayable",
      "type": "function"
    },
    {
      "inputs": [
        {
          "internalType": "address",
          "name": "owner",
          "type": "address"
        }
      ],
      "name": "balanceOf",
      "outputs": [
        {
          "internalType": "uint256",
          "name": "",
          "type": "uint256"
        }
      ],
      "stateMutability": "view",
      "type": "function"
    },
    {
      "inputs": [
        {
          "internalType": "uint256",
          "name": "current",
          "type": "uint256"
        },
        {
          "internalType": "string",
          "name": "str",
          "type": "string"
        }
      ],
      "name": "buildTree",
      "outputs": [
        {
          "internalType": "string",
          "name": "",
          "type": "string"
        }
      ],
      "stateMutability": "view",
      "type": "function"
    },
    {
      "inputs": [
        {
          "internalType": "uint256",
          "name": "_Id",
          "type": "uint256"
        }
      ],
      "name": "burn",
      "outputs": [],
      "stateMutability": "nonpayable",
      "type": "function"
    },
    {
      "inputs": [],
      "name": "contractURI",
      "outputs": [
        {
          "internalType": "string",
          "name": "",
          "type": "string"
        }
      ],
      "stateMutability": "pure",
      "type": "function"
    },
    {
      "inputs": [
        {
          "internalType": "uint256",
          "name": "tokenId",
          "type": "uint256"
        }
      ],
      "name": "getApproved",
      "outputs": [
        {
          "internalType": "address",
          "name": "",
          "type": "address"
        }
      ],
      "stateMutability": "view",
      "type": "function"
    },
    {
      "inputs": [],
      "name": "getLatestMessageId",
      "outputs": [
        {
          "internalType": "uint256",
          "name": "",
          "type": "uint256"
        }
      ],
      "stateMutability": "view",
      "type": "function"
    },
    {
      "inputs": [
        {
          "internalType": "uint256",
          "name": "_Id",
          "type": "uint256"
        }
      ],
      "name": "getMessageDownVotes",
      "outputs": [
        {
          "internalType": "uint256",
          "name": "",
          "type": "uint256"
        }
      ],
      "stateMutability": "view",
      "type": "function"
    },
    {
      "inputs": [
        {
          "internalType": "uint256",
          "name": "_Id",
          "type": "uint256"
        }
      ],
      "name": "getMessageUpVotes",
      "outputs": [
        {
          "internalType": "uint256",
          "name": "",
          "type": "uint256"
        }
      ],
      "stateMutability": "view",
      "type": "function"
    },
    {
      "inputs": [
        {
          "internalType": "uint256",
          "name": "_Id",
          "type": "uint256"
        }
      ],
      "name": "getNumReplies",
      "outputs": [
        {
          "internalType": "uint256",
          "name": "",
          "type": "uint256"
        }
      ],
      "stateMutability": "view",
      "type": "function"
    },
    {
      "inputs": [
        {
          "internalType": "uint256",
          "name": "_Id",
          "type": "uint256"
        }
      ],
      "name": "getPenUltimateParent",
      "outputs": [
        {
          "internalType": "uint256",
          "name": "",
          "type": "uint256"
        }
      ],
      "stateMutability": "view",
      "type": "function"
    },
    {
      "inputs": [
        {
          "internalType": "uint256",
          "name": "_Id",
          "type": "uint256"
        }
      ],
      "name": "getReplyMessageId",
      "outputs": [
        {
          "internalType": "uint256",
          "name": "",
          "type": "uint256"
        }
      ],
      "stateMutability": "view",
      "type": "function"
    },
    {
      "inputs": [
        {
          "internalType": "uint256",
          "name": "_Id",
          "type": "uint256"
        }
      ],
      "name": "getSVG64",
      "outputs": [
        {
          "internalType": "string",
          "name": "",
          "type": "string"
        }
      ],
      "stateMutability": "view",
      "type": "function"
    },
    {
      "inputs": [
        {
          "internalType": "uint256",
          "name": "_Id",
          "type": "uint256"
        }
      ],
      "name": "getThread",
      "outputs": [
        {
          "internalType": "string",
          "name": "",
          "type": "string"
        }
      ],
      "stateMutability": "view",
      "type": "function"
    },
    {
      "inputs": [
        {
          "internalType": "address",
          "name": "_user",
          "type": "address"
        }
      ],
      "name": "getUserDownVotes",
      "outputs": [
        {
          "internalType": "uint256",
          "name": "",
          "type": "uint256"
        }
      ],
      "stateMutability": "view",
      "type": "function"
    },
    {
      "inputs": [
        {
          "internalType": "address",
          "name": "_user",
          "type": "address"
        }
      ],
      "name": "getUserMessageIds",
      "outputs": [
        {
          "internalType": "uint256[]",
          "name": "",
          "type": "uint256[]"
        }
      ],
      "stateMutability": "view",
      "type": "function"
    },
    {
      "inputs": [
        {
          "internalType": "uint256",
          "name": "_Id",
          "type": "uint256"
        }
      ],
      "name": "getUserNameOwner",
      "outputs": [
        {
          "internalType": "string",
          "name": "",
          "type": "string"
        }
      ],
      "stateMutability": "view",
      "type": "function"
    },
    {
      "inputs": [
        {
          "internalType": "address",
          "name": "_user",
          "type": "address"
        }
      ],
      "name": "getUserUpVotes",
      "outputs": [
        {
          "internalType": "uint256",
          "name": "",
          "type": "uint256"
        }
      ],
      "stateMutability": "view",
      "type": "function"
    },
    {
      "inputs": [
        {
          "internalType": "uint256",
          "name": "_Id",
          "type": "uint256"
        }
      ],
      "name": "getVisibility",
      "outputs": [
        {
          "internalType": "uint256",
          "name": "",
          "type": "uint256"
        }
      ],
      "stateMutability": "view",
      "type": "function"
    },
    {
      "inputs": [
        {
          "internalType": "address",
          "name": "owner",
          "type": "address"
        },
        {
          "internalType": "address",
          "name": "operator",
          "type": "address"
        }
      ],
      "name": "isApprovedForAll",
      "outputs": [
        {
          "internalType": "bool",
          "name": "",
          "type": "bool"
        }
      ],
      "stateMutability": "view",
      "type": "function"
    },
    {
      "inputs": [
        {
          "internalType": "address",
          "name": "_user",
          "type": "address"
        }
      ],
      "name": "isRegisteredUser",
      "outputs": [
        {
          "internalType": "bool",
          "name": "",
          "type": "bool"
        }
      ],
      "stateMutability": "view",
      "type": "function"
    },
    {
      "inputs": [
        {
          "internalType": "string",
          "name": "_text",
          "type": "string"
        }
      ],
      "name": "mint",
      "outputs": [],
      "stateMutability": "nonpayable",
      "type": "function"
    },
    {
      "inputs": [
        {
          "internalType": "string",
          "name": "_text",
          "type": "string"
        },
        {
          "internalType": "uint256",
          "name": "_replyTo",
          "type": "uint256"
        }
      ],
      "name": "mintReply",
      "outputs": [],
      "stateMutability": "nonpayable",
      "type": "function"
    },
    {
      "inputs": [],
      "name": "name",
      "outputs": [
        {
          "internalType": "string",
          "name": "",
          "type": "string"
        }
      ],
      "stateMutability": "view",
      "type": "function"
    },
    {
      "inputs": [],
      "name": "owner",
      "outputs": [
        {
          "internalType": "address",
          "name": "",
          "type": "address"
        }
      ],
      "stateMutability": "view",
      "type": "function"
    },
    {
      "inputs": [
        {
          "internalType": "uint256",
          "name": "tokenId",
          "type": "uint256"
        }
      ],
      "name": "ownerOf",
      "outputs": [
        {
          "internalType": "address",
          "name": "",
          "type": "address"
        }
      ],
      "stateMutability": "view",
      "type": "function"
    },
    {
      "inputs": [],
      "name": "renounceOwnership",
      "outputs": [],
      "stateMutability": "nonpayable",
      "type": "function"
    },
    {
      "inputs": [
        {
          "internalType": "address",
          "name": "from",
          "type": "address"
        },
        {
          "internalType": "address",
          "name": "to",
          "type": "address"
        },
        {
          "internalType": "uint256",
          "name": "tokenId",
          "type": "uint256"
        }
      ],
      "name": "safeTransferFrom",
      "outputs": [],
      "stateMutability": "nonpayable",
      "type": "function"
    },
    {
      "inputs": [
        {
          "internalType": "address",
          "name": "from",
          "type": "address"
        },
        {
          "internalType": "address",
          "name": "to",
          "type": "address"
        },
        {
          "internalType": "uint256",
          "name": "tokenId",
          "type": "uint256"
        },
        {
          "internalType": "bytes",
          "name": "_data",
          "type": "bytes"
        }
      ],
      "name": "safeTransferFrom",
      "outputs": [],
      "stateMutability": "nonpayable",
      "type": "function"
    },
    {
      "inputs": [],
      "name": "selfDestruct",
      "outputs": [],
      "stateMutability": "nonpayable",
      "type": "function"
    },
    {
      "inputs": [
        {
          "internalType": "address",
          "name": "operator",
          "type": "address"
        },
        {
          "internalType": "bool",
          "name": "approved",
          "type": "bool"
        }
      ],
      "name": "setApprovalForAll",
      "outputs": [],
      "stateMutability": "nonpayable",
      "type": "function"
    },
    {
      "inputs": [
        {
          "internalType": "uint256",
          "name": "_value",
          "type": "uint256"
        }
      ],
      "name": "setMESSAGE_VOTES_INVISIBLE",
      "outputs": [],
      "stateMutability": "nonpayable",
      "type": "function"
    },
    {
      "inputs": [
        {
          "internalType": "string",
          "name": "_name",
          "type": "string"
        }
      ],
      "name": "setUserName",
      "outputs": [],
      "stateMutability": "nonpayable",
      "type": "function"
    },
    {
      "inputs": [
        {
          "internalType": "bytes4",
          "name": "interfaceId",
          "type": "bytes4"
        }
      ],
      "name": "supportsInterface",
      "outputs": [
        {
          "internalType": "bool",
          "name": "",
          "type": "bool"
        }
      ],
      "stateMutability": "view",
      "type": "function"
    },
    {
      "inputs": [],
      "name": "symbol",
      "outputs": [
        {
          "internalType": "string",
          "name": "",
          "type": "string"
        }
      ],
      "stateMutability": "view",
      "type": "function"
    },
    {
      "inputs": [
        {
          "internalType": "uint256",
          "name": "_Id",
          "type": "uint256"
        }
      ],
      "name": "tokenURI",
      "outputs": [
        {
          "internalType": "string",
          "name": "",
          "type": "string"
        }
      ],
      "stateMutability": "view",
      "type": "function"
    },
    {
      "inputs": [
        {
          "internalType": "address",
          "name": "from",
          "type": "address"
        },
        {
          "internalType": "address",
          "name": "to",
          "type": "address"
        },
        {
          "internalType": "uint256",
          "name": "tokenId",
          "type": "uint256"
        }
      ],
      "name": "transferFrom",
      "outputs": [],
      "stateMutability": "nonpayable",
      "type": "function"
    },
    {
      "inputs": [
        {
          "internalType": "address",
          "name": "newOwner",
          "type": "address"
        }
      ],
      "name": "transferOwnership",
      "outputs": [],
      "stateMutability": "nonpayable",
      "type": "function"
    },
    {
      "inputs": [
        {
          "internalType": "uint256",
          "name": "_Id",
          "type": "uint256"
        }
      ],
      "name": "voteDownMessage",
      "outputs": [],
      "stateMutability": "nonpayable",
      "type": "function"
    },
    {
      "inputs": [
        {
          "internalType": "address",
          "name": "_user",
          "type": "address"
        }
      ],
      "name": "voteDownUser",
      "outputs": [],
      "stateMutability": "nonpayable",
      "type": "function"
    },
    {
      "inputs": [
        {
          "internalType": "uint256",
          "name": "_Id",
          "type": "uint256"
        }
      ],
      "name": "voteUpMessage",
      "outputs": [],
      "stateMutability": "nonpayable",
      "type": "function"
    },
    {
      "inputs": [
        {
          "internalType": "address",
          "name": "_user",
          "type": "address"
        }
      ],
      "name": "voteUpUser",
      "outputs": [],
      "stateMutability": "nonpayable",
      "type": "function"
    }
  ],
  "bytecode": "0x60806040526040518060200160405280600181525060076000820151816000015550506064600c553480156200003457600080fd5b506040518060400160405280600681526020017f4e4674616c6b00000000000000000000000000000000000000000000000000008152506040518060400160405280600681526020017f4e4674616c6b00000000000000000000000000000000000000000000000000008152508160009080519060200190620000b9929190620001c9565b508060019080519060200190620000d2929190620001c9565b505050620000f5620000e9620000fb60201b60201c565b6200010360201b60201c565b620002de565b600033905090565b6000600660009054906101000a900473ffffffffffffffffffffffffffffffffffffffff16905081600660006101000a81548173ffffffffffffffffffffffffffffffffffffffff021916908373ffffffffffffffffffffffffffffffffffffffff1602179055508173ffffffffffffffffffffffffffffffffffffffff168173ffffffffffffffffffffffffffffffffffffffff167f8be0079c531659141344cd1fd0a4f28419497f9722a3daafe3b4186f6b6457e060405160405180910390a35050565b828054620001d79062000279565b90600052602060002090601f016020900481019282620001fb576000855562000247565b82601f106200021657805160ff191683800117855562000247565b8280016001018555821562000247579182015b828111156200024657825182559160200191906001019062000229565b5b5090506200025691906200025a565b5090565b5b80821115620002755760008160009055506001016200025b565b5090565b600060028204905060018216806200029257607f821691505b60208210811415620002a957620002a8620002af565b5b50919050565b7f4e487b7100000000000000000000000000000000000000000000000000000000600052602260045260246000fd5b615a6f80620002ee6000396000f3fe608060405234801561001057600080fd5b506004361061027f5760003560e01c80637982e3101161015c578063cd6dc861116100ce578063ee442c2a11610087578063ee442c2a146107f2578063f260166114610822578063f2fde38b14610852578063f698638a1461086e578063f7da08691461088c578063fbc205db146108bc5761027f565b8063cd6dc8611461070c578063d380c0831461073c578063d85d3d271461076c578063dfbd664014610788578063e8a3d485146107a4578063e985e9c5146107c25761027f565b80639cb8a26a116101205780639cb8a26a1461064e5780639d35053714610658578063a22cb46514610688578063b88d4fde146106a4578063bf20972e146106c0578063c87b56dd146106dc5761027f565b80637982e3101461058257806383ced42b146105b25780638da5cb5b146105e257806395d89b41146106005780639c7990a31461061e5761027f565b8063368f1e23116101f55780636352211e116101b95780636352211e146104c457806369e3303d146104f457806370a0823114610510578063715018a61461054057806376f032ee1461054a5780637795284f146105665761027f565b8063368f1e23146104225780633791df71146104525780633af4301b1461046e57806342842e0e1461048c57806342966c68146104a85761027f565b80631762b236116102475780631762b2361461034e5780631cd896c11461037e5780631f5bdf5d1461039c57806323b872dd146103cc5780632a027211146103e85780632b5914fe146104065761027f565b806301ffc9a71461028457806304874336146102b457806306fdde03146102e4578063081812fc14610302578063095ea7b314610332575b600080fd5b61029e60048036038101906102999190613e8f565b6108ec565b6040516102ab919061498d565b60405180910390f35b6102ce60048036038101906102c99190613fd7565b6109ce565b6040516102db91906149ec565b60405180910390f35b6102ec610e40565b6040516102f991906149ec565b60405180910390f35b61031c60048036038101906103179190613fd7565b610ed2565b6040516103299190614882565b60405180910390f35b61034c60048036038101906103479190613e4f565b610f57565b005b61036860048036038101906103639190613fd7565b61106f565b6040516103759190614e60565b60405180910390f35b61038661108f565b6040516103939190614e60565b60405180910390f35b6103b660048036038101906103b19190613ccc565b611094565b6040516103c3919061498d565b60405180910390f35b6103e660048036038101906103e19190613d39565b61114c565b005b6103f06111ac565b6040516103fd9190614e60565b60405180910390f35b610420600480360381019061041b9190613ee9565b6111b1565b005b61043c60048036038101906104379190613fd7565b611429565b60405161044991906149ec565b60405180910390f35b61046c60048036038101906104679190613ccc565b611468565b005b6104766115a5565b6040516104839190614e60565b60405180910390f35b6104a660048036038101906104a19190613d39565b6115ab565b005b6104c260048036038101906104bd9190613fd7565b6115cb565b005b6104de60048036038101906104d99190613fd7565b6116f3565b6040516104eb9190614882565b60405180910390f35b61050e60048036038101906105099190613fd7565b6117a5565b005b61052a60048036038101906105259190613ccc565b611906565b6040516105379190614e60565b60405180910390f35b6105486119be565b005b610564600480360381019061055f9190613fd7565b611a46565b005b610580600480360381019061057b9190613ccc565b611b03565b005b61059c60048036038101906105979190614031565b611c40565b6040516105a991906149ec565b60405180910390f35b6105cc60048036038101906105c79190613ccc565b611dfe565b6040516105d99190614e60565b60405180910390f35b6105ea611e51565b6040516105f79190614882565b60405180910390f35b610608611e7b565b60405161061591906149ec565b60405180910390f35b61063860048036038101906106339190613fd7565b611f0d565b6040516106459190614e60565b60405180910390f35b610656611f7c565b005b610672600480360381019061066d9190613fd7565b612018565b60405161067f9190614e60565b60405180910390f35b6106a2600480360381019061069d9190613e0f565b612038565b005b6106be60048036038101906106b99190613d8c565b61204e565b005b6106da60048036038101906106d59190613fd7565b6120b0565b005b6106f660048036038101906106f19190613fd7565b612211565b60405161070391906149ec565b60405180910390f35b61072660048036038101906107219190613ccc565b6124b2565b6040516107339190614e60565b60405180910390f35b61075660048036038101906107519190613fd7565b612505565b6040516107639190614e60565b60405180910390f35b61078660048036038101906107819190613ee9565b612574565b005b6107a2600480360381019061079d9190613f7b565b612582565b005b6107ac61286f565b6040516107b991906149ec565b60405180910390f35b6107dc60048036038101906107d79190613cf9565b6128f7565b6040516107e9919061498d565b60405180910390f35b61080c60048036038101906108079190613ccc565b61298b565b604051610819919061496b565b60405180910390f35b61083c60048036038101906108379190613fd7565b612a25565b6040516108499190614e60565b60405180910390f35b61086c60048036038101906108679190613ccc565b612a7b565b005b610876612b73565b6040516108839190614e60565b60405180910390f35b6108a660048036038101906108a19190613fd7565b612b90565b6040516108b391906149ec565b60405180910390f35b6108d660048036038101906108d19190613fd7565b612d11565b6040516108e39190614e60565b60405180910390f35b60007f80ac58cd000000000000000000000000000000000000000000000000000000007bffffffffffffffffffffffffffffffffffffffffffffffffffffffff1916827bffffffffffffffffffffffffffffffffffffffffffffffffffffffff191614806109b757507f5b5e139f000000000000000000000000000000000000000000000000000000007bffffffffffffffffffffffffffffffffffffffffffffffffffffffff1916827bffffffffffffffffffffffffffffffffffffffffffffffffffffffff1916145b806109c757506109c682612d90565b5b9050919050565b606080606060006109de85612b90565b905060006109eb86612d11565b9050600073__$b70d6334c7ecf3dc68d4f60562c05acf01$__63f76f950e886040518263ffffffff1660e01b8152600401610a269190614e45565b60006040518083038186803b158015610a3e57600080fd5b505af4158015610a52573d6000803e3d6000fd5b505050506040513d6000823e3d601f19601f82011682018060405250810190610a7b9190613f32565b905060606000610a8a8961106f565b90506000811115610bb95773__$b70d6334c7ecf3dc68d4f60562c05acf01$__6389b21466610ab883612b90565b73__$b70d6334c7ecf3dc68d4f60562c05acf01$__63f76f950e856040518263ffffffff1660e01b8152600401610aef9190614e45565b60006040518083038186803b158015610b0757600080fd5b505af4158015610b1b573d6000803e3d6000fd5b505050506040513d6000823e3d601f19601f82011682018060405250810190610b449190613f32565b6040518363ffffffff1660e01b8152600401610b61929190614a76565b60006040518083038186803b158015610b7957600080fd5b505af4158015610b8d573d6000803e3d6000fd5b505050506040513d6000823e3d601f19601f82011682018060405250810190610bb69190613f32565b91505b6000841115610cf35773__$b70d6334c7ecf3dc68d4f60562c05acf01$__634d925a46600860008c815260200190815260200160002060000173__$b70d6334c7ecf3dc68d4f60562c05acf01$__63f76f950e886040518263ffffffff1660e01b8152600401610c299190614e45565b60006040518083038186803b158015610c4157600080fd5b505af4158015610c55573d6000803e3d6000fd5b505050506040513d6000823e3d601f19601f82011682018060405250810190610c7e9190613f32565b6040518363ffffffff1660e01b8152600401610c9b929190614b0e565b60006040518083038186803b158015610cb357600080fd5b505af4158015610cc7573d6000803e3d6000fd5b505050506040513d6000823e3d601f19601f82011682018060405250810190610cf09190613f32565b95505b73__$b70d6334c7ecf3dc68d4f60562c05acf01$__631a7ceb58878786866040518563ffffffff1660e01b8152600401610d309493929190614aad565b60006040518083038186803b158015610d4857600080fd5b505af4158015610d5c573d6000803e3d6000fd5b505050506040513d6000823e3d601f19601f82011682018060405250810190610d859190613f32565b965073__$b70d6334c7ecf3dc68d4f60562c05acf01$__63daa68c21886040518263ffffffff1660e01b8152600401610dbe91906149a8565b60006040518083038186803b158015610dd657600080fd5b505af4158015610dea573d6000803e3d6000fd5b505050506040513d6000823e3d601f19601f82011682018060405250810190610e139190613f32565b604051602001610e239190614845565b604051602081830303815290604052975050505050505050919050565b606060008054610e4f906151da565b80601f0160208091040260200160405190810160405280929190818152602001828054610e7b906151da565b8015610ec85780601f10610e9d57610100808354040283529160200191610ec8565b820191906000526020600020905b815481529060010190602001808311610eab57829003601f168201915b5050505050905090565b6000610edd82612dfa565b610f1c576040517f08c379a0000000000000000000000000000000000000000000000000000000008152600401610f1390614d45565b60405180910390fd5b6004600083815260200190815260200160002060009054906101000a900473ffffffffffffffffffffffffffffffffffffffff169050919050565b6000610f62826116f3565b90508073ffffffffffffffffffffffffffffffffffffffff168373ffffffffffffffffffffffffffffffffffffffff161415610fd3576040517f08c379a0000000000000000000000000000000000000000000000000000000008152600401610fca90614dc5565b60405180910390fd5b8073ffffffffffffffffffffffffffffffffffffffff16610ff2612e66565b73ffffffffffffffffffffffffffffffffffffffff16148061102157506110208161101b612e66565b6128f7565b5b611060576040517f08c379a000000000000000000000000000000000000000000000000000000000815260040161105790614ca5565b60405180910390fd5b61106a8383612e6e565b505050565b600060086000838152602001908152602001600020600201549050919050565b602081565b60008073ffffffffffffffffffffffffffffffffffffffff16600a600960008573ffffffffffffffffffffffffffffffffffffffff1673ffffffffffffffffffffffffffffffffffffffff1681526020019081526020016000206000016040516110fe9190614801565b908152602001604051809103902060009054906101000a900473ffffffffffffffffffffffffffffffffffffffff1673ffffffffffffffffffffffffffffffffffffffff1614159050919050565b61115d611157612e66565b82612f27565b61119c576040517f08c379a000000000000000000000000000000000000000000000000000000000815260040161119390614de5565b60405180910390fd5b6111a7838383613005565b505050565b605581565b600073ffffffffffffffffffffffffffffffffffffffff16600a826040516111d99190614777565b908152602001604051809103902060009054906101000a900473ffffffffffffffffffffffffffffffffffffffff1673ffffffffffffffffffffffffffffffffffffffff161461125e576040517f08c379a000000000000000000000000000000000000000000000000000000000815260040161125590614c65565b60405180910390fd5b600073__$1c41232b8c3f9382c4bdca1a05a1ab00e7$__6311075499836040518263ffffffff1660e01b815260040161129791906149ca565b60206040518083038186803b1580156112af57600080fd5b505af41580156112c3573d6000803e3d6000fd5b505050506040513d601f19601f820116820180604052508101906112e79190614004565b9050602081111561132d576040517f08c379a000000000000000000000000000000000000000000000000000000000815260040161132490614c85565b60405180910390fd5b81600960003373ffffffffffffffffffffffffffffffffffffffff1673ffffffffffffffffffffffffffffffffffffffff1681526020019081526020016000206000019080519060200190611383929190613a1b565b506000825111156113ec5733600a8360405161139f9190614777565b908152602001604051809103902060006101000a81548173ffffffffffffffffffffffffffffffffffffffff021916908373ffffffffffffffffffffffffffffffffffffffff1602179055505b7f55633e294f3ce7de0841784584a845596fec2f4a663a2e0415d1aaf6455a4787338360405161141d929190614912565b60405180910390a15050565b60608061143e61143884612a25565b82611c40565b9050806040516020016114519190614818565b604051602081830303815290604052915050919050565b3373ffffffffffffffffffffffffffffffffffffffff168173ffffffffffffffffffffffffffffffffffffffff1614156114d7576040517f08c379a00000000000000000000000000000000000000000000000000000000081526004016114ce90614e25565b60405180910390fd5b6114e033611094565b61151f576040517f08c379a000000000000000000000000000000000000000000000000000000000815260040161151690614b45565b60405180910390fd5b611569600960008373ffffffffffffffffffffffffffffffffffffffff1673ffffffffffffffffffffffffffffffffffffffff168152602001908152602001600020600201613261565b7ff07b382d2f86768abc22b5c039dee6457a58f9f1b8f169161de9e3bf20d20bef338260405161159a92919061489d565b60405180910390a150565b600c5481565b6115c68383836040518060200160405280600081525061204e565b505050565b6115d53382612f27565b611614576040517f08c379a000000000000000000000000000000000000000000000000000000000815260040161160b90614d65565b60405180910390fd5b61161d81612dfa565b61165c576040517f08c379a000000000000000000000000000000000000000000000000000000000815260040161165390614be5565b60405180910390fd5b600060086000838152602001908152602001600020600201549050600860008381526020019081526020016000206000808201600061169b9190613aa1565b6001820160009055600282016000905560038201600080820160009055505060048201600080820160009055505050508060086000848152602001908152602001600020600201819055506116ef82613277565b5050565b6000806002600084815260200190815260200160002060009054906101000a900473ffffffffffffffffffffffffffffffffffffffff169050600073ffffffffffffffffffffffffffffffffffffffff168173ffffffffffffffffffffffffffffffffffffffff16141561179c576040517f08c379a000000000000000000000000000000000000000000000000000000000815260040161179390614ce5565b60405180910390fd5b80915050919050565b6117ae81612dfa565b6117ed576040517f08c379a00000000000000000000000000000000000000000000000000000000081526004016117e490614d05565b60405180910390fd5b6117f6816116f3565b73ffffffffffffffffffffffffffffffffffffffff163373ffffffffffffffffffffffffffffffffffffffff161415611864576040517f08c379a000000000000000000000000000000000000000000000000000000000815260040161185b90614e25565b60405180910390fd5b61186d33611094565b6118ac576040517f08c379a00000000000000000000000000000000000000000000000000000000081526004016118a390614b45565b60405180910390fd5b6118ca60086000838152602001908152602001600020600401613261565b7fb70a0c4fedd186110c0530f3beac037475c92de145123c2102c24293962886a533826040516118fb929190614942565b60405180910390a150565b60008073ffffffffffffffffffffffffffffffffffffffff168273ffffffffffffffffffffffffffffffffffffffff161415611977576040517f08c379a000000000000000000000000000000000000000000000000000000000815260040161196e90614cc5565b60405180910390fd5b600360008373ffffffffffffffffffffffffffffffffffffffff1673ffffffffffffffffffffffffffffffffffffffff168152602001908152602001600020549050919050565b6119c6612e66565b73ffffffffffffffffffffffffffffffffffffffff166119e4611e51565b73ffffffffffffffffffffffffffffffffffffffff1614611a3a576040517f08c379a0000000000000000000000000000000000000000000000000000000008152600401611a3190614d85565b60405180910390fd5b611a446000613388565b565b611a4e612e66565b73ffffffffffffffffffffffffffffffffffffffff16611a6c611e51565b73ffffffffffffffffffffffffffffffffffffffff1614611ac2576040517f08c379a0000000000000000000000000000000000000000000000000000000008152600401611ab990614d85565b60405180910390fd5b80600c819055507f2752151e0a98c9df78d20e991139bccd52ba1733a6fca63c8f7d7d3f07faf9a681604051611af89190614e60565b60405180910390a150565b3373ffffffffffffffffffffffffffffffffffffffff168173ffffffffffffffffffffffffffffffffffffffff161415611b72576040517f08c379a0000000000000000000000000000000000000000000000000000000008152600401611b6990614e25565b60405180910390fd5b611b7b33611094565b611bba576040517f08c379a0000000000000000000000000000000000000000000000000000000008152600401611bb190614b45565b60405180910390fd5b611c04600960008373ffffffffffffffffffffffffffffffffffffffff1673ffffffffffffffffffffffffffffffffffffffff168152602001908152602001600020600301613261565b7f6b58b2cd308ecc386a2db157ee3a2bf71f1510684c8fce0890495ebce409b6563382604051611c3592919061489d565b60405180910390a150565b60606000600b6000858152602001908152602001600020805480602002602001604051908101604052809291908181526020018280548015611ca157602002820191906000526020600020905b815481526020019060010190808311611c8d575b505050505090508273__$b70d6334c7ecf3dc68d4f60562c05acf01$__63f76f950e866040518263ffffffff1660e01b8152600401611ce09190614e45565b60006040518083038186803b158015611cf857600080fd5b505af4158015611d0c573d6000803e3d6000fd5b505050506040513d6000823e3d601f19601f82011682018060405250810190611d359190613f32565b604051602001611d4692919061478e565b604051602081830303815290604052925060005b8151811015611dd457611d87828281518110611d7957611d78615313565b5b602002602001015185611c40565b935060018251611d9791906150f0565b811015611dc15783604051602001611daf91906147df565b60405160208183030381529060405293505b8080611dcc9061523d565b915050611d5a565b5082604051602001611de691906147bd565b60405160208183030381529060405291505092915050565b6000611e4a600960008473ffffffffffffffffffffffffffffffffffffffff1673ffffffffffffffffffffffffffffffffffffffff16815260200190815260200160002060020161344e565b9050919050565b6000600660009054906101000a900473ffffffffffffffffffffffffffffffffffffffff16905090565b606060018054611e8a906151da565b80601f0160208091040260200160405190810160405280929190818152602001828054611eb6906151da565b8015611f035780601f10611ed857610100808354040283529160200191611f03565b820191906000526020600020905b815481529060010190602001808311611ee657829003601f168201915b5050505050905090565b6000611f1882612dfa565b611f57576040517f08c379a0000000000000000000000000000000000000000000000000000000008152600401611f4e90614d05565b60405180910390fd5b611f756008600084815260200190815260200160002060030161344e565b9050919050565b611f84612e66565b73ffffffffffffffffffffffffffffffffffffffff16611fa2611e51565b73ffffffffffffffffffffffffffffffffffffffff1614611ff8576040517f08c379a0000000000000000000000000000000000000000000000000000000008152600401611fef90614d85565b60405180910390fd5b612000611e51565b73ffffffffffffffffffffffffffffffffffffffff16ff5b6000600b6000838152602001908152602001600020805490509050919050565b61204a612043612e66565b838361345c565b5050565b61205f612059612e66565b83612f27565b61209e576040517f08c379a000000000000000000000000000000000000000000000000000000000815260040161209590614de5565b60405180910390fd5b6120aa848484846135c9565b50505050565b6120b981612dfa565b6120f8576040517f08c379a00000000000000000000000000000000000000000000000000000000081526004016120ef90614d05565b60405180910390fd5b612101816116f3565b73ffffffffffffffffffffffffffffffffffffffff163373ffffffffffffffffffffffffffffffffffffffff16141561216f576040517f08c379a000000000000000000000000000000000000000000000000000000000815260040161216690614e25565b60405180910390fd5b61217833611094565b6121b7576040517f08c379a00000000000000000000000000000000000000000000000000000000081526004016121ae90614b45565b60405180910390fd5b6121d560086000838152602001908152602001600020600301613261565b7ffb54418a075541bd20e5e4e44bdbc01cea54f51e35d98a222395c2f0bce2e9f03382604051612206929190614942565b60405180910390a150565b606061221b612b73565b821115801561222a5750600082115b612269576040517f08c379a000000000000000000000000000000000000000000000000000000000815260040161226090614d05565b60405180910390fd5b61227282612dfa565b6123095773__$b70d6334c7ecf3dc68d4f60562c05acf01$__637c81358c836040518263ffffffff1660e01b81526004016122ad9190614e45565b60006040518083038186803b1580156122c557600080fd5b505af41580156122d9573d6000803e3d6000fd5b505050506040513d6000823e3d601f19601f820116820180604052508101906123029190613f32565b90506124ad565b600073__$b70d6334c7ecf3dc68d4f60562c05acf01$__63bbfae65a61232e85612b90565b61233f61233a876116f3565b611094565b61234887612d11565b600860008981526020019081526020016000206001015461237d600860008b815260200190815260200160002060030161344e565b61239b600860008c815260200190815260200160002060040161344e565b6040518763ffffffff1660e01b81526004016123bc96959493929190614a0e565b60006040518083038186803b1580156123d457600080fd5b505af41580156123e8573d6000803e3d6000fd5b505050506040513d6000823e3d601f19601f820116820180604052508101906124119190613f32565b905073__$b70d6334c7ecf3dc68d4f60562c05acf01$__63d5f768f3612436856109ce565b836040518363ffffffff1660e01b8152600401612454929190614a76565b60006040518083038186803b15801561246c57600080fd5b505af4158015612480573d6000803e3d6000fd5b505050506040513d6000823e3d601f19601f820116820180604052508101906124a99190613f32565b9150505b919050565b60006124fe600960008473ffffffffffffffffffffffffffffffffffffffff1673ffffffffffffffffffffffffffffffffffffffff16815260200190815260200160002060030161344e565b9050919050565b600061251082612dfa565b61254f576040517f08c379a000000000000000000000000000000000000000000000000000000000815260040161254690614d05565b60405180910390fd5b61256d6008600084815260200190815260200160002060040161344e565b9050919050565b61257f816000612582565b50565b60004290506000612593600761344e565b9050600073__$1c41232b8c3f9382c4bdca1a05a1ab00e7$__6311075499866040518263ffffffff1660e01b81526004016125ce91906149ca565b60206040518083038186803b1580156125e657600080fd5b505af41580156125fa573d6000803e3d6000fd5b505050506040513d601f19601f8201168201806040525081019061261e9190614004565b90506055811115612664576040517f08c379a000000000000000000000000000000000000000000000000000000000815260040161265b90614bc5565b60405180910390fd5b60008411156126f05761267684612dfa565b6126b5576040517f08c379a00000000000000000000000000000000000000000000000000000000081526004016126ac90614e05565b60405180910390fd5b600b60008581526020019081526020016000208290806001815401808255809150506001900390600052602060002001600090919091909150555b60006040518060a0016040528087815260200185815260200186815260200160405180602001604052806000815250815260200160405180602001604052806000815250815250905080600860008581526020019081526020016000206000820151816000019080519060200190612769929190613a1b565b506020820151816001015560408201518160020155606082015181600301600082015181600001555050608082015181600401600082015181600001555050905050600960003373ffffffffffffffffffffffffffffffffffffffff1673ffffffffffffffffffffffffffffffffffffffff16815260200190815260200160002060010183908060018154018082558091505060019003906000526020600020016000909190919091505561281e3384613625565b6128286007613261565b7f8d9871f9023b1b594fe9ab753d9a7c94ee4896bb9af6d4869ad031f84782e423833388878960405161285f959493929190614e7b565b60405180910390a1505050505050565b606073__$b70d6334c7ecf3dc68d4f60562c05acf01$__6337929eb46040518163ffffffff1660e01b815260040160006040518083038186803b1580156128b557600080fd5b505af41580156128c9573d6000803e3d6000fd5b505050506040513d6000823e3d601f19601f820116820180604052508101906128f29190613f32565b905090565b6000600560008473ffffffffffffffffffffffffffffffffffffffff1673ffffffffffffffffffffffffffffffffffffffff16815260200190815260200160002060008373ffffffffffffffffffffffffffffffffffffffff1673ffffffffffffffffffffffffffffffffffffffff16815260200190815260200160002060009054906101000a900460ff16905092915050565b6060600960008373ffffffffffffffffffffffffffffffffffffffff1673ffffffffffffffffffffffffffffffffffffffff168152602001908152602001600020600101805480602002602001604051908101604052809291908181526020018280548015612a1957602002820191906000526020600020905b815481526020019060010190808311612a05575b50505050509050919050565b6000808290506000600860008581526020019081526020016000206002015490505b6000811115612a715780915060086000828152602001908152602001600020600201549050612a47565b8192505050919050565b612a83612e66565b73ffffffffffffffffffffffffffffffffffffffff16612aa1611e51565b73ffffffffffffffffffffffffffffffffffffffff1614612af7576040517f08c379a0000000000000000000000000000000000000000000000000000000008152600401612aee90614d85565b60405180910390fd5b600073ffffffffffffffffffffffffffffffffffffffff168173ffffffffffffffffffffffffffffffffffffffff161415612b67576040517f08c379a0000000000000000000000000000000000000000000000000000000008152600401612b5e90614b85565b60405180910390fd5b612b7081613388565b50565b60006001612b81600761344e565b612b8b91906150f0565b905090565b60606000612b9d836116f3565b9050612ba881611094565b612c3d5773__$1c41232b8c3f9382c4bdca1a05a1ab00e7$__636c76bd4a826040518263ffffffff1660e01b8152600401612be39190614867565b60006040518083038186803b158015612bfb57600080fd5b505af4158015612c0f573d6000803e3d6000fd5b505050506040513d6000823e3d601f19601f82011682018060405250810190612c389190613f32565b612d09565b600960008273ffffffffffffffffffffffffffffffffffffffff1673ffffffffffffffffffffffffffffffffffffffff1681526020019081526020016000206000018054612c8a906151da565b80601f0160208091040260200160405190810160405280929190818152602001828054612cb6906151da565b8015612d035780601f10612cd857610100808354040283529160200191612d03565b820191906000526020600020905b815481529060010190602001808311612ce657829003601f168201915b50505050505b915050919050565b600080612d1d83611f0d565b90506000612d2a84612505565b90506000806064905082841015612d6357600c5460648585612d4c91906150f0565b612d569190615096565b612d609190615065565b91505b60648210612d745760009050612d84565b816064612d8191906150f0565b90505b80945050505050919050565b60007f01ffc9a7000000000000000000000000000000000000000000000000000000007bffffffffffffffffffffffffffffffffffffffffffffffffffffffff1916827bffffffffffffffffffffffffffffffffffffffffffffffffffffffff1916149050919050565b60008073ffffffffffffffffffffffffffffffffffffffff166002600084815260200190815260200160002060009054906101000a900473ffffffffffffffffffffffffffffffffffffffff1673ffffffffffffffffffffffffffffffffffffffff1614159050919050565b600033905090565b816004600083815260200190815260200160002060006101000a81548173ffffffffffffffffffffffffffffffffffffffff021916908373ffffffffffffffffffffffffffffffffffffffff160217905550808273ffffffffffffffffffffffffffffffffffffffff16612ee1836116f3565b73ffffffffffffffffffffffffffffffffffffffff167f8c5be1e5ebec7d5bd14f71427d1e84f3dd0314c0f7b2291e5b200ac8c7c3b92560405160405180910390a45050565b6000612f3282612dfa565b612f71576040517f08c379a0000000000000000000000000000000000000000000000000000000008152600401612f6890614c45565b60405180910390fd5b6000612f7c836116f3565b90508073ffffffffffffffffffffffffffffffffffffffff168473ffffffffffffffffffffffffffffffffffffffff161480612feb57508373ffffffffffffffffffffffffffffffffffffffff16612fd384610ed2565b73ffffffffffffffffffffffffffffffffffffffff16145b80612ffc5750612ffb81856128f7565b5b91505092915050565b8273ffffffffffffffffffffffffffffffffffffffff16613025826116f3565b73ffffffffffffffffffffffffffffffffffffffff161461307b576040517f08c379a000000000000000000000000000000000000000000000000000000000815260040161307290614da5565b60405180910390fd5b600073ffffffffffffffffffffffffffffffffffffffff168273ffffffffffffffffffffffffffffffffffffffff1614156130eb576040517f08c379a00000000000000000000000000000000000000000000000000000000081526004016130e290614c05565b60405180910390fd5b6130f6838383613643565b613101600082612e6e565b6001600360008573ffffffffffffffffffffffffffffffffffffffff1673ffffffffffffffffffffffffffffffffffffffff168152602001908152602001600020600082825461315191906150f0565b925050819055506001600360008473ffffffffffffffffffffffffffffffffffffffff1673ffffffffffffffffffffffffffffffffffffffff16815260200190815260200160002060008282546131a8919061500f565b92505081905550816002600083815260200190815260200160002060006101000a81548173ffffffffffffffffffffffffffffffffffffffff021916908373ffffffffffffffffffffffffffffffffffffffff160217905550808273ffffffffffffffffffffffffffffffffffffffff168473ffffffffffffffffffffffffffffffffffffffff167fddf252ad1be2c89b69c2b068fc378daa952ba7f163c4a11628f55a4df523b3ef60405160405180910390a4505050565b6001816000016000828254019250508190555050565b6000613282826116f3565b905061329081600084613643565b61329b600083612e6e565b6001600360008373ffffffffffffffffffffffffffffffffffffffff1673ffffffffffffffffffffffffffffffffffffffff16815260200190815260200160002060008282546132eb91906150f0565b925050819055506002600083815260200190815260200160002060006101000a81549073ffffffffffffffffffffffffffffffffffffffff021916905581600073ffffffffffffffffffffffffffffffffffffffff168273ffffffffffffffffffffffffffffffffffffffff167fddf252ad1be2c89b69c2b068fc378daa952ba7f163c4a11628f55a4df523b3ef60405160405180910390a45050565b6000600660009054906101000a900473ffffffffffffffffffffffffffffffffffffffff16905081600660006101000a81548173ffffffffffffffffffffffffffffffffffffffff021916908373ffffffffffffffffffffffffffffffffffffffff1602179055508173ffffffffffffffffffffffffffffffffffffffff168173ffffffffffffffffffffffffffffffffffffffff167f8be0079c531659141344cd1fd0a4f28419497f9722a3daafe3b4186f6b6457e060405160405180910390a35050565b600081600001549050919050565b8173ffffffffffffffffffffffffffffffffffffffff168373ffffffffffffffffffffffffffffffffffffffff1614156134cb576040517f08c379a00000000000000000000000000000000000000000000000000000000081526004016134c290614c25565b60405180910390fd5b80600560008573ffffffffffffffffffffffffffffffffffffffff1673ffffffffffffffffffffffffffffffffffffffff16815260200190815260200160002060008473ffffffffffffffffffffffffffffffffffffffff1673ffffffffffffffffffffffffffffffffffffffff16815260200190815260200160002060006101000a81548160ff0219169083151502179055508173ffffffffffffffffffffffffffffffffffffffff168373ffffffffffffffffffffffffffffffffffffffff167f17307eab39ab6107e8899845ad3d59bd9653f200f220920489ca2b5937696c31836040516135bc919061498d565b60405180910390a3505050565b6135d4848484613005565b6135e084848484613648565b61361f576040517f08c379a000000000000000000000000000000000000000000000000000000000815260040161361690614b65565b60405180910390fd5b50505050565b61363f8282604051806020016040528060008152506137df565b5050565b505050565b60006136698473ffffffffffffffffffffffffffffffffffffffff1661383a565b156137d2578373ffffffffffffffffffffffffffffffffffffffff1663150b7a02613692612e66565b8786866040518563ffffffff1660e01b81526004016136b494939291906148c6565b602060405180830381600087803b1580156136ce57600080fd5b505af19250505080156136ff57506040513d601f19601f820116820180604052508101906136fc9190613ebc565b60015b613782573d806000811461372f576040519150601f19603f3d011682016040523d82523d6000602084013e613734565b606091505b5060008151141561377a576040517f08c379a000000000000000000000000000000000000000000000000000000000815260040161377190614b65565b60405180910390fd5b805181602001fd5b63150b7a0260e01b7bffffffffffffffffffffffffffffffffffffffffffffffffffffffff1916817bffffffffffffffffffffffffffffffffffffffffffffffffffffffff1916149150506137d7565b600190505b949350505050565b6137e9838361384d565b6137f66000848484613648565b613835576040517f08c379a000000000000000000000000000000000000000000000000000000000815260040161382c90614b65565b60405180910390fd5b505050565b600080823b905060008111915050919050565b600073ffffffffffffffffffffffffffffffffffffffff168273ffffffffffffffffffffffffffffffffffffffff1614156138bd576040517f08c379a00000000000000000000000000000000000000000000000000000000081526004016138b490614d25565b60405180910390fd5b6138c681612dfa565b15613906576040517f08c379a00000000000000000000000000000000000000000000000000000000081526004016138fd90614ba5565b60405180910390fd5b61391260008383613643565b6001600360008473ffffffffffffffffffffffffffffffffffffffff1673ffffffffffffffffffffffffffffffffffffffff1681526020019081526020016000206000828254613962919061500f565b92505081905550816002600083815260200190815260200160002060006101000a81548173ffffffffffffffffffffffffffffffffffffffff021916908373ffffffffffffffffffffffffffffffffffffffff160217905550808273ffffffffffffffffffffffffffffffffffffffff16600073ffffffffffffffffffffffffffffffffffffffff167fddf252ad1be2c89b69c2b068fc378daa952ba7f163c4a11628f55a4df523b3ef60405160405180910390a45050565b828054613a27906151da565b90600052602060002090601f016020900481019282613a495760008555613a90565b82601f10613a6257805160ff1916838001178555613a90565b82800160010185558215613a90579182015b82811115613a8f578251825591602001919060010190613a74565b5b509050613a9d9190613ae1565b5090565b508054613aad906151da565b6000825580601f10613abf5750613ade565b601f016020900490600052602060002090810190613add9190613ae1565b5b50565b5b80821115613afa576000816000905550600101613ae2565b5090565b6000613b11613b0c84614efa565b614ed5565b905082815260208101848484011115613b2d57613b2c615376565b5b613b38848285615198565b509392505050565b6000613b53613b4e84614f2b565b614ed5565b905082815260208101848484011115613b6f57613b6e615376565b5b613b7a848285615198565b509392505050565b6000613b95613b9084614f2b565b614ed5565b905082815260208101848484011115613bb157613bb0615376565b5b613bbc8482856151a7565b509392505050565b600081359050613bd3816159dd565b92915050565b600081359050613be8816159f4565b92915050565b600081359050613bfd81615a0b565b92915050565b600081519050613c1281615a0b565b92915050565b600082601f830112613c2d57613c2c615371565b5b8135613c3d848260208601613afe565b91505092915050565b600082601f830112613c5b57613c5a615371565b5b8135613c6b848260208601613b40565b91505092915050565b600082601f830112613c8957613c88615371565b5b8151613c99848260208601613b82565b91505092915050565b600081359050613cb181615a22565b92915050565b600081519050613cc681615a22565b92915050565b600060208284031215613ce257613ce1615380565b5b6000613cf084828501613bc4565b91505092915050565b60008060408385031215613d1057613d0f615380565b5b6000613d1e85828601613bc4565b9250506020613d2f85828601613bc4565b9150509250929050565b600080600060608486031215613d5257613d51615380565b5b6000613d6086828701613bc4565b9350506020613d7186828701613bc4565b9250506040613d8286828701613ca2565b9150509250925092565b60008060008060808587031215613da657613da5615380565b5b6000613db487828801613bc4565b9450506020613dc587828801613bc4565b9350506040613dd687828801613ca2565b925050606085013567ffffffffffffffff811115613df757613df661537b565b5b613e0387828801613c18565b91505092959194509250565b60008060408385031215613e2657613e25615380565b5b6000613e3485828601613bc4565b9250506020613e4585828601613bd9565b9150509250929050565b60008060408385031215613e6657613e65615380565b5b6000613e7485828601613bc4565b9250506020613e8585828601613ca2565b9150509250929050565b600060208284031215613ea557613ea4615380565b5b6000613eb384828501613bee565b91505092915050565b600060208284031215613ed257613ed1615380565b5b6000613ee084828501613c03565b91505092915050565b600060208284031215613eff57613efe615380565b5b600082013567ffffffffffffffff811115613f1d57613f1c61537b565b5b613f2984828501613c46565b91505092915050565b600060208284031215613f4857613f47615380565b5b600082015167ffffffffffffffff811115613f6657613f6561537b565b5b613f7284828501613c74565b91505092915050565b60008060408385031215613f9257613f91615380565b5b600083013567ffffffffffffffff811115613fb057613faf61537b565b5b613fbc85828601613c46565b9250506020613fcd85828601613ca2565b9150509250929050565b600060208284031215613fed57613fec615380565b5b6000613ffb84828501613ca2565b91505092915050565b60006020828403121561401a57614019615380565b5b600061402884828501613cb7565b91505092915050565b6000806040838503121561404857614047615380565b5b600061405685828601613ca2565b925050602083013567ffffffffffffffff8111156140775761407661537b565b5b61408385828601613c46565b9150509250929050565b6000614099838361474a565b60208301905092915050565b6140ae81615124565b82525050565b6140bd81615124565b82525050565b60006140ce82614f81565b6140d88185614faf565b93506140e383614f5c565b8060005b838110156141145781516140fb888261408d565b975061410683614fa2565b9250506001810190506140e7565b5085935050505092915050565b61412a81615136565b82525050565b61413981615136565b82525050565b600061414a82614f8c565b6141548185614fc0565b93506141648185602086016151a7565b61416d81615385565b840191505092915050565b600061418382614f8c565b61418d8185614fd1565b935061419d8185602086016151a7565b6141a681615385565b840191505092915050565b60006141bc82614f97565b6141c68185614fe2565b93506141d68185602086016151a7565b6141df81615385565b840191505092915050565b60006141f582614f97565b6141ff8185614ff3565b935061420f8185602086016151a7565b61421881615385565b840191505092915050565b600061422e82614f97565b6142388185615004565b93506142488185602086016151a7565b80840191505092915050565b60008154614261816151da565b61426b8186614ff3565b945060018216600081146142865760018114614298576142cb565b60ff19831686526020860193506142cb565b6142a185614f6c565b60005b838110156142c3578154818901526001820191506020810190506142a4565b808801955050505b50505092915050565b600081546142e1816151da565b6142eb8186615004565b9450600182166000811461430657600181146143175761434a565b60ff1983168652818601935061434a565b61432085614f6c565b60005b8381101561434257815481890152600182019150602081019050614323565b838801955050505b50505092915050565b6000614360600c83614fe2565b915061436b82615396565b602082019050919050565b6000614383603283614fe2565b915061438e826153bf565b604082019050919050565b60006143a6602683614fe2565b91506143b18261540e565b604082019050919050565b60006143c9601c83614fe2565b91506143d48261545d565b602082019050919050565b60006143ec601083614fe2565b91506143f782615486565b602082019050919050565b600061440f600b83614fe2565b915061441a826154af565b602082019050919050565b6000614432602483614fe2565b915061443d826154d8565b604082019050919050565b6000614455601983614fe2565b915061446082615527565b602082019050919050565b6000614478602c83614fe2565b915061448382615550565b604082019050919050565b600061449b600a83614fe2565b91506144a68261559f565b602082019050919050565b60006144be600883614fe2565b91506144c9826155c8565b602082019050919050565b60006144e1603883614fe2565b91506144ec826155f1565b604082019050919050565b6000614504602a83614fe2565b915061450f82615640565b604082019050919050565b6000614527602983614fe2565b91506145328261568f565b604082019050919050565b600061454a600a83614fe2565b9150614555826156de565b602082019050919050565b600061456d602083614fe2565b915061457882615707565b602082019050919050565b6000614590600183615004565b915061459b82615730565b600182019050919050565b60006145b3602c83614fe2565b91506145be82615759565b604082019050919050565b60006145d6600d83614fe2565b91506145e1826157a8565b602082019050919050565b60006145f9602083614fe2565b9150614604826157d1565b602082019050919050565b600061461c602983614fe2565b9150614627826157fa565b604082019050919050565b600061463f600183615004565b915061464a82615849565b600182019050919050565b6000614662600383615004565b915061466d82615872565b600382019050919050565b6000614685602183614fe2565b91506146908261589b565b604082019050919050565b60006146a8600283615004565b91506146b3826158ea565b600282019050919050565b60006146cb603183614fe2565b91506146d682615913565b604082019050919050565b60006146ee601083614fe2565b91506146f982615962565b602082019050919050565b6000614711601883614fe2565b915061471c8261598b565b602082019050919050565b6000614734601a83615004565b915061473f826159b4565b601a82019050919050565b6147538161518e565b82525050565b6147628161518e565b82525050565b6147718161518e565b82525050565b60006147838284614223565b915081905092915050565b600061479a8285614223565b91506147a68284614223565b91506147b182614655565b91508190509392505050565b60006147c98284614223565b91506147d482614583565b915081905092915050565b60006147eb8284614223565b91506147f68261469b565b915081905092915050565b600061480d82846142d4565b915081905092915050565b600061482382614632565b915061482f8284614223565b915061483a82614583565b915081905092915050565b600061485082614727565b915061485c8284614223565b915081905092915050565b600060208201905061487c60008301846140b4565b92915050565b600060208201905061489760008301846140a5565b92915050565b60006040820190506148b260008301856140a5565b6148bf60208301846140a5565b9392505050565b60006080820190506148db60008301876140a5565b6148e860208301866140a5565b6148f56040830185614759565b8181036060830152614907818461413f565b905095945050505050565b600060408201905061492760008301856140a5565b818103602083015261493981846141b1565b90509392505050565b600060408201905061495760008301856140a5565b6149646020830184614759565b9392505050565b6000602082019050818103600083015261498581846140c3565b905092915050565b60006020820190506149a26000830184614121565b92915050565b600060208201905081810360008301526149c28184614178565b905092915050565b600060208201905081810360008301526149e481846141ea565b905092915050565b60006020820190508181036000830152614a0681846141b1565b905092915050565b600060c0820190508181036000830152614a2881896141ea565b9050614a376020830188614130565b614a446040830187614768565b614a516060830186614768565b614a5e6080830185614768565b614a6b60a0830184614768565b979650505050505050565b60006040820190508181036000830152614a9081856141ea565b90508181036020830152614aa481846141ea565b90509392505050565b60006080820190508181036000830152614ac781876141ea565b90508181036020830152614adb81866141ea565b90508181036040830152614aef81856141ea565b90508181036060830152614b0381846141ea565b905095945050505050565b60006040820190508181036000830152614b288185614254565b90508181036020830152614b3c81846141ea565b90509392505050565b60006020820190508181036000830152614b5e81614353565b9050919050565b60006020820190508181036000830152614b7e81614376565b9050919050565b60006020820190508181036000830152614b9e81614399565b9050919050565b60006020820190508181036000830152614bbe816143bc565b9050919050565b60006020820190508181036000830152614bde816143df565b9050919050565b60006020820190508181036000830152614bfe81614402565b9050919050565b60006020820190508181036000830152614c1e81614425565b9050919050565b60006020820190508181036000830152614c3e81614448565b9050919050565b60006020820190508181036000830152614c5e8161446b565b9050919050565b60006020820190508181036000830152614c7e8161448e565b9050919050565b60006020820190508181036000830152614c9e816144b1565b9050919050565b60006020820190508181036000830152614cbe816144d4565b9050919050565b60006020820190508181036000830152614cde816144f7565b9050919050565b60006020820190508181036000830152614cfe8161451a565b9050919050565b60006020820190508181036000830152614d1e8161453d565b9050919050565b60006020820190508181036000830152614d3e81614560565b9050919050565b60006020820190508181036000830152614d5e816145a6565b9050919050565b60006020820190508181036000830152614d7e816145c9565b9050919050565b60006020820190508181036000830152614d9e816145ec565b9050919050565b60006020820190508181036000830152614dbe8161460f565b9050919050565b60006020820190508181036000830152614dde81614678565b9050919050565b60006020820190508181036000830152614dfe816146be565b9050919050565b60006020820190508181036000830152614e1e816146e1565b9050919050565b60006020820190508181036000830152614e3e81614704565b9050919050565b6000602082019050614e5a6000830184614768565b92915050565b6000602082019050614e756000830184614759565b92915050565b600060a082019050614e906000830188614759565b614e9d60208301876140a5565b8181036040830152614eaf81866141b1565b9050614ebe6060830185614759565b614ecb6080830184614759565b9695505050505050565b6000614edf614ef0565b9050614eeb828261520c565b919050565b6000604051905090565b600067ffffffffffffffff821115614f1557614f14615342565b5b614f1e82615385565b9050602081019050919050565b600067ffffffffffffffff821115614f4657614f45615342565b5b614f4f82615385565b9050602081019050919050565b6000819050602082019050919050565b60008190508160005260206000209050919050565b600081519050919050565b600081519050919050565b600081519050919050565b6000602082019050919050565b600082825260208201905092915050565b600082825260208201905092915050565b600082825260208201905092915050565b600082825260208201905092915050565b600082825260208201905092915050565b600081905092915050565b600061501a8261518e565b91506150258361518e565b9250827fffffffffffffffffffffffffffffffffffffffffffffffffffffffffffffffff0382111561505a57615059615286565b5b828201905092915050565b60006150708261518e565b915061507b8361518e565b92508261508b5761508a6152b5565b5b828204905092915050565b60006150a18261518e565b91506150ac8361518e565b9250817fffffffffffffffffffffffffffffffffffffffffffffffffffffffffffffffff04831182151516156150e5576150e4615286565b5b828202905092915050565b60006150fb8261518e565b91506151068361518e565b92508282101561511957615118615286565b5b828203905092915050565b600061512f8261516e565b9050919050565b60008115159050919050565b60007fffffffff0000000000000000000000000000000000000000000000000000000082169050919050565b600073ffffffffffffffffffffffffffffffffffffffff82169050919050565b6000819050919050565b82818337600083830152505050565b60005b838110156151c55780820151818401526020810190506151aa565b838111156151d4576000848401525b50505050565b600060028204905060018216806151f257607f821691505b60208210811415615206576152056152e4565b5b50919050565b61521582615385565b810181811067ffffffffffffffff8211171561523457615233615342565b5b80604052505050565b60006152488261518e565b91507fffffffffffffffffffffffffffffffffffffffffffffffffffffffffffffffff82141561527b5761527a615286565b5b600182019050919050565b7f4e487b7100000000000000000000000000000000000000000000000000000000600052601160045260246000fd5b7f4e487b7100000000000000000000000000000000000000000000000000000000600052601260045260246000fd5b7f4e487b7100000000000000000000000000000000000000000000000000000000600052602260045260246000fd5b7f4e487b7100000000000000000000000000000000000000000000000000000000600052603260045260246000fd5b7f4e487b7100000000000000000000000000000000000000000000000000000000600052604160045260246000fd5b600080fd5b600080fd5b600080fd5b600080fd5b6000601f19601f8301169050919050565b7f556e726567697374657265640000000000000000000000000000000000000000600082015250565b7f4552433732313a207472616e7366657220746f206e6f6e20455243373231526560008201527f63656976657220696d706c656d656e7465720000000000000000000000000000602082015250565b7f4f776e61626c653a206e6577206f776e657220697320746865207a65726f206160008201527f6464726573730000000000000000000000000000000000000000000000000000602082015250565b7f4552433732313a20746f6b656e20616c7265616479206d696e74656400000000600082015250565b7f4d65737361676520746f6f206c6f6e6700000000000000000000000000000000600082015250565b7f496e76616c696420494421000000000000000000000000000000000000000000600082015250565b7f4552433732313a207472616e7366657220746f20746865207a65726f2061646460008201527f7265737300000000000000000000000000000000000000000000000000000000602082015250565b7f4552433732313a20617070726f766520746f2063616c6c657200000000000000600082015250565b7f4552433732313a206f70657261746f7220717565727920666f72206e6f6e657860008201527f697374656e7420746f6b656e0000000000000000000000000000000000000000602082015250565b7f4e616d652074616b656e00000000000000000000000000000000000000000000600082015250565b7f546f6f206c6f6e67000000000000000000000000000000000000000000000000600082015250565b7f4552433732313a20617070726f76652063616c6c6572206973206e6f74206f7760008201527f6e6572206e6f7220617070726f76656420666f7220616c6c0000000000000000602082015250565b7f4552433732313a2062616c616e636520717565727920666f7220746865207a6560008201527f726f206164647265737300000000000000000000000000000000000000000000602082015250565b7f4552433732313a206f776e657220717565727920666f72206e6f6e657869737460008201527f656e7420746f6b656e0000000000000000000000000000000000000000000000602082015250565b7f496e76616c696420494400000000000000000000000000000000000000000000600082015250565b7f4552433732313a206d696e7420746f20746865207a65726f2061646472657373600082015250565b7f7d00000000000000000000000000000000000000000000000000000000000000600082015250565b7f4552433732313a20617070726f76656420717565727920666f72206e6f6e657860008201527f697374656e7420746f6b656e0000000000000000000000000000000000000000602082015250565b7f4e6f207065726d697373696f6e00000000000000000000000000000000000000600082015250565b7f4f776e61626c653a2063616c6c6572206973206e6f7420746865206f776e6572600082015250565b7f4552433732313a207472616e73666572206f6620746f6b656e2074686174206960008201527f73206e6f74206f776e0000000000000000000000000000000000000000000000602082015250565b7f7b00000000000000000000000000000000000000000000000000000000000000600082015250565b7f3a207b0000000000000000000000000000000000000000000000000000000000600082015250565b7f4552433732313a20617070726f76616c20746f2063757272656e74206f776e6560008201527f7200000000000000000000000000000000000000000000000000000000000000602082015250565b7f2c20000000000000000000000000000000000000000000000000000000000000600082015250565b7f4552433732313a207472616e736665722063616c6c6572206973206e6f74206f60008201527f776e6572206e6f7220617070726f766564000000000000000000000000000000602082015250565b7f496e76616c6964207265706c7920496400000000000000000000000000000000600082015250565b7f43616e6e6f7420766f746520666f7220796f757273656c660000000000000000600082015250565b7f646174613a696d6167652f7376672b786d6c3b6261736536342c000000000000600082015250565b6159e681615124565b81146159f157600080fd5b50565b6159fd81615136565b8114615a0857600080fd5b50565b615a1481615142565b8114615a1f57600080fd5b50565b615a2b8161518e565b8114615a3657600080fd5b5056fea26469706673582212201b85a7c4e0897c686f877a46621b5380322fd5146e259be5e3086f23ddd2a72b64736f6c63430008060033",
  "linkReferences": {
    "contracts/NFtalkMetaData.sol": {
      "NFtalkMetaData": [
        {
          "length": 20,
          "start": 3295
        },
        {
          "length": 20,
          "start": 3461
        },
        {
          "length": 20,
          "start": 3496
        },
        {
          "length": 20,
          "start": 3762
        },
        {
          "length": 20,
          "start": 3810
        },
        {
          "length": 20,
          "start": 4067
        },
        {
          "length": 20,
          "start": 4215
        },
        {
          "length": 20,
          "start": 8089
        },
        {
          "length": 20,
          "start": 9574
        },
        {
          "length": 20,
          "start": 9723
        },
        {
          "length": 20,
          "start": 9987
        },
        {
          "length": 20,
          "start": 11105
        }
      ]
    },
    "contracts/Utils.sol": {
      "Utils": [
        {
          "length": 20,
          "start": 5456
        },
        {
          "length": 20,
          "start": 10375
        },
        {
          "length": 20,
          "start": 11932
        }
      ]
    }
  },
  "deployedLinkReferences": {
    "contracts/NFtalkMetaData.sol": {
      "NFtalkMetaData": [
        {
          "length": 20,
          "start": 2545
        },
        {
          "length": 20,
          "start": 2711
        },
        {
          "length": 20,
          "start": 2746
        },
        {
          "length": 20,
          "start": 3012
        },
        {
          "length": 20,
          "start": 3060
        },
        {
          "length": 20,
          "start": 3317
        },
        {
          "length": 20,
          "start": 3465
        },
        {
          "length": 20,
          "start": 7339
        },
        {
          "length": 20,
          "start": 8824
        },
        {
          "length": 20,
          "start": 8973
        },
        {
          "length": 20,
          "start": 9237
        },
        {
          "length": 20,
          "start": 10355
        }
      ]
    },
    "contracts/Utils.sol": {
      "Utils": [
        {
          "length": 20,
          "start": 4706
        },
        {
          "length": 20,
          "start": 9625
        },
        {
          "length": 20,
          "start": 11182
        }
      ]
    }
  }
}