{
  "_format": "hh-sol-artifact-1",
  "contractName": "NFTweet",
  "sourceName": "contracts/NFTweet.sol",
  "abi": [
    {
      "anonymous": false,
      "inputs": [
        {
          "indexed": true,
          "internalType": "address",
          "name": "owner",
          "type": "address"
        },
        {
          "indexed": true,
          "internalType": "address",
          "name": "approved",
          "type": "address"
        },
        {
          "indexed": true,
          "internalType": "uint256",
          "name": "tokenId",
          "type": "uint256"
        }
      ],
      "name": "Approval",
      "type": "event"
    },
    {
      "anonymous": false,
      "inputs": [
        {
          "indexed": true,
          "internalType": "address",
          "name": "owner",
          "type": "address"
        },
        {
          "indexed": true,
          "internalType": "address",
          "name": "operator",
          "type": "address"
        },
        {
          "indexed": false,
          "internalType": "bool",
          "name": "approved",
          "type": "bool"
        }
      ],
      "name": "ApprovalForAll",
      "type": "event"
    },
    {
      "anonymous": false,
      "inputs": [
        {
          "indexed": false,
          "internalType": "uint256",
          "name": "Id",
          "type": "uint256"
        }
      ],
      "name": "BurntMessage",
      "type": "event"
    },
    {
      "anonymous": false,
      "inputs": [
        {
          "indexed": false,
          "internalType": "uint256",
          "name": "value",
          "type": "uint256"
        }
      ],
      "name": "MESSAGE_VOTES_INVISIBLE_SET",
      "type": "event"
    },
    {
      "anonymous": false,
      "inputs": [
        {
          "indexed": false,
          "internalType": "uint256",
          "name": "Id",
          "type": "uint256"
        },
        {
          "indexed": false,
          "internalType": "address",
          "name": "author",
          "type": "address"
        },
        {
          "indexed": false,
          "internalType": "string",
          "name": "message",
          "type": "string"
        },
        {
          "indexed": false,
          "internalType": "uint256",
          "name": "timestamp",
          "type": "uint256"
        },
        {
          "indexed": false,
          "internalType": "uint256",
          "name": "replyTo",
          "type": "uint256"
        }
      ],
      "name": "NewMessage",
      "type": "event"
    },
    {
      "anonymous": false,
      "inputs": [
        {
          "indexed": true,
          "internalType": "address",
          "name": "previousOwner",
          "type": "address"
        },
        {
          "indexed": true,
          "internalType": "address",
          "name": "newOwner",
          "type": "address"
        }
      ],
      "name": "OwnershipTransferred",
      "type": "event"
    },
    {
      "anonymous": false,
      "inputs": [
        {
          "indexed": true,
          "internalType": "address",
          "name": "from",
          "type": "address"
        },
        {
          "indexed": true,
          "internalType": "address",
          "name": "to",
          "type": "address"
        },
        {
          "indexed": true,
          "internalType": "uint256",
          "name": "tokenId",
          "type": "uint256"
        }
      ],
      "name": "Transfer",
      "type": "event"
    },
    {
      "anonymous": false,
      "inputs": [
        {
          "indexed": false,
          "internalType": "uint256",
          "name": "value",
          "type": "uint256"
        }
      ],
      "name": "USER_VOTES_INVISIBLE_SET",
      "type": "event"
    },
    {
      "anonymous": false,
      "inputs": [
        {
          "indexed": false,
          "internalType": "address",
          "name": "user",
          "type": "address"
        },
        {
          "indexed": false,
          "internalType": "string",
          "name": "name",
          "type": "string"
        }
      ],
      "name": "UserNameCleared",
      "type": "event"
    },
    {
      "anonymous": false,
      "inputs": [
        {
          "indexed": false,
          "internalType": "address",
          "name": "user",
          "type": "address"
        },
        {
          "indexed": false,
          "internalType": "string",
          "name": "name",
          "type": "string"
        }
      ],
      "name": "UserNameSet",
      "type": "event"
    },
    {
      "anonymous": false,
      "inputs": [
        {
          "indexed": false,
          "internalType": "address",
          "name": "voter",
          "type": "address"
        },
        {
          "indexed": false,
          "internalType": "uint256",
          "name": "Id",
          "type": "uint256"
        }
      ],
      "name": "VoteDown",
      "type": "event"
    },
    {
      "anonymous": false,
      "inputs": [
        {
          "indexed": false,
          "internalType": "address",
          "name": "voter",
          "type": "address"
        },
        {
          "indexed": false,
          "internalType": "uint256",
          "name": "Id",
          "type": "uint256"
        }
      ],
      "name": "VoteUp",
      "type": "event"
    },
    {
      "anonymous": false,
      "inputs": [
        {
          "indexed": false,
          "internalType": "address",
          "name": "voter",
          "type": "address"
        },
        {
          "indexed": false,
          "internalType": "address",
          "name": "voted",
          "type": "address"
        }
      ],
      "name": "VoteUserDown",
      "type": "event"
    },
    {
      "anonymous": false,
      "inputs": [
        {
          "indexed": false,
          "internalType": "address",
          "name": "voter",
          "type": "address"
        },
        {
          "indexed": false,
          "internalType": "address",
          "name": "voted",
          "type": "address"
        }
      ],
      "name": "VoteUserUp",
      "type": "event"
    },
    {
      "inputs": [],
      "name": "MAX_MESSAGE_LENGTH",
      "outputs": [
        {
          "internalType": "uint256",
          "name": "",
          "type": "uint256"
        }
      ],
      "stateMutability": "view",
      "type": "function"
    },
    {
      "inputs": [],
      "name": "MAX_USERNAME_LENGTH",
      "outputs": [
        {
          "internalType": "uint256",
          "name": "",
          "type": "uint256"
        }
      ],
      "stateMutability": "view",
      "type": "function"
    },
    {
      "inputs": [],
      "name": "MESSAGE_VOTES_INVISIBLE",
      "outputs": [
        {
          "internalType": "uint256",
          "name": "",
          "type": "uint256"
        }
      ],
      "stateMutability": "view",
      "type": "function"
    },
    {
      "inputs": [],
      "name": "USER_VOTES_INVISIBLE",
      "outputs": [
        {
          "internalType": "uint256",
          "name": "",
          "type": "uint256"
        }
      ],
      "stateMutability": "view",
      "type": "function"
    },
    {
      "inputs": [
        {
          "internalType": "address",
          "name": "to",
          "type": "address"
        },
        {
          "internalType": "uint256",
          "name": "tokenId",
          "type": "uint256"
        }
      ],
      "name": "approve",
      "outputs": [],
      "stateMutability": "nonpayable",
      "type": "function"
    },
    {
      "inputs": [
        {
          "internalType": "address",
          "name": "owner",
          "type": "address"
        }
      ],
      "name": "balanceOf",
      "outputs": [
        {
          "internalType": "uint256",
          "name": "",
          "type": "uint256"
        }
      ],
      "stateMutability": "view",
      "type": "function"
    },
    {
      "inputs": [
        {
          "internalType": "uint256",
          "name": "_Id",
          "type": "uint256"
        }
      ],
      "name": "burn",
      "outputs": [],
      "stateMutability": "nonpayable",
      "type": "function"
    },
    {
      "inputs": [],
      "name": "clearUserName",
      "outputs": [],
      "stateMutability": "nonpayable",
      "type": "function"
    },
    {
      "inputs": [],
      "name": "contractURI",
      "outputs": [
        {
          "internalType": "string",
          "name": "",
          "type": "string"
        }
      ],
      "stateMutability": "pure",
      "type": "function"
    },
    {
      "inputs": [
        {
          "internalType": "uint256",
          "name": "tokenId",
          "type": "uint256"
        }
      ],
      "name": "getApproved",
      "outputs": [
        {
          "internalType": "address",
          "name": "",
          "type": "address"
        }
      ],
      "stateMutability": "view",
      "type": "function"
    },
    {
      "inputs": [],
      "name": "getLatestMessageId",
      "outputs": [
        {
          "internalType": "uint256",
          "name": "",
          "type": "uint256"
        }
      ],
      "stateMutability": "view",
      "type": "function"
    },
    {
      "inputs": [
        {
          "internalType": "uint256",
          "name": "_Id",
          "type": "uint256"
        }
      ],
      "name": "getMessageDownVotes",
      "outputs": [
        {
          "internalType": "uint256",
          "name": "",
          "type": "uint256"
        }
      ],
      "stateMutability": "view",
      "type": "function"
    },
    {
      "inputs": [
        {
          "internalType": "uint256",
          "name": "_Id",
          "type": "uint256"
        }
      ],
      "name": "getMessageUpVotes",
      "outputs": [
        {
          "internalType": "uint256",
          "name": "",
          "type": "uint256"
        }
      ],
      "stateMutability": "view",
      "type": "function"
    },
    {
      "inputs": [
        {
          "internalType": "uint256",
          "name": "_Id",
          "type": "uint256"
        }
      ],
      "name": "getReplyMessageId",
      "outputs": [
        {
          "internalType": "uint256",
          "name": "",
          "type": "uint256"
        }
      ],
      "stateMutability": "view",
      "type": "function"
    },
    {
      "inputs": [
        {
          "internalType": "uint256",
          "name": "_Id",
          "type": "uint256"
        }
      ],
      "name": "getSVG64",
      "outputs": [
        {
          "internalType": "string",
          "name": "",
          "type": "string"
        }
      ],
      "stateMutability": "view",
      "type": "function"
    },
    {
      "inputs": [
        {
          "internalType": "address",
          "name": "_user",
          "type": "address"
        }
      ],
      "name": "getUserDownVotes",
      "outputs": [
        {
          "internalType": "uint256",
          "name": "",
          "type": "uint256"
        }
      ],
      "stateMutability": "view",
      "type": "function"
    },
    {
      "inputs": [
        {
          "internalType": "address",
          "name": "_user",
          "type": "address"
        }
      ],
      "name": "getUserMessageIds",
      "outputs": [
        {
          "internalType": "uint256[]",
          "name": "",
          "type": "uint256[]"
        }
      ],
      "stateMutability": "view",
      "type": "function"
    },
    {
      "inputs": [
        {
          "internalType": "address",
          "name": "_user",
          "type": "address"
        }
      ],
      "name": "getUserName",
      "outputs": [
        {
          "internalType": "string",
          "name": "",
          "type": "string"
        }
      ],
      "stateMutability": "view",
      "type": "function"
    },
    {
      "inputs": [
        {
          "internalType": "address",
          "name": "_user",
          "type": "address"
        }
      ],
      "name": "getUserUpVotes",
      "outputs": [
        {
          "internalType": "uint256",
          "name": "",
          "type": "uint256"
        }
      ],
      "stateMutability": "view",
      "type": "function"
    },
    {
      "inputs": [
        {
          "internalType": "uint256",
          "name": "_Id",
          "type": "uint256"
        }
      ],
      "name": "getVisibility",
      "outputs": [
        {
          "internalType": "uint256",
          "name": "",
          "type": "uint256"
        }
      ],
      "stateMutability": "view",
      "type": "function"
    },
    {
      "inputs": [
        {
          "internalType": "address",
          "name": "owner",
          "type": "address"
        },
        {
          "internalType": "address",
          "name": "operator",
          "type": "address"
        }
      ],
      "name": "isApprovedForAll",
      "outputs": [
        {
          "internalType": "bool",
          "name": "",
          "type": "bool"
        }
      ],
      "stateMutability": "view",
      "type": "function"
    },
    {
      "inputs": [
        {
          "internalType": "address",
          "name": "_user",
          "type": "address"
        }
      ],
      "name": "isRegisteredUser",
      "outputs": [
        {
          "internalType": "bool",
          "name": "",
          "type": "bool"
        }
      ],
      "stateMutability": "view",
      "type": "function"
    },
    {
      "inputs": [
        {
          "internalType": "uint256",
          "name": "_Id",
          "type": "uint256"
        }
      ],
      "name": "isReplyMessage",
      "outputs": [
        {
          "internalType": "bool",
          "name": "",
          "type": "bool"
        }
      ],
      "stateMutability": "view",
      "type": "function"
    },
    {
      "inputs": [
        {
          "internalType": "string",
          "name": "_text",
          "type": "string"
        }
      ],
      "name": "mint",
      "outputs": [],
      "stateMutability": "nonpayable",
      "type": "function"
    },
    {
      "inputs": [
        {
          "internalType": "string",
          "name": "_text",
          "type": "string"
        },
        {
          "internalType": "uint256",
          "name": "_replyTo",
          "type": "uint256"
        }
      ],
      "name": "mintReply",
      "outputs": [],
      "stateMutability": "nonpayable",
      "type": "function"
    },
    {
      "inputs": [],
      "name": "name",
      "outputs": [
        {
          "internalType": "string",
          "name": "",
          "type": "string"
        }
      ],
      "stateMutability": "view",
      "type": "function"
    },
    {
      "inputs": [],
      "name": "owner",
      "outputs": [
        {
          "internalType": "address",
          "name": "",
          "type": "address"
        }
      ],
      "stateMutability": "view",
      "type": "function"
    },
    {
      "inputs": [
        {
          "internalType": "uint256",
          "name": "tokenId",
          "type": "uint256"
        }
      ],
      "name": "ownerOf",
      "outputs": [
        {
          "internalType": "address",
          "name": "",
          "type": "address"
        }
      ],
      "stateMutability": "view",
      "type": "function"
    },
    {
      "inputs": [],
      "name": "renounceOwnership",
      "outputs": [],
      "stateMutability": "nonpayable",
      "type": "function"
    },
    {
      "inputs": [
        {
          "internalType": "address",
          "name": "from",
          "type": "address"
        },
        {
          "internalType": "address",
          "name": "to",
          "type": "address"
        },
        {
          "internalType": "uint256",
          "name": "tokenId",
          "type": "uint256"
        }
      ],
      "name": "safeTransferFrom",
      "outputs": [],
      "stateMutability": "nonpayable",
      "type": "function"
    },
    {
      "inputs": [
        {
          "internalType": "address",
          "name": "from",
          "type": "address"
        },
        {
          "internalType": "address",
          "name": "to",
          "type": "address"
        },
        {
          "internalType": "uint256",
          "name": "tokenId",
          "type": "uint256"
        },
        {
          "internalType": "bytes",
          "name": "_data",
          "type": "bytes"
        }
      ],
      "name": "safeTransferFrom",
      "outputs": [],
      "stateMutability": "nonpayable",
      "type": "function"
    },
    {
      "inputs": [
        {
          "internalType": "address",
          "name": "operator",
          "type": "address"
        },
        {
          "internalType": "bool",
          "name": "approved",
          "type": "bool"
        }
      ],
      "name": "setApprovalForAll",
      "outputs": [],
      "stateMutability": "nonpayable",
      "type": "function"
    },
    {
      "inputs": [
        {
          "internalType": "uint256",
          "name": "_value",
          "type": "uint256"
        }
      ],
      "name": "setMESSAGE_VOTES_INVISIBLE",
      "outputs": [],
      "stateMutability": "nonpayable",
      "type": "function"
    },
    {
      "inputs": [
        {
          "internalType": "uint256",
          "name": "_value",
          "type": "uint256"
        }
      ],
      "name": "setUSER_VOTES_INVISIBLE",
      "outputs": [],
      "stateMutability": "nonpayable",
      "type": "function"
    },
    {
      "inputs": [
        {
          "internalType": "string",
          "name": "_name",
          "type": "string"
        }
      ],
      "name": "setUserName",
      "outputs": [],
      "stateMutability": "nonpayable",
      "type": "function"
    },
    {
      "inputs": [
        {
          "internalType": "bytes4",
          "name": "interfaceId",
          "type": "bytes4"
        }
      ],
      "name": "supportsInterface",
      "outputs": [
        {
          "internalType": "bool",
          "name": "",
          "type": "bool"
        }
      ],
      "stateMutability": "view",
      "type": "function"
    },
    {
      "inputs": [],
      "name": "symbol",
      "outputs": [
        {
          "internalType": "string",
          "name": "",
          "type": "string"
        }
      ],
      "stateMutability": "view",
      "type": "function"
    },
    {
      "inputs": [
        {
          "internalType": "uint256",
          "name": "_Id",
          "type": "uint256"
        }
      ],
      "name": "tokenURI",
      "outputs": [
        {
          "internalType": "string",
          "name": "",
          "type": "string"
        }
      ],
      "stateMutability": "view",
      "type": "function"
    },
    {
      "inputs": [
        {
          "internalType": "address",
          "name": "from",
          "type": "address"
        },
        {
          "internalType": "address",
          "name": "to",
          "type": "address"
        },
        {
          "internalType": "uint256",
          "name": "tokenId",
          "type": "uint256"
        }
      ],
      "name": "transferFrom",
      "outputs": [],
      "stateMutability": "nonpayable",
      "type": "function"
    },
    {
      "inputs": [
        {
          "internalType": "address",
          "name": "newOwner",
          "type": "address"
        }
      ],
      "name": "transferOwnership",
      "outputs": [],
      "stateMutability": "nonpayable",
      "type": "function"
    },
    {
      "inputs": [
        {
          "internalType": "uint256",
          "name": "_Id",
          "type": "uint256"
        }
      ],
      "name": "voteDownMessage",
      "outputs": [],
      "stateMutability": "nonpayable",
      "type": "function"
    },
    {
      "inputs": [
        {
          "internalType": "address",
          "name": "_user",
          "type": "address"
        }
      ],
      "name": "voteDownUser",
      "outputs": [],
      "stateMutability": "nonpayable",
      "type": "function"
    },
    {
      "inputs": [
        {
          "internalType": "uint256",
          "name": "_Id",
          "type": "uint256"
        }
      ],
      "name": "voteUpMessage",
      "outputs": [],
      "stateMutability": "nonpayable",
      "type": "function"
    },
    {
      "inputs": [
        {
          "internalType": "address",
          "name": "_user",
          "type": "address"
        }
      ],
      "name": "voteUpUser",
      "outputs": [],
      "stateMutability": "nonpayable",
      "type": "function"
    }
  ],
  "bytecode": "0x60806040526040518060200160405280600181525060076000820151816000015550506064600b556103e8600c553480156200003a57600080fd5b506040518060400160405280600781526020017f4e465477656574000000000000000000000000000000000000000000000000008152506040518060400160405280600781526020017f4e465477656574000000000000000000000000000000000000000000000000008152508160009080519060200190620000bf929190620001cf565b508060019080519060200190620000d8929190620001cf565b505050620000fb620000ef6200010160201b60201c565b6200010960201b60201c565b620002e4565b600033905090565b6000600660009054906101000a900473ffffffffffffffffffffffffffffffffffffffff16905081600660006101000a81548173ffffffffffffffffffffffffffffffffffffffff021916908373ffffffffffffffffffffffffffffffffffffffff1602179055508173ffffffffffffffffffffffffffffffffffffffff168173ffffffffffffffffffffffffffffffffffffffff167f8be0079c531659141344cd1fd0a4f28419497f9722a3daafe3b4186f6b6457e060405160405180910390a35050565b828054620001dd906200027f565b90600052602060002090601f0160209004810192826200020157600085556200024d565b82601f106200021c57805160ff19168380011785556200024d565b828001600101855582156200024d579182015b828111156200024c5782518255916020019190600101906200022f565b5b5090506200025c919062000260565b5090565b5b808211156200027b57600081600090555060010162000261565b5090565b600060028204905060018216806200029857607f821691505b60208210811415620002af57620002ae620002b5565b5b50919050565b7f4e487b7100000000000000000000000000000000000000000000000000000000600052602260045260246000fd5b6156ae80620002f46000396000f3fe608060405234801561001057600080fd5b50600436106102745760003560e01c806383ced42b11610151578063d84f55ee116100c3578063e985e9c511610087578063e985e9c514610791578063ee442c2a146107c1578063f2fde38b146107f1578063f698638a1461080d578063fbc205db1461082b578063fdb5f0d21461085b57610274565b8063d84f55ee146106ef578063d85d3d271461071f578063dfbd66401461073b578063e4c3983a14610757578063e8a3d4851461077357610274565b8063a22cb46511610115578063a22cb4651461060b578063b88d4fde14610627578063bf20972e14610643578063c87b56dd1461065f578063cd6dc8611461068f578063d380c083146106bf57610274565b806383ced42b146105655780638da5cb5b1461059557806395d89b41146105b35780639c7990a3146105d1578063a095276b1461060157610274565b80633791df71116101ea5780636352211e116101ae5780636352211e146104a757806369e3303d146104d757806370a08231146104f3578063715018a61461052357806376f032ee1461052d5780637795284f1461054957610274565b80633791df71146104175780633af4301b1461043357806342842e0e1461045157806342966c681461046d578063545444421461048957610274565b80631762b2361161023c5780631762b236146103435780631cd896c1146103735780631f5bdf5d1461039157806323b872dd146103c15780632a027211146103dd5780632b5914fe146103fb57610274565b806301ffc9a71461027957806304874336146102a957806306fdde03146102d9578063081812fc146102f7578063095ea7b314610327575b600080fd5b610293600480360381019061028e9190613dac565b61088b565b6040516102a091906146d6565b60405180910390f35b6102c360048036038101906102be9190613ef4565b61096d565b6040516102d09190614735565b60405180910390f35b6102e1610df4565b6040516102ee9190614735565b60405180910390f35b610311600480360381019061030c9190613ef4565b610e86565b60405161031e91906145cb565b60405180910390f35b610341600480360381019061033c9190613d6c565b610f0b565b005b61035d60048036038101906103589190613ef4565b611023565b60405161036a9190614b6c565b60405180910390f35b61037b611043565b6040516103889190614b6c565b60405180910390f35b6103ab60048036038101906103a69190613be9565b611048565b6040516103b891906146d6565b60405180910390f35b6103db60048036038101906103d69190613c56565b61118f565b005b6103e56111ef565b6040516103f29190614b6c565b60405180910390f35b61041560048036038101906104109190613e06565b6111f4565b005b610431600480360381019061042c9190613be9565b611461565b005b61043b611556565b6040516104489190614b6c565b60405180910390f35b61046b60048036038101906104669190613c56565b61155c565b005b61048760048036038101906104829190613ef4565b61157c565b005b6104916116a4565b60405161049e9190614b6c565b60405180910390f35b6104c160048036038101906104bc9190613ef4565b6116aa565b6040516104ce91906145cb565b60405180910390f35b6104f160048036038101906104ec9190613ef4565b61175c565b005b61050d60048036038101906105089190613be9565b6117fe565b60405161051a9190614b6c565b60405180910390f35b61052b6118b6565b005b61054760048036038101906105429190613ef4565b61193e565b005b610563600480360381019061055e9190613be9565b6119fb565b005b61057f600480360381019061057a9190613be9565b611af0565b60405161058c9190614b6c565b60405180910390f35b61059d611b43565b6040516105aa91906145cb565b60405180910390f35b6105bb611b6d565b6040516105c89190614735565b60405180910390f35b6105eb60048036038101906105e69190613ef4565b611bff565b6040516105f89190614b6c565b60405180910390f35b610609611c6e565b005b61062560048036038101906106209190613d2c565b611eb3565b005b610641600480360381019061063c9190613ca9565b611ec9565b005b61065d60048036038101906106589190613ef4565b611f2b565b005b61067960048036038101906106749190613ef4565b611fcd565b6040516106869190614735565b60405180910390f35b6106a960048036038101906106a49190613be9565b6123cf565b6040516106b69190614b6c565b60405180910390f35b6106d960048036038101906106d49190613ef4565b612422565b6040516106e69190614b6c565b60405180910390f35b61070960048036038101906107049190613be9565b612491565b6040516107169190614735565b60405180910390f35b61073960048036038101906107349190613e06565b612607565b005b61075560048036038101906107509190613e98565b612615565b005b610771600480360381019061076c9190613ef4565b612876565b005b61077b612933565b6040516107889190614735565b60405180910390f35b6107ab60048036038101906107a69190613c16565b612958565b6040516107b891906146d6565b60405180910390f35b6107db60048036038101906107d69190613be9565b6129ec565b6040516107e891906146b4565b60405180910390f35b61080b60048036038101906108069190613be9565b612a86565b005b610815612b7e565b6040516108229190614b6c565b60405180910390f35b61084560048036038101906108409190613ef4565b612b9b565b6040516108529190614b6c565b60405180910390f35b61087560048036038101906108709190613ef4565b612c8b565b60405161088291906146d6565b60405180910390f35b60007f80ac58cd000000000000000000000000000000000000000000000000000000007bffffffffffffffffffffffffffffffffffffffffffffffffffffffff1916827bffffffffffffffffffffffffffffffffffffffffffffffffffffffff1916148061095657507f5b5e139f000000000000000000000000000000000000000000000000000000007bffffffffffffffffffffffffffffffffffffffffffffffffffffffff1916827bffffffffffffffffffffffffffffffffffffffffffffffffffffffff1916145b80610966575061096582612cad565b5b9050919050565b60608060606000610985610980866116aa565b612491565b9050600061099286612b9b565b9050600073__$1c41232b8c3f9382c4bdca1a05a1ab00e7$__63f76f950e886040518263ffffffff1660e01b81526004016109cd9190614b51565b60006040518083038186803b1580156109e557600080fd5b505af41580156109f9573d6000803e3d6000fd5b505050506040513d6000823e3d601f19601f82011682018060405250810190610a229190613e4f565b905060606000610a3189611023565b9050610a3c89612c8b565b15610b6d5773__$80db38dd8d3cbc4361eeaafad47c1a6c11$__6389b21466610a6c610a67846116aa565b612491565b73__$1c41232b8c3f9382c4bdca1a05a1ab00e7$__63f76f950e856040518263ffffffff1660e01b8152600401610aa39190614b51565b60006040518083038186803b158015610abb57600080fd5b505af4158015610acf573d6000803e3d6000fd5b505050506040513d6000823e3d601f19601f82011682018060405250810190610af89190613e4f565b6040518363ffffffff1660e01b8152600401610b15929190614757565b60006040518083038186803b158015610b2d57600080fd5b505af4158015610b41573d6000803e3d6000fd5b505050506040513d6000823e3d601f19601f82011682018060405250810190610b6a9190613e4f565b91505b6000841115610ca75773__$80db38dd8d3cbc4361eeaafad47c1a6c11$__634d925a46600860008c815260200190815260200160002060000173__$1c41232b8c3f9382c4bdca1a05a1ab00e7$__63f76f950e886040518263ffffffff1660e01b8152600401610bdd9190614b51565b60006040518083038186803b158015610bf557600080fd5b505af4158015610c09573d6000803e3d6000fd5b505050506040513d6000823e3d601f19601f82011682018060405250810190610c329190613e4f565b6040518363ffffffff1660e01b8152600401610c4f92919061487a565b60006040518083038186803b158015610c6757600080fd5b505af4158015610c7b573d6000803e3d6000fd5b505050506040513d6000823e3d601f19601f82011682018060405250810190610ca49190613e4f565b95505b73__$80db38dd8d3cbc4361eeaafad47c1a6c11$__631a7ceb58878786866040518563ffffffff1660e01b8152600401610ce4949392919061478e565b60006040518083038186803b158015610cfc57600080fd5b505af4158015610d10573d6000803e3d6000fd5b505050506040513d6000823e3d601f19601f82011682018060405250810190610d399190613e4f565b965073__$1c41232b8c3f9382c4bdca1a05a1ab00e7$__63daa68c21886040518263ffffffff1660e01b8152600401610d7291906146f1565b60006040518083038186803b158015610d8a57600080fd5b505af4158015610d9e573d6000803e3d6000fd5b505050506040513d6000823e3d601f19601f82011682018060405250810190610dc79190613e4f565b604051602001610dd7919061458e565b604051602081830303815290604052975050505050505050919050565b606060008054610e0390614ee6565b80601f0160208091040260200160405190810160405280929190818152602001828054610e2f90614ee6565b8015610e7c5780601f10610e5157610100808354040283529160200191610e7c565b820191906000526020600020905b815481529060010190602001808311610e5f57829003601f168201915b5050505050905090565b6000610e9182612d17565b610ed0576040517f08c379a0000000000000000000000000000000000000000000000000000000008152600401610ec790614a71565b60405180910390fd5b6004600083815260200190815260200160002060009054906101000a900473ffffffffffffffffffffffffffffffffffffffff169050919050565b6000610f16826116aa565b90508073ffffffffffffffffffffffffffffffffffffffff168373ffffffffffffffffffffffffffffffffffffffff161415610f87576040517f08c379a0000000000000000000000000000000000000000000000000000000008152600401610f7e90614af1565b60405180910390fd5b8073ffffffffffffffffffffffffffffffffffffffff16610fa6612d83565b73ffffffffffffffffffffffffffffffffffffffff161480610fd55750610fd481610fcf612d83565b612958565b5b611014576040517f08c379a000000000000000000000000000000000000000000000000000000000815260040161100b906149f1565b60405180910390fd5b61101e8383612d8b565b505050565b600060086000838152602001908152602001600020600201549050919050565b602081565b600080600960008473ffffffffffffffffffffffffffffffffffffffff1673ffffffffffffffffffffffffffffffffffffffff168152602001908152602001600020600001805461109890614ee6565b80601f01602080910402602001604051908101604052809291908181526020018280546110c490614ee6565b80156111115780601f106110e657610100808354040283529160200191611111565b820191906000526020600020905b8154815290600101906020018083116110f457829003601f168201915b50505050509050600073ffffffffffffffffffffffffffffffffffffffff16600a826040516111409190614541565b908152602001604051809103902060009054906101000a900473ffffffffffffffffffffffffffffffffffffffff1673ffffffffffffffffffffffffffffffffffffffff161415915050919050565b6111a061119a612d83565b82612e44565b6111df576040517f08c379a00000000000000000000000000000000000000000000000000000000081526004016111d690614b11565b60405180910390fd5b6111ea838383612f22565b505050565b605581565b600073ffffffffffffffffffffffffffffffffffffffff16600a8260405161121c9190614541565b908152602001604051809103902060009054906101000a900473ffffffffffffffffffffffffffffffffffffffff1673ffffffffffffffffffffffffffffffffffffffff16146112a1576040517f08c379a0000000000000000000000000000000000000000000000000000000008152600401611298906149b1565b60405180910390fd5b600073__$1c41232b8c3f9382c4bdca1a05a1ab00e7$__6311075499836040518263ffffffff1660e01b81526004016112da9190614713565b60206040518083038186803b1580156112f257600080fd5b505af4158015611306573d6000803e3d6000fd5b505050506040513d601f19601f8201168201806040525081019061132a9190613f21565b90506020811115611370576040517f08c379a0000000000000000000000000000000000000000000000000000000008152600401611367906149d1565b60405180910390fd5b81600960003373ffffffffffffffffffffffffffffffffffffffff1673ffffffffffffffffffffffffffffffffffffffff16815260200190815260200160002060000190805190602001906113c6929190613938565b5033600a836040516113d89190614541565b908152602001604051809103902060006101000a81548173ffffffffffffffffffffffffffffffffffffffff021916908373ffffffffffffffffffffffffffffffffffffffff1602179055507f55633e294f3ce7de0841784584a845596fec2f4a663a2e0415d1aaf6455a4787338360405161145592919061465b565b60405180910390a15050565b3373ffffffffffffffffffffffffffffffffffffffff168173ffffffffffffffffffffffffffffffffffffffff1614156114d0576040517f08c379a00000000000000000000000000000000000000000000000000000000081526004016114c790614b31565b60405180910390fd5b61151a600960008373ffffffffffffffffffffffffffffffffffffffff1673ffffffffffffffffffffffffffffffffffffffff16815260200190815260200160002060020161317e565b7ff07b382d2f86768abc22b5c039dee6457a58f9f1b8f169161de9e3bf20d20bef338260405161154b9291906145e6565b60405180910390a150565b600b5481565b61157783838360405180602001604052806000815250611ec9565b505050565b6115863382612e44565b6115c5576040517f08c379a00000000000000000000000000000000000000000000000000000000081526004016115bc90614a91565b60405180910390fd5b6115ce81612d17565b61160d576040517f08c379a000000000000000000000000000000000000000000000000000000000815260040161160490614931565b60405180910390fd5b600860008281526020019081526020016000206000808201600061163191906139be565b60018201600090556002820160009055600382016000808201600090555050600482016000808201600090555050505061166a81613194565b7fdd40449ded443c9de6a9438df5095d7977571dc866f29a0c89d3d3c31ae2b824816040516116999190614b6c565b60405180910390a150565b600c5481565b6000806002600084815260200190815260200160002060009054906101000a900473ffffffffffffffffffffffffffffffffffffffff169050600073ffffffffffffffffffffffffffffffffffffffff168173ffffffffffffffffffffffffffffffffffffffff161415611753576040517f08c379a000000000000000000000000000000000000000000000000000000000815260040161174a90614a31565b60405180910390fd5b80915050919050565b61176581612d17565b6117a4576040517f08c379a000000000000000000000000000000000000000000000000000000000815260040161179b90614931565b60405180910390fd5b6117c26008600083815260200190815260200160002060040161317e565b7fb70a0c4fedd186110c0530f3beac037475c92de145123c2102c24293962886a533826040516117f392919061468b565b60405180910390a150565b60008073ffffffffffffffffffffffffffffffffffffffff168273ffffffffffffffffffffffffffffffffffffffff16141561186f576040517f08c379a000000000000000000000000000000000000000000000000000000000815260040161186690614a11565b60405180910390fd5b600360008373ffffffffffffffffffffffffffffffffffffffff1673ffffffffffffffffffffffffffffffffffffffff168152602001908152602001600020549050919050565b6118be612d83565b73ffffffffffffffffffffffffffffffffffffffff166118dc611b43565b73ffffffffffffffffffffffffffffffffffffffff1614611932576040517f08c379a000000000000000000000000000000000000000000000000000000000815260040161192990614ab1565b60405180910390fd5b61193c60006132a5565b565b611946612d83565b73ffffffffffffffffffffffffffffffffffffffff16611964611b43565b73ffffffffffffffffffffffffffffffffffffffff16146119ba576040517f08c379a00000000000000000000000000000000000000000000000000000000081526004016119b190614ab1565b60405180910390fd5b80600b819055507f2752151e0a98c9df78d20e991139bccd52ba1733a6fca63c8f7d7d3f07faf9a6816040516119f09190614b6c565b60405180910390a150565b3373ffffffffffffffffffffffffffffffffffffffff168173ffffffffffffffffffffffffffffffffffffffff161415611a6a576040517f08c379a0000000000000000000000000000000000000000000000000000000008152600401611a6190614b31565b60405180910390fd5b611ab4600960008373ffffffffffffffffffffffffffffffffffffffff1673ffffffffffffffffffffffffffffffffffffffff16815260200190815260200160002060030161317e565b7f6b58b2cd308ecc386a2db157ee3a2bf71f1510684c8fce0890495ebce409b6563382604051611ae59291906145e6565b60405180910390a150565b6000611b3c600960008473ffffffffffffffffffffffffffffffffffffffff1673ffffffffffffffffffffffffffffffffffffffff16815260200190815260200160002060020161336b565b9050919050565b6000600660009054906101000a900473ffffffffffffffffffffffffffffffffffffffff16905090565b606060018054611b7c90614ee6565b80601f0160208091040260200160405190810160405280929190818152602001828054611ba890614ee6565b8015611bf55780601f10611bca57610100808354040283529160200191611bf5565b820191906000526020600020905b815481529060010190602001808311611bd857829003601f168201915b5050505050905090565b6000611c0a82612d17565b611c49576040517f08c379a0000000000000000000000000000000000000000000000000000000008152600401611c4090614931565b60405180910390fd5b611c676008600084815260200190815260200160002060030161336b565b9050919050565b6000600960003373ffffffffffffffffffffffffffffffffffffffff1673ffffffffffffffffffffffffffffffffffffffff1681526020019081526020016000206000018054611cbd90614ee6565b80601f0160208091040260200160405190810160405280929190818152602001828054611ce990614ee6565b8015611d365780601f10611d0b57610100808354040283529160200191611d36565b820191906000526020600020905b815481529060010190602001808311611d1957829003601f168201915b505050505090503373ffffffffffffffffffffffffffffffffffffffff16600a82604051611d649190614541565b908152602001604051809103902060009054906101000a900473ffffffffffffffffffffffffffffffffffffffff1673ffffffffffffffffffffffffffffffffffffffff1614611db357600080fd5b6000600a82604051611dc59190614541565b908152602001604051809103902060006101000a81548173ffffffffffffffffffffffffffffffffffffffff021916908373ffffffffffffffffffffffffffffffffffffffff16021790555060405180602001604052806000815250600960003373ffffffffffffffffffffffffffffffffffffffff1673ffffffffffffffffffffffffffffffffffffffff1681526020019081526020016000206000019080519060200190611e76929190613938565b507fcfbd49886f5a98db3e11badac87a38f6a5414c0849fad386851deeea9af953d93382604051611ea892919061465b565b60405180910390a150565b611ec5611ebe612d83565b8383613379565b5050565b611eda611ed4612d83565b83612e44565b611f19576040517f08c379a0000000000000000000000000000000000000000000000000000000008152600401611f1090614b11565b60405180910390fd5b611f25848484846134e6565b50505050565b611f3481612d17565b611f73576040517f08c379a0000000000000000000000000000000000000000000000000000000008152600401611f6a90614931565b60405180910390fd5b611f916008600083815260200190815260200160002060030161317e565b7ffb54418a075541bd20e5e4e44bdbc01cea54f51e35d98a222395c2f0bce2e9f03382604051611fc292919061468b565b60405180910390a150565b6060611fd882612d17565b612017576040517f08c379a000000000000000000000000000000000000000000000000000000000815260040161200e90614931565b60405180910390fd5b606061202a612025846116aa565b611048565b1561206c576040518060400160405280600a81526020017f526567697374657265640000000000000000000000000000000000000000000081525090506120a5565b6040518060400160405280600c81526020017f556e72656769737465726564000000000000000000000000000000000000000081525090505b73__$80db38dd8d3cbc4361eeaafad47c1a6c11$__63bae412196120c88561096d565b8373__$1c41232b8c3f9382c4bdca1a05a1ab00e7$__63f76f950e6120ec89612b9b565b6040518263ffffffff1660e01b81526004016121089190614b51565b60006040518083038186803b15801561212057600080fd5b505af4158015612134573d6000803e3d6000fd5b505050506040513d6000823e3d601f19601f8201168201806040525081019061215d9190613e4f565b73__$1c41232b8c3f9382c4bdca1a05a1ab00e7$__63f76f950e600860008b8152602001908152602001600020600101546040518263ffffffff1660e01b81526004016121aa9190614b51565b60006040518083038186803b1580156121c257600080fd5b505af41580156121d6573d6000803e3d6000fd5b505050506040513d6000823e3d601f19601f820116820180604052508101906121ff9190613e4f565b73__$1c41232b8c3f9382c4bdca1a05a1ab00e7$__63f76f950e612237600860008d815260200190815260200160002060030161336b565b6040518263ffffffff1660e01b81526004016122539190614b51565b60006040518083038186803b15801561226b57600080fd5b505af415801561227f573d6000803e3d6000fd5b505050506040513d6000823e3d601f19601f820116820180604052508101906122a89190613e4f565b73__$1c41232b8c3f9382c4bdca1a05a1ab00e7$__63f76f950e6122e0600860008e815260200190815260200160002060040161336b565b6040518263ffffffff1660e01b81526004016122fc9190614b51565b60006040518083038186803b15801561231457600080fd5b505af4158015612328573d6000803e3d6000fd5b505050506040513d6000823e3d601f19601f820116820180604052508101906123519190613e4f565b6040518763ffffffff1660e01b8152600401612372969594939291906147ef565b60006040518083038186803b15801561238a57600080fd5b505af415801561239e573d6000803e3d6000fd5b505050506040513d6000823e3d601f19601f820116820180604052508101906123c79190613e4f565b915050919050565b600061241b600960008473ffffffffffffffffffffffffffffffffffffffff1673ffffffffffffffffffffffffffffffffffffffff16815260200190815260200160002060030161336b565b9050919050565b600061242d82612d17565b61246c576040517f08c379a000000000000000000000000000000000000000000000000000000000815260040161246390614931565b60405180910390fd5b61248a6008600084815260200190815260200160002060040161336b565b9050919050565b606061249c82611048565b1561257357600960008373ffffffffffffffffffffffffffffffffffffffff1673ffffffffffffffffffffffffffffffffffffffff16815260200190815260200160002060000180546124ee90614ee6565b80601f016020809104026020016040519081016040528092919081815260200182805461251a90614ee6565b80156125675780601f1061253c57610100808354040283529160200191612567565b820191906000526020600020905b81548152906001019060200180831161254a57829003601f168201915b50505050509050612602565b73__$1c41232b8c3f9382c4bdca1a05a1ab00e7$__636c76bd4a836040518263ffffffff1660e01b81526004016125aa91906145b0565b60006040518083038186803b1580156125c257600080fd5b505af41580156125d6573d6000803e3d6000fd5b505050506040513d6000823e3d601f19601f820116820180604052508101906125ff9190613e4f565b90505b919050565b612612816000612615565b50565b60004290506000612626600761336b565b9050600073__$1c41232b8c3f9382c4bdca1a05a1ab00e7$__6311075499866040518263ffffffff1660e01b81526004016126619190614713565b60206040518083038186803b15801561267957600080fd5b505af415801561268d573d6000803e3d6000fd5b505050506040513d601f19601f820116820180604052508101906126b19190613f21565b905060558111156126f7576040517f08c379a00000000000000000000000000000000000000000000000000000000081526004016126ee90614911565b60405180910390fd5b60006040518060a0016040528087815260200185815260200186815260200160405180602001604052806000815250815260200160405180602001604052806000815250815250905080600860008581526020019081526020016000206000820151816000019080519060200190612770929190613938565b506020820151816001015560408201518160020155606082015181600301600082015181600001555050608082015181600401600082015181600001555050905050600960003373ffffffffffffffffffffffffffffffffffffffff1673ffffffffffffffffffffffffffffffffffffffff1681526020019081526020016000206001018390806001815401808255809150506001900390600052602060002001600090919091909150556128253384613542565b61282f600761317e565b7f8d9871f9023b1b594fe9ab753d9a7c94ee4896bb9af6d4869ad031f84782e4238333888789604051612866959493929190614b87565b60405180910390a1505050505050565b61287e612d83565b73ffffffffffffffffffffffffffffffffffffffff1661289c611b43565b73ffffffffffffffffffffffffffffffffffffffff16146128f2576040517f08c379a00000000000000000000000000000000000000000000000000000000081526004016128e990614ab1565b60405180910390fd5b80600c819055507fa5fd489f5885d528822f259de8cd3bf2b8a10a575bc3cbc7cd4fd4ec9a3a1414816040516129289190614b6c565b60405180910390a150565b606060405160200161294490614558565b604051602081830303815290604052905090565b6000600560008473ffffffffffffffffffffffffffffffffffffffff1673ffffffffffffffffffffffffffffffffffffffff16815260200190815260200160002060008373ffffffffffffffffffffffffffffffffffffffff1673ffffffffffffffffffffffffffffffffffffffff16815260200190815260200160002060009054906101000a900460ff16905092915050565b6060600960008373ffffffffffffffffffffffffffffffffffffffff1673ffffffffffffffffffffffffffffffffffffffff168152602001908152602001600020600101805480602002602001604051908101604052809291908181526020018280548015612a7a57602002820191906000526020600020905b815481526020019060010190808311612a66575b50505050509050919050565b612a8e612d83565b73ffffffffffffffffffffffffffffffffffffffff16612aac611b43565b73ffffffffffffffffffffffffffffffffffffffff1614612b02576040517f08c379a0000000000000000000000000000000000000000000000000000000008152600401612af990614ab1565b60405180910390fd5b600073ffffffffffffffffffffffffffffffffffffffff168173ffffffffffffffffffffffffffffffffffffffff161415612b72576040517f08c379a0000000000000000000000000000000000000000000000000000000008152600401612b69906148d1565b60405180910390fd5b612b7b816132a5565b50565b60006001612b8c600761336b565b612b969190614dfc565b905090565b600080612ba783611bff565b90506000612bb484612422565b90506000612bc1856116aa565b90506000612bce82611af0565b90506000612bdb836123cf565b90506000806064905085871015612c1457600b5460648888612bfd9190614dfc565b612c079190614da2565b612c119190614d71565b91505b606482108015612c2357508284105b15612c5b57600c5460648585612c399190614dfc565b612c439190614da2565b612c4d9190614d71565b82612c589190614d1b565b91505b60648210612c6c5760009050612c7c565b816064612c799190614dfc565b90505b80975050505050505050919050565b6000806008600084815260200190815260200160002060020154119050919050565b60007f01ffc9a7000000000000000000000000000000000000000000000000000000007bffffffffffffffffffffffffffffffffffffffffffffffffffffffff1916827bffffffffffffffffffffffffffffffffffffffffffffffffffffffff1916149050919050565b60008073ffffffffffffffffffffffffffffffffffffffff166002600084815260200190815260200160002060009054906101000a900473ffffffffffffffffffffffffffffffffffffffff1673ffffffffffffffffffffffffffffffffffffffff1614159050919050565b600033905090565b816004600083815260200190815260200160002060006101000a81548173ffffffffffffffffffffffffffffffffffffffff021916908373ffffffffffffffffffffffffffffffffffffffff160217905550808273ffffffffffffffffffffffffffffffffffffffff16612dfe836116aa565b73ffffffffffffffffffffffffffffffffffffffff167f8c5be1e5ebec7d5bd14f71427d1e84f3dd0314c0f7b2291e5b200ac8c7c3b92560405160405180910390a45050565b6000612e4f82612d17565b612e8e576040517f08c379a0000000000000000000000000000000000000000000000000000000008152600401612e8590614991565b60405180910390fd5b6000612e99836116aa565b90508073ffffffffffffffffffffffffffffffffffffffff168473ffffffffffffffffffffffffffffffffffffffff161480612f0857508373ffffffffffffffffffffffffffffffffffffffff16612ef084610e86565b73ffffffffffffffffffffffffffffffffffffffff16145b80612f195750612f188185612958565b5b91505092915050565b8273ffffffffffffffffffffffffffffffffffffffff16612f42826116aa565b73ffffffffffffffffffffffffffffffffffffffff1614612f98576040517f08c379a0000000000000000000000000000000000000000000000000000000008152600401612f8f90614ad1565b60405180910390fd5b600073ffffffffffffffffffffffffffffffffffffffff168273ffffffffffffffffffffffffffffffffffffffff161415613008576040517f08c379a0000000000000000000000000000000000000000000000000000000008152600401612fff90614951565b60405180910390fd5b613013838383613560565b61301e600082612d8b565b6001600360008573ffffffffffffffffffffffffffffffffffffffff1673ffffffffffffffffffffffffffffffffffffffff168152602001908152602001600020600082825461306e9190614dfc565b925050819055506001600360008473ffffffffffffffffffffffffffffffffffffffff1673ffffffffffffffffffffffffffffffffffffffff16815260200190815260200160002060008282546130c59190614d1b565b92505081905550816002600083815260200190815260200160002060006101000a81548173ffffffffffffffffffffffffffffffffffffffff021916908373ffffffffffffffffffffffffffffffffffffffff160217905550808273ffffffffffffffffffffffffffffffffffffffff168473ffffffffffffffffffffffffffffffffffffffff167fddf252ad1be2c89b69c2b068fc378daa952ba7f163c4a11628f55a4df523b3ef60405160405180910390a4505050565b6001816000016000828254019250508190555050565b600061319f826116aa565b90506131ad81600084613560565b6131b8600083612d8b565b6001600360008373ffffffffffffffffffffffffffffffffffffffff1673ffffffffffffffffffffffffffffffffffffffff16815260200190815260200160002060008282546132089190614dfc565b925050819055506002600083815260200190815260200160002060006101000a81549073ffffffffffffffffffffffffffffffffffffffff021916905581600073ffffffffffffffffffffffffffffffffffffffff168273ffffffffffffffffffffffffffffffffffffffff167fddf252ad1be2c89b69c2b068fc378daa952ba7f163c4a11628f55a4df523b3ef60405160405180910390a45050565b6000600660009054906101000a900473ffffffffffffffffffffffffffffffffffffffff16905081600660006101000a81548173ffffffffffffffffffffffffffffffffffffffff021916908373ffffffffffffffffffffffffffffffffffffffff1602179055508173ffffffffffffffffffffffffffffffffffffffff168173ffffffffffffffffffffffffffffffffffffffff167f8be0079c531659141344cd1fd0a4f28419497f9722a3daafe3b4186f6b6457e060405160405180910390a35050565b600081600001549050919050565b8173ffffffffffffffffffffffffffffffffffffffff168373ffffffffffffffffffffffffffffffffffffffff1614156133e8576040517f08c379a00000000000000000000000000000000000000000000000000000000081526004016133df90614971565b60405180910390fd5b80600560008573ffffffffffffffffffffffffffffffffffffffff1673ffffffffffffffffffffffffffffffffffffffff16815260200190815260200160002060008473ffffffffffffffffffffffffffffffffffffffff1673ffffffffffffffffffffffffffffffffffffffff16815260200190815260200160002060006101000a81548160ff0219169083151502179055508173ffffffffffffffffffffffffffffffffffffffff168373ffffffffffffffffffffffffffffffffffffffff167f17307eab39ab6107e8899845ad3d59bd9653f200f220920489ca2b5937696c31836040516134d991906146d6565b60405180910390a3505050565b6134f1848484612f22565b6134fd84848484613565565b61353c576040517f08c379a0000000000000000000000000000000000000000000000000000000008152600401613533906148b1565b60405180910390fd5b50505050565b61355c8282604051806020016040528060008152506136fc565b5050565b505050565b60006135868473ffffffffffffffffffffffffffffffffffffffff16613757565b156136ef578373ffffffffffffffffffffffffffffffffffffffff1663150b7a026135af612d83565b8786866040518563ffffffff1660e01b81526004016135d1949392919061460f565b602060405180830381600087803b1580156135eb57600080fd5b505af192505050801561361c57506040513d601f19601f820116820180604052508101906136199190613dd9565b60015b61369f573d806000811461364c576040519150601f19603f3d011682016040523d82523d6000602084013e613651565b606091505b50600081511415613697576040517f08c379a000000000000000000000000000000000000000000000000000000000815260040161368e906148b1565b60405180910390fd5b805181602001fd5b63150b7a0260e01b7bffffffffffffffffffffffffffffffffffffffffffffffffffffffff1916817bffffffffffffffffffffffffffffffffffffffffffffffffffffffff1916149150506136f4565b600190505b949350505050565b613706838361376a565b6137136000848484613565565b613752576040517f08c379a0000000000000000000000000000000000000000000000000000000008152600401613749906148b1565b60405180910390fd5b505050565b600080823b905060008111915050919050565b600073ffffffffffffffffffffffffffffffffffffffff168273ffffffffffffffffffffffffffffffffffffffff1614156137da576040517f08c379a00000000000000000000000000000000000000000000000000000000081526004016137d190614a51565b60405180910390fd5b6137e381612d17565b15613823576040517f08c379a000000000000000000000000000000000000000000000000000000000815260040161381a906148f1565b60405180910390fd5b61382f60008383613560565b6001600360008473ffffffffffffffffffffffffffffffffffffffff1673ffffffffffffffffffffffffffffffffffffffff168152602001908152602001600020600082825461387f9190614d1b565b92505081905550816002600083815260200190815260200160002060006101000a81548173ffffffffffffffffffffffffffffffffffffffff021916908373ffffffffffffffffffffffffffffffffffffffff160217905550808273ffffffffffffffffffffffffffffffffffffffff16600073ffffffffffffffffffffffffffffffffffffffff167fddf252ad1be2c89b69c2b068fc378daa952ba7f163c4a11628f55a4df523b3ef60405160405180910390a45050565b82805461394490614ee6565b90600052602060002090601f01602090048101928261396657600085556139ad565b82601f1061397f57805160ff19168380011785556139ad565b828001600101855582156139ad579182015b828111156139ac578251825591602001919060010190613991565b5b5090506139ba91906139fe565b5090565b5080546139ca90614ee6565b6000825580601f106139dc57506139fb565b601f0160209004906000526020600020908101906139fa91906139fe565b5b50565b5b80821115613a175760008160009055506001016139ff565b5090565b6000613a2e613a2984614c06565b614be1565b905082815260208101848484011115613a4a57613a4961500a565b5b613a55848285614ea4565b509392505050565b6000613a70613a6b84614c37565b614be1565b905082815260208101848484011115613a8c57613a8b61500a565b5b613a97848285614ea4565b509392505050565b6000613ab2613aad84614c37565b614be1565b905082815260208101848484011115613ace57613acd61500a565b5b613ad9848285614eb3565b509392505050565b600081359050613af08161561c565b92915050565b600081359050613b0581615633565b92915050565b600081359050613b1a8161564a565b92915050565b600081519050613b2f8161564a565b92915050565b600082601f830112613b4a57613b49615005565b5b8135613b5a848260208601613a1b565b91505092915050565b600082601f830112613b7857613b77615005565b5b8135613b88848260208601613a5d565b91505092915050565b600082601f830112613ba657613ba5615005565b5b8151613bb6848260208601613a9f565b91505092915050565b600081359050613bce81615661565b92915050565b600081519050613be381615661565b92915050565b600060208284031215613bff57613bfe615014565b5b6000613c0d84828501613ae1565b91505092915050565b60008060408385031215613c2d57613c2c615014565b5b6000613c3b85828601613ae1565b9250506020613c4c85828601613ae1565b9150509250929050565b600080600060608486031215613c6f57613c6e615014565b5b6000613c7d86828701613ae1565b9350506020613c8e86828701613ae1565b9250506040613c9f86828701613bbf565b9150509250925092565b60008060008060808587031215613cc357613cc2615014565b5b6000613cd187828801613ae1565b9450506020613ce287828801613ae1565b9350506040613cf387828801613bbf565b925050606085013567ffffffffffffffff811115613d1457613d1361500f565b5b613d2087828801613b35565b91505092959194509250565b60008060408385031215613d4357613d42615014565b5b6000613d5185828601613ae1565b9250506020613d6285828601613af6565b9150509250929050565b60008060408385031215613d8357613d82615014565b5b6000613d9185828601613ae1565b9250506020613da285828601613bbf565b9150509250929050565b600060208284031215613dc257613dc1615014565b5b6000613dd084828501613b0b565b91505092915050565b600060208284031215613def57613dee615014565b5b6000613dfd84828501613b20565b91505092915050565b600060208284031215613e1c57613e1b615014565b5b600082013567ffffffffffffffff811115613e3a57613e3961500f565b5b613e4684828501613b63565b91505092915050565b600060208284031215613e6557613e64615014565b5b600082015167ffffffffffffffff811115613e8357613e8261500f565b5b613e8f84828501613b91565b91505092915050565b60008060408385031215613eaf57613eae615014565b5b600083013567ffffffffffffffff811115613ecd57613ecc61500f565b5b613ed985828601613b63565b9250506020613eea85828601613bbf565b9150509250929050565b600060208284031215613f0a57613f09615014565b5b6000613f1884828501613bbf565b91505092915050565b600060208284031215613f3757613f36615014565b5b6000613f4584828501613bd4565b91505092915050565b6000613f5a8383614514565b60208301905092915050565b613f6f81614e30565b82525050565b613f7e81614e30565b82525050565b6000613f8f82614c8d565b613f998185614cbb565b9350613fa483614c68565b8060005b83811015613fd5578151613fbc8882613f4e565b9750613fc783614cae565b925050600181019050613fa8565b5085935050505092915050565b613feb81614e42565b82525050565b6000613ffc82614c98565b6140068185614ccc565b9350614016818560208601614eb3565b61401f81615019565b840191505092915050565b600061403582614c98565b61403f8185614cdd565b935061404f818560208601614eb3565b61405881615019565b840191505092915050565b600061406e82614ca3565b6140788185614cee565b9350614088818560208601614eb3565b61409181615019565b840191505092915050565b60006140a782614ca3565b6140b18185614cff565b93506140c1818560208601614eb3565b6140ca81615019565b840191505092915050565b60006140e082614ca3565b6140ea8185614d10565b93506140fa818560208601614eb3565b80840191505092915050565b6000815461411381614ee6565b61411d8186614cff565b94506001821660008114614138576001811461414a5761417d565b60ff198316865260208601935061417d565b61415385614c78565b60005b8381101561417557815481890152600182019150602081019050614156565b808801955050505b50505092915050565b6000614193603283614cee565b915061419e8261502a565b604082019050919050565b60006141b6602683614cee565b91506141c182615079565b604082019050919050565b60006141d9601c83614cee565b91506141e4826150c8565b602082019050919050565b60006141fc601083614cee565b9150614207826150f1565b602082019050919050565b600061421f600b83614cee565b915061422a8261511a565b602082019050919050565b6000614242602d83614d10565b915061424d82615143565b602d82019050919050565b6000614265602483614cee565b915061427082615192565b604082019050919050565b6000614288601983614cee565b9150614293826151e1565b602082019050919050565b60006142ab601883614d10565b91506142b68261520a565b601882019050919050565b60006142ce602c83614cee565b91506142d982615233565b604082019050919050565b60006142f1600a83614cee565b91506142fc82615282565b602082019050919050565b6000614314600883614cee565b915061431f826152ab565b602082019050919050565b6000614337603883614cee565b9150614342826152d4565b604082019050919050565b600061435a602a83614cee565b915061436582615323565b604082019050919050565b600061437d602983614cee565b915061438882615372565b604082019050919050565b60006143a0600283614d10565b91506143ab826153c1565b600282019050919050565b60006143c3602083614cee565b91506143ce826153ea565b602082019050919050565b60006143e6600183614d10565b91506143f182615413565b600182019050919050565b6000614409602c83614cee565b91506144148261543c565b604082019050919050565b600061442c600d83614cee565b91506144378261548b565b602082019050919050565b600061444f602083614cee565b915061445a826154b4565b602082019050919050565b6000614472602983614cee565b915061447d826154dd565b604082019050919050565b6000614495602183614cee565b91506144a08261552c565b604082019050919050565b60006144b8603183614cee565b91506144c38261557b565b604082019050919050565b60006144db601883614cee565b91506144e6826155ca565b602082019050919050565b60006144fe601a83614d10565b9150614509826155f3565b601a82019050919050565b61451d81614e9a565b82525050565b61452c81614e9a565b82525050565b61453b81614e9a565b82525050565b600061454d82846140d5565b915081905092915050565b600061456382614393565b915061456e8261429e565b915061457982614235565b9150614584826143d9565b9150819050919050565b6000614599826144f1565b91506145a582846140d5565b915081905092915050565b60006020820190506145c56000830184613f75565b92915050565b60006020820190506145e06000830184613f66565b92915050565b60006040820190506145fb6000830185613f66565b6146086020830184613f66565b9392505050565b60006080820190506146246000830187613f66565b6146316020830186613f66565b61463e6040830185614523565b81810360608301526146508184613ff1565b905095945050505050565b60006040820190506146706000830185613f66565b81810360208301526146828184614063565b90509392505050565b60006040820190506146a06000830185613f66565b6146ad6020830184614523565b9392505050565b600060208201905081810360008301526146ce8184613f84565b905092915050565b60006020820190506146eb6000830184613fe2565b92915050565b6000602082019050818103600083015261470b818461402a565b905092915050565b6000602082019050818103600083015261472d818461409c565b905092915050565b6000602082019050818103600083015261474f8184614063565b905092915050565b60006040820190508181036000830152614771818561409c565b90508181036020830152614785818461409c565b90509392505050565b600060808201905081810360008301526147a8818761409c565b905081810360208301526147bc818661409c565b905081810360408301526147d0818561409c565b905081810360608301526147e4818461409c565b905095945050505050565b600060c0820190508181036000830152614809818961409c565b9050818103602083015261481d818861409c565b90508181036040830152614831818761409c565b90508181036060830152614845818661409c565b90508181036080830152614859818561409c565b905081810360a083015261486d818461409c565b9050979650505050505050565b600060408201905081810360008301526148948185614106565b905081810360208301526148a8818461409c565b90509392505050565b600060208201905081810360008301526148ca81614186565b9050919050565b600060208201905081810360008301526148ea816141a9565b9050919050565b6000602082019050818103600083015261490a816141cc565b9050919050565b6000602082019050818103600083015261492a816141ef565b9050919050565b6000602082019050818103600083015261494a81614212565b9050919050565b6000602082019050818103600083015261496a81614258565b9050919050565b6000602082019050818103600083015261498a8161427b565b9050919050565b600060208201905081810360008301526149aa816142c1565b9050919050565b600060208201905081810360008301526149ca816142e4565b9050919050565b600060208201905081810360008301526149ea81614307565b9050919050565b60006020820190508181036000830152614a0a8161432a565b9050919050565b60006020820190508181036000830152614a2a8161434d565b9050919050565b60006020820190508181036000830152614a4a81614370565b9050919050565b60006020820190508181036000830152614a6a816143b6565b9050919050565b60006020820190508181036000830152614a8a816143fc565b9050919050565b60006020820190508181036000830152614aaa8161441f565b9050919050565b60006020820190508181036000830152614aca81614442565b9050919050565b60006020820190508181036000830152614aea81614465565b9050919050565b60006020820190508181036000830152614b0a81614488565b9050919050565b60006020820190508181036000830152614b2a816144ab565b9050919050565b60006020820190508181036000830152614b4a816144ce565b9050919050565b6000602082019050614b666000830184614532565b92915050565b6000602082019050614b816000830184614523565b92915050565b600060a082019050614b9c6000830188614523565b614ba96020830187613f66565b8181036040830152614bbb8186614063565b9050614bca6060830185614523565b614bd76080830184614523565b9695505050505050565b6000614beb614bfc565b9050614bf78282614f18565b919050565b6000604051905090565b600067ffffffffffffffff821115614c2157614c20614fd6565b5b614c2a82615019565b9050602081019050919050565b600067ffffffffffffffff821115614c5257614c51614fd6565b5b614c5b82615019565b9050602081019050919050565b6000819050602082019050919050565b60008190508160005260206000209050919050565b600081519050919050565b600081519050919050565b600081519050919050565b6000602082019050919050565b600082825260208201905092915050565b600082825260208201905092915050565b600082825260208201905092915050565b600082825260208201905092915050565b600082825260208201905092915050565b600081905092915050565b6000614d2682614e9a565b9150614d3183614e9a565b9250827fffffffffffffffffffffffffffffffffffffffffffffffffffffffffffffffff03821115614d6657614d65614f49565b5b828201905092915050565b6000614d7c82614e9a565b9150614d8783614e9a565b925082614d9757614d96614f78565b5b828204905092915050565b6000614dad82614e9a565b9150614db883614e9a565b9250817fffffffffffffffffffffffffffffffffffffffffffffffffffffffffffffffff0483118215151615614df157614df0614f49565b5b828202905092915050565b6000614e0782614e9a565b9150614e1283614e9a565b925082821015614e2557614e24614f49565b5b828203905092915050565b6000614e3b82614e7a565b9050919050565b60008115159050919050565b60007fffffffff0000000000000000000000000000000000000000000000000000000082169050919050565b600073ffffffffffffffffffffffffffffffffffffffff82169050919050565b6000819050919050565b82818337600083830152505050565b60005b83811015614ed1578082015181840152602081019050614eb6565b83811115614ee0576000848401525b50505050565b60006002820490506001821680614efe57607f821691505b60208210811415614f1257614f11614fa7565b5b50919050565b614f2182615019565b810181811067ffffffffffffffff82111715614f4057614f3f614fd6565b5b80604052505050565b7f4e487b7100000000000000000000000000000000000000000000000000000000600052601160045260246000fd5b7f4e487b7100000000000000000000000000000000000000000000000000000000600052601260045260246000fd5b7f4e487b7100000000000000000000000000000000000000000000000000000000600052602260045260246000fd5b7f4e487b7100000000000000000000000000000000000000000000000000000000600052604160045260246000fd5b600080fd5b600080fd5b600080fd5b600080fd5b6000601f19601f8301169050919050565b7f4552433732313a207472616e7366657220746f206e6f6e20455243373231526560008201527f63656976657220696d706c656d656e7465720000000000000000000000000000602082015250565b7f4f776e61626c653a206e6577206f776e657220697320746865207a65726f206160008201527f6464726573730000000000000000000000000000000000000000000000000000602082015250565b7f4552433732313a20746f6b656e20616c7265616479206d696e74656400000000600082015250565b7f4d65737361676520746f6f206c6f6e6700000000000000000000000000000000600082015250565b7f496e76616c696420494421000000000000000000000000000000000000000000600082015250565b7f226465736372697074696f6e223a20224e46542d6261736564206d657373616760008201527f696e672073797374656d2e220a00000000000000000000000000000000000000602082015250565b7f4552433732313a207472616e7366657220746f20746865207a65726f2061646460008201527f7265737300000000000000000000000000000000000000000000000000000000602082015250565b7f4552433732313a20617070726f766520746f2063616c6c657200000000000000600082015250565b7f226e616d65223a20224e4654206d65737361676573222c0a0000000000000000600082015250565b7f4552433732313a206f70657261746f7220717565727920666f72206e6f6e657860008201527f697374656e7420746f6b656e0000000000000000000000000000000000000000602082015250565b7f4e616d652074616b656e00000000000000000000000000000000000000000000600082015250565b7f546f6f206c6f6e67000000000000000000000000000000000000000000000000600082015250565b7f4552433732313a20617070726f76652063616c6c6572206973206e6f74206f7760008201527f6e6572206e6f7220617070726f76656420666f7220616c6c0000000000000000602082015250565b7f4552433732313a2062616c616e636520717565727920666f7220746865207a6560008201527f726f206164647265737300000000000000000000000000000000000000000000602082015250565b7f4552433732313a206f776e657220717565727920666f72206e6f6e657869737460008201527f656e7420746f6b656e0000000000000000000000000000000000000000000000602082015250565b7f7b0a000000000000000000000000000000000000000000000000000000000000600082015250565b7f4552433732313a206d696e7420746f20746865207a65726f2061646472657373600082015250565b7f7d00000000000000000000000000000000000000000000000000000000000000600082015250565b7f4552433732313a20617070726f76656420717565727920666f72206e6f6e657860008201527f697374656e7420746f6b656e0000000000000000000000000000000000000000602082015250565b7f4e6f207065726d697373696f6e00000000000000000000000000000000000000600082015250565b7f4f776e61626c653a2063616c6c6572206973206e6f7420746865206f776e6572600082015250565b7f4552433732313a207472616e73666572206f6620746f6b656e2074686174206960008201527f73206e6f74206f776e0000000000000000000000000000000000000000000000602082015250565b7f4552433732313a20617070726f76616c20746f2063757272656e74206f776e6560008201527f7200000000000000000000000000000000000000000000000000000000000000602082015250565b7f4552433732313a207472616e736665722063616c6c6572206973206e6f74206f60008201527f776e6572206e6f7220617070726f766564000000000000000000000000000000602082015250565b7f43616e6e6f7420766f746520666f7220796f757273656c660000000000000000600082015250565b7f646174613a696d6167652f7376672b786d6c3b6261736536342c000000000000600082015250565b61562581614e30565b811461563057600080fd5b50565b61563c81614e42565b811461564757600080fd5b50565b61565381614e4e565b811461565e57600080fd5b50565b61566a81614e9a565b811461567557600080fd5b5056fea2646970667358221220a8b1c73b073802d2fa9b8de30b4274c59b22fdcc19706f8810e44b688de24a8d64736f6c63430008060033",
  "linkReferences": {
    "contracts/TokenData.sol": {
      "TokenData": [
        {
          "length": 20,
          "start": 3383
        },
        {
          "length": 20,
          "start": 3692
        },
        {
          "length": 20,
          "start": 3997
        },
        {
          "length": 20,
          "start": 9115
        }
      ]
    },
    "contracts/Utils.sol": {
      "Utils": [
        {
          "length": 20,
          "start": 3212
        },
        {
          "length": 20,
          "start": 3426
        },
        {
          "length": 20,
          "start": 3740
        },
        {
          "length": 20,
          "start": 4145
        },
        {
          "length": 20,
          "start": 5529
        },
        {
          "length": 20,
          "start": 9151
        },
        {
          "length": 20,
          "start": 9299
        },
        {
          "length": 20,
          "start": 9461
        },
        {
          "length": 20,
          "start": 9630
        },
        {
          "length": 20,
          "start": 10345
        },
        {
          "length": 20,
          "start": 10528
        }
      ]
    }
  },
  "deployedLinkReferences": {
    "contracts/TokenData.sol": {
      "TokenData": [
        {
          "length": 20,
          "start": 2627
        },
        {
          "length": 20,
          "start": 2936
        },
        {
          "length": 20,
          "start": 3241
        },
        {
          "length": 20,
          "start": 8359
        }
      ]
    },
    "contracts/Utils.sol": {
      "Utils": [
        {
          "length": 20,
          "start": 2456
        },
        {
          "length": 20,
          "start": 2670
        },
        {
          "length": 20,
          "start": 2984
        },
        {
          "length": 20,
          "start": 3389
        },
        {
          "length": 20,
          "start": 4773
        },
        {
          "length": 20,
          "start": 8395
        },
        {
          "length": 20,
          "start": 8543
        },
        {
          "length": 20,
          "start": 8705
        },
        {
          "length": 20,
          "start": 8874
        },
        {
          "length": 20,
          "start": 9589
        },
        {
          "length": 20,
          "start": 9772
        }
      ]
    }
  }
}