{
  "_format": "hh-sol-artifact-1",
  "contractName": "PurryBeta",
  "sourceName": "contracts/Purry.sol",
  "abi": [
    {
      "anonymous": false,
      "inputs": [
        {
          "indexed": true,
          "internalType": "address",
          "name": "owner",
          "type": "address"
        },
        {
          "indexed": true,
          "internalType": "address",
          "name": "approved",
          "type": "address"
        },
        {
          "indexed": true,
          "internalType": "uint256",
          "name": "tokenId",
          "type": "uint256"
        }
      ],
      "name": "Approval",
      "type": "event"
    },
    {
      "anonymous": false,
      "inputs": [
        {
          "indexed": true,
          "internalType": "address",
          "name": "owner",
          "type": "address"
        },
        {
          "indexed": true,
          "internalType": "address",
          "name": "operator",
          "type": "address"
        },
        {
          "indexed": false,
          "internalType": "bool",
          "name": "approved",
          "type": "bool"
        }
      ],
      "name": "ApprovalForAll",
      "type": "event"
    },
    {
      "anonymous": false,
      "inputs": [
        {
          "indexed": false,
          "internalType": "uint256",
          "name": "value",
          "type": "uint256"
        }
      ],
      "name": "MESSAGE_VOTES_INVISIBLE_SET",
      "type": "event"
    },
    {
      "anonymous": false,
      "inputs": [
        {
          "indexed": false,
          "internalType": "uint256",
          "name": "Id",
          "type": "uint256"
        },
        {
          "indexed": false,
          "internalType": "address",
          "name": "author",
          "type": "address"
        },
        {
          "indexed": false,
          "internalType": "string",
          "name": "message",
          "type": "string"
        },
        {
          "indexed": false,
          "internalType": "uint256",
          "name": "timestamp",
          "type": "uint256"
        },
        {
          "indexed": false,
          "internalType": "uint256",
          "name": "replyTo",
          "type": "uint256"
        }
      ],
      "name": "NewMessage",
      "type": "event"
    },
    {
      "anonymous": false,
      "inputs": [
        {
          "indexed": true,
          "internalType": "address",
          "name": "previousOwner",
          "type": "address"
        },
        {
          "indexed": true,
          "internalType": "address",
          "name": "newOwner",
          "type": "address"
        }
      ],
      "name": "OwnershipTransferred",
      "type": "event"
    },
    {
      "anonymous": false,
      "inputs": [
        {
          "indexed": true,
          "internalType": "address",
          "name": "from",
          "type": "address"
        },
        {
          "indexed": true,
          "internalType": "address",
          "name": "to",
          "type": "address"
        },
        {
          "indexed": true,
          "internalType": "uint256",
          "name": "tokenId",
          "type": "uint256"
        }
      ],
      "name": "Transfer",
      "type": "event"
    },
    {
      "anonymous": false,
      "inputs": [
        {
          "indexed": false,
          "internalType": "address",
          "name": "user",
          "type": "address"
        },
        {
          "indexed": false,
          "internalType": "string",
          "name": "name",
          "type": "string"
        }
      ],
      "name": "UserNameSet",
      "type": "event"
    },
    {
      "anonymous": false,
      "inputs": [
        {
          "indexed": false,
          "internalType": "address",
          "name": "voter",
          "type": "address"
        },
        {
          "indexed": false,
          "internalType": "uint256",
          "name": "Id",
          "type": "uint256"
        }
      ],
      "name": "VoteDown",
      "type": "event"
    },
    {
      "anonymous": false,
      "inputs": [
        {
          "indexed": false,
          "internalType": "address",
          "name": "voter",
          "type": "address"
        },
        {
          "indexed": false,
          "internalType": "uint256",
          "name": "Id",
          "type": "uint256"
        }
      ],
      "name": "VoteUp",
      "type": "event"
    },
    {
      "anonymous": false,
      "inputs": [
        {
          "indexed": false,
          "internalType": "address",
          "name": "voter",
          "type": "address"
        },
        {
          "indexed": false,
          "internalType": "address",
          "name": "voted",
          "type": "address"
        }
      ],
      "name": "VoteUserDown",
      "type": "event"
    },
    {
      "anonymous": false,
      "inputs": [
        {
          "indexed": false,
          "internalType": "address",
          "name": "voter",
          "type": "address"
        },
        {
          "indexed": false,
          "internalType": "address",
          "name": "voted",
          "type": "address"
        }
      ],
      "name": "VoteUserUp",
      "type": "event"
    },
    {
      "inputs": [],
      "name": "MAX_MESSAGE_LENGTH",
      "outputs": [
        {
          "internalType": "uint256",
          "name": "",
          "type": "uint256"
        }
      ],
      "stateMutability": "view",
      "type": "function"
    },
    {
      "inputs": [],
      "name": "MAX_USERNAME_LENGTH",
      "outputs": [
        {
          "internalType": "uint256",
          "name": "",
          "type": "uint256"
        }
      ],
      "stateMutability": "view",
      "type": "function"
    },
    {
      "inputs": [],
      "name": "MESSAGE_VOTES_INVISIBLE",
      "outputs": [
        {
          "internalType": "uint256",
          "name": "",
          "type": "uint256"
        }
      ],
      "stateMutability": "view",
      "type": "function"
    },
    {
      "inputs": [
        {
          "internalType": "address",
          "name": "to",
          "type": "address"
        },
        {
          "internalType": "uint256",
          "name": "tokenId",
          "type": "uint256"
        }
      ],
      "name": "approve",
      "outputs": [],
      "stateMutability": "nonpayable",
      "type": "function"
    },
    {
      "inputs": [
        {
          "internalType": "address",
          "name": "owner",
          "type": "address"
        }
      ],
      "name": "balanceOf",
      "outputs": [
        {
          "internalType": "uint256",
          "name": "",
          "type": "uint256"
        }
      ],
      "stateMutability": "view",
      "type": "function"
    },
    {
      "inputs": [
        {
          "internalType": "uint256",
          "name": "current",
          "type": "uint256"
        },
        {
          "internalType": "string",
          "name": "str",
          "type": "string"
        }
      ],
      "name": "buildTree",
      "outputs": [
        {
          "internalType": "string",
          "name": "",
          "type": "string"
        }
      ],
      "stateMutability": "view",
      "type": "function"
    },
    {
      "inputs": [
        {
          "internalType": "uint256",
          "name": "_Id",
          "type": "uint256"
        }
      ],
      "name": "burn",
      "outputs": [],
      "stateMutability": "nonpayable",
      "type": "function"
    },
    {
      "inputs": [],
      "name": "contractURI",
      "outputs": [
        {
          "internalType": "string",
          "name": "",
          "type": "string"
        }
      ],
      "stateMutability": "pure",
      "type": "function"
    },
    {
      "inputs": [
        {
          "internalType": "uint256",
          "name": "tokenId",
          "type": "uint256"
        }
      ],
      "name": "getApproved",
      "outputs": [
        {
          "internalType": "address",
          "name": "",
          "type": "address"
        }
      ],
      "stateMutability": "view",
      "type": "function"
    },
    {
      "inputs": [
        {
          "internalType": "uint256",
          "name": "_Id",
          "type": "uint256"
        }
      ],
      "name": "getAuthorOf",
      "outputs": [
        {
          "internalType": "address",
          "name": "",
          "type": "address"
        }
      ],
      "stateMutability": "view",
      "type": "function"
    },
    {
      "inputs": [],
      "name": "getLatestMessageId",
      "outputs": [
        {
          "internalType": "uint256",
          "name": "",
          "type": "uint256"
        }
      ],
      "stateMutability": "view",
      "type": "function"
    },
    {
      "inputs": [
        {
          "internalType": "uint256",
          "name": "_Id",
          "type": "uint256"
        }
      ],
      "name": "getMessageDownVotes",
      "outputs": [
        {
          "internalType": "uint256",
          "name": "",
          "type": "uint256"
        }
      ],
      "stateMutability": "view",
      "type": "function"
    },
    {
      "inputs": [
        {
          "internalType": "uint256",
          "name": "_Id",
          "type": "uint256"
        }
      ],
      "name": "getMessageUpVotes",
      "outputs": [
        {
          "internalType": "uint256",
          "name": "",
          "type": "uint256"
        }
      ],
      "stateMutability": "view",
      "type": "function"
    },
    {
      "inputs": [
        {
          "internalType": "uint256",
          "name": "_Id",
          "type": "uint256"
        }
      ],
      "name": "getNumReplies",
      "outputs": [
        {
          "internalType": "uint256",
          "name": "",
          "type": "uint256"
        }
      ],
      "stateMutability": "view",
      "type": "function"
    },
    {
      "inputs": [
        {
          "internalType": "uint256",
          "name": "_Id",
          "type": "uint256"
        }
      ],
      "name": "getPenUltimateParent",
      "outputs": [
        {
          "internalType": "uint256",
          "name": "",
          "type": "uint256"
        }
      ],
      "stateMutability": "view",
      "type": "function"
    },
    {
      "inputs": [
        {
          "internalType": "uint256",
          "name": "_Id",
          "type": "uint256"
        }
      ],
      "name": "getReplyMessageId",
      "outputs": [
        {
          "internalType": "uint256",
          "name": "",
          "type": "uint256"
        }
      ],
      "stateMutability": "view",
      "type": "function"
    },
    {
      "inputs": [
        {
          "internalType": "uint256",
          "name": "_Id",
          "type": "uint256"
        }
      ],
      "name": "getSVG64",
      "outputs": [
        {
          "internalType": "string",
          "name": "",
          "type": "string"
        }
      ],
      "stateMutability": "view",
      "type": "function"
    },
    {
      "inputs": [
        {
          "internalType": "uint256",
          "name": "_Id",
          "type": "uint256"
        }
      ],
      "name": "getThread",
      "outputs": [
        {
          "internalType": "string",
          "name": "",
          "type": "string"
        }
      ],
      "stateMutability": "view",
      "type": "function"
    },
    {
      "inputs": [
        {
          "internalType": "address",
          "name": "_user",
          "type": "address"
        }
      ],
      "name": "getUserDownVotes",
      "outputs": [
        {
          "internalType": "uint256",
          "name": "",
          "type": "uint256"
        }
      ],
      "stateMutability": "view",
      "type": "function"
    },
    {
      "inputs": [
        {
          "internalType": "address",
          "name": "_user",
          "type": "address"
        }
      ],
      "name": "getUserMessageIds",
      "outputs": [
        {
          "internalType": "uint256[]",
          "name": "",
          "type": "uint256[]"
        }
      ],
      "stateMutability": "view",
      "type": "function"
    },
    {
      "inputs": [
        {
          "internalType": "address",
          "name": "_user",
          "type": "address"
        }
      ],
      "name": "getUserName",
      "outputs": [
        {
          "internalType": "string",
          "name": "",
          "type": "string"
        }
      ],
      "stateMutability": "view",
      "type": "function"
    },
    {
      "inputs": [
        {
          "internalType": "address",
          "name": "_user",
          "type": "address"
        }
      ],
      "name": "getUserUpVotes",
      "outputs": [
        {
          "internalType": "uint256",
          "name": "",
          "type": "uint256"
        }
      ],
      "stateMutability": "view",
      "type": "function"
    },
    {
      "inputs": [
        {
          "internalType": "uint256",
          "name": "_Id",
          "type": "uint256"
        }
      ],
      "name": "getVisibility",
      "outputs": [
        {
          "internalType": "uint256",
          "name": "",
          "type": "uint256"
        }
      ],
      "stateMutability": "view",
      "type": "function"
    },
    {
      "inputs": [
        {
          "internalType": "address",
          "name": "owner",
          "type": "address"
        },
        {
          "internalType": "address",
          "name": "operator",
          "type": "address"
        }
      ],
      "name": "isApprovedForAll",
      "outputs": [
        {
          "internalType": "bool",
          "name": "",
          "type": "bool"
        }
      ],
      "stateMutability": "view",
      "type": "function"
    },
    {
      "inputs": [
        {
          "internalType": "address",
          "name": "_user",
          "type": "address"
        }
      ],
      "name": "isRegisteredUser",
      "outputs": [
        {
          "internalType": "bool",
          "name": "",
          "type": "bool"
        }
      ],
      "stateMutability": "view",
      "type": "function"
    },
    {
      "inputs": [
        {
          "internalType": "string",
          "name": "_text",
          "type": "string"
        }
      ],
      "name": "mint",
      "outputs": [],
      "stateMutability": "nonpayable",
      "type": "function"
    },
    {
      "inputs": [
        {
          "internalType": "string",
          "name": "_text",
          "type": "string"
        },
        {
          "internalType": "uint256",
          "name": "_replyTo",
          "type": "uint256"
        }
      ],
      "name": "mintReply",
      "outputs": [],
      "stateMutability": "nonpayable",
      "type": "function"
    },
    {
      "inputs": [],
      "name": "name",
      "outputs": [
        {
          "internalType": "string",
          "name": "",
          "type": "string"
        }
      ],
      "stateMutability": "view",
      "type": "function"
    },
    {
      "inputs": [],
      "name": "owner",
      "outputs": [
        {
          "internalType": "address",
          "name": "",
          "type": "address"
        }
      ],
      "stateMutability": "view",
      "type": "function"
    },
    {
      "inputs": [
        {
          "internalType": "uint256",
          "name": "tokenId",
          "type": "uint256"
        }
      ],
      "name": "ownerOf",
      "outputs": [
        {
          "internalType": "address",
          "name": "",
          "type": "address"
        }
      ],
      "stateMutability": "view",
      "type": "function"
    },
    {
      "inputs": [],
      "name": "renounceOwnership",
      "outputs": [],
      "stateMutability": "nonpayable",
      "type": "function"
    },
    {
      "inputs": [
        {
          "internalType": "address",
          "name": "from",
          "type": "address"
        },
        {
          "internalType": "address",
          "name": "to",
          "type": "address"
        },
        {
          "internalType": "uint256",
          "name": "tokenId",
          "type": "uint256"
        }
      ],
      "name": "safeTransferFrom",
      "outputs": [],
      "stateMutability": "nonpayable",
      "type": "function"
    },
    {
      "inputs": [
        {
          "internalType": "address",
          "name": "from",
          "type": "address"
        },
        {
          "internalType": "address",
          "name": "to",
          "type": "address"
        },
        {
          "internalType": "uint256",
          "name": "tokenId",
          "type": "uint256"
        },
        {
          "internalType": "bytes",
          "name": "_data",
          "type": "bytes"
        }
      ],
      "name": "safeTransferFrom",
      "outputs": [],
      "stateMutability": "nonpayable",
      "type": "function"
    },
    {
      "inputs": [],
      "name": "selfDestruct",
      "outputs": [],
      "stateMutability": "nonpayable",
      "type": "function"
    },
    {
      "inputs": [
        {
          "internalType": "address",
          "name": "operator",
          "type": "address"
        },
        {
          "internalType": "bool",
          "name": "approved",
          "type": "bool"
        }
      ],
      "name": "setApprovalForAll",
      "outputs": [],
      "stateMutability": "nonpayable",
      "type": "function"
    },
    {
      "inputs": [
        {
          "internalType": "uint256",
          "name": "_value",
          "type": "uint256"
        }
      ],
      "name": "setMESSAGE_VOTES_INVISIBLE",
      "outputs": [],
      "stateMutability": "nonpayable",
      "type": "function"
    },
    {
      "inputs": [
        {
          "internalType": "string",
          "name": "_name",
          "type": "string"
        }
      ],
      "name": "setUserName",
      "outputs": [],
      "stateMutability": "nonpayable",
      "type": "function"
    },
    {
      "inputs": [
        {
          "internalType": "bytes4",
          "name": "interfaceId",
          "type": "bytes4"
        }
      ],
      "name": "supportsInterface",
      "outputs": [
        {
          "internalType": "bool",
          "name": "",
          "type": "bool"
        }
      ],
      "stateMutability": "view",
      "type": "function"
    },
    {
      "inputs": [],
      "name": "symbol",
      "outputs": [
        {
          "internalType": "string",
          "name": "",
          "type": "string"
        }
      ],
      "stateMutability": "view",
      "type": "function"
    },
    {
      "inputs": [
        {
          "internalType": "uint256",
          "name": "_Id",
          "type": "uint256"
        }
      ],
      "name": "tokenURI",
      "outputs": [
        {
          "internalType": "string",
          "name": "",
          "type": "string"
        }
      ],
      "stateMutability": "view",
      "type": "function"
    },
    {
      "inputs": [
        {
          "internalType": "address",
          "name": "from",
          "type": "address"
        },
        {
          "internalType": "address",
          "name": "to",
          "type": "address"
        },
        {
          "internalType": "uint256",
          "name": "tokenId",
          "type": "uint256"
        }
      ],
      "name": "transferFrom",
      "outputs": [],
      "stateMutability": "nonpayable",
      "type": "function"
    },
    {
      "inputs": [
        {
          "internalType": "address",
          "name": "newOwner",
          "type": "address"
        }
      ],
      "name": "transferOwnership",
      "outputs": [],
      "stateMutability": "nonpayable",
      "type": "function"
    },
    {
      "inputs": [
        {
          "internalType": "uint256",
          "name": "_Id",
          "type": "uint256"
        }
      ],
      "name": "voteDownMessage",
      "outputs": [],
      "stateMutability": "nonpayable",
      "type": "function"
    },
    {
      "inputs": [
        {
          "internalType": "address",
          "name": "_user",
          "type": "address"
        }
      ],
      "name": "voteDownUser",
      "outputs": [],
      "stateMutability": "nonpayable",
      "type": "function"
    },
    {
      "inputs": [
        {
          "internalType": "uint256",
          "name": "_Id",
          "type": "uint256"
        }
      ],
      "name": "voteUpMessage",
      "outputs": [],
      "stateMutability": "nonpayable",
      "type": "function"
    },
    {
      "inputs": [
        {
          "internalType": "address",
          "name": "_user",
          "type": "address"
        }
      ],
      "name": "voteUpUser",
      "outputs": [],
      "stateMutability": "nonpayable",
      "type": "function"
    }
  ],
  "bytecode": "0x60806040526040518060200160405280600181525060076000820151816000015550506064600c553480156200003457600080fd5b506040518060400160405280600681526020017f4e4674616c6b00000000000000000000000000000000000000000000000000008152506040518060400160405280600681526020017f4e4674616c6b00000000000000000000000000000000000000000000000000008152508160009080519060200190620000b9929190620001c9565b508060019080519060200190620000d2929190620001c9565b505050620000f5620000e9620000fb60201b60201c565b6200010360201b60201c565b620002de565b600033905090565b6000600660009054906101000a900473ffffffffffffffffffffffffffffffffffffffff16905081600660006101000a81548173ffffffffffffffffffffffffffffffffffffffff021916908373ffffffffffffffffffffffffffffffffffffffff1602179055508173ffffffffffffffffffffffffffffffffffffffff168173ffffffffffffffffffffffffffffffffffffffff167f8be0079c531659141344cd1fd0a4f28419497f9722a3daafe3b4186f6b6457e060405160405180910390a35050565b828054620001d79062000279565b90600052602060002090601f016020900481019282620001fb576000855562000247565b82601f106200021657805160ff191683800117855562000247565b8280016001018555821562000247579182015b828111156200024657825182559160200191906001019062000229565b5b5090506200025691906200025a565b5090565b5b80821115620002755760008160009055506001016200025b565b5090565b600060028204905060018216806200029257607f821691505b60208210811415620002a957620002a8620002af565b5b50919050565b7f4e487b7100000000000000000000000000000000000000000000000000000000600052602260045260246000fd5b615a6c80620002ee6000396000f3fe608060405234801561001057600080fd5b506004361061028a5760003560e01c806383ced42b1161015c578063d380c083116100ce578063ee442c2a11610087578063ee442c2a1461082d578063f26016611461085d578063f2fde38b1461088d578063f698638a146108a9578063f8e9b781146108c7578063fbc205db146108f75761028a565b8063d380c08314610747578063d84f55ee14610777578063d85d3d27146107a7578063dfbd6640146107c3578063e8a3d485146107df578063e985e9c5146107fd5761028a565b80639d350537116101205780639d35053714610663578063a22cb46514610693578063b88d4fde146106af578063bf20972e146106cb578063c87b56dd146106e7578063cd6dc861146107175761028a565b806383ced42b146105bd5780638da5cb5b146105ed57806395d89b411461060b5780639c7990a3146106295780639cb8a26a146106595761028a565b8063368f1e231161020057806369e3303d116101b957806369e3303d146104ff57806370a082311461051b578063715018a61461054b57806376f032ee146105555780637795284f146105715780637982e3101461058d5761028a565b8063368f1e231461042d5780633791df711461045d5780633af4301b1461047957806342842e0e1461049757806342966c68146104b35780636352211e146104cf5761028a565b80631762b236116102525780631762b236146103595780631cd896c1146103895780631f5bdf5d146103a757806323b872dd146103d75780632a027211146103f35780632b5914fe146104115761028a565b806301ffc9a71461028f57806304874336146102bf57806306fdde03146102ef578063081812fc1461030d578063095ea7b31461033d575b600080fd5b6102a960048036038101906102a49190613f00565b610927565b6040516102b69190614971565b60405180910390f35b6102d960048036038101906102d49190614048565b610a09565b6040516102e691906149ae565b60405180910390f35b6102f7610d40565b60405161030491906149ae565b60405180910390f35b61032760048036038101906103229190614048565b610dd2565b6040516103349190614866565b60405180910390f35b61035760048036038101906103529190613ec0565b610e57565b005b610373600480360381019061036e9190614048565b610f6f565b6040516103809190614e97565b60405180910390f35b610391610f8f565b60405161039e9190614e97565b60405180910390f35b6103c160048036038101906103bc9190613d3d565b610f94565b6040516103ce9190614971565b60405180910390f35b6103f160048036038101906103ec9190613daa565b61104c565b005b6103fb6110ac565b6040516104089190614e97565b60405180910390f35b61042b60048036038101906104269190613f5a565b6110b1565b005b61044760048036038101906104429190614048565b611329565b60405161045491906149ae565b60405180910390f35b61047760048036038101906104729190613d3d565b611368565b005b6104816114a5565b60405161048e9190614e97565b60405180910390f35b6104b160048036038101906104ac9190613daa565b6114ab565b005b6104cd60048036038101906104c89190614048565b6114cb565b005b6104e960048036038101906104e49190614048565b61161a565b6040516104f69190614866565b60405180910390f35b61051960048036038101906105149190614048565b6116cc565b005b61053560048036038101906105309190613d3d565b61182d565b6040516105429190614e97565b60405180910390f35b6105536118e5565b005b61056f600480360381019061056a9190614048565b61196d565b005b61058b60048036038101906105869190613d3d565b611a2a565b005b6105a760048036038101906105a291906140a2565b611b67565b6040516105b491906149ae565b60405180910390f35b6105d760048036038101906105d29190613d3d565b611d25565b6040516105e49190614e97565b60405180910390f35b6105f5611d78565b6040516106029190614866565b60405180910390f35b610613611da2565b60405161062091906149ae565b60405180910390f35b610643600480360381019061063e9190614048565b611e34565b6040516106509190614e97565b60405180910390f35b610661611ea3565b005b61067d60048036038101906106789190614048565b611f3f565b60405161068a9190614e97565b60405180910390f35b6106ad60048036038101906106a89190613e80565b611f5f565b005b6106c960048036038101906106c49190613dfd565b611f75565b005b6106e560048036038101906106e09190614048565b611fd7565b005b61070160048036038101906106fc9190614048565b612138565b60405161070e91906149ae565b60405180910390f35b610731600480360381019061072c9190613d3d565b61247c565b60405161073e9190614e97565b60405180910390f35b610761600480360381019061075c9190614048565b6124cf565b60405161076e9190614e97565b60405180910390f35b610791600480360381019061078c9190613d3d565b61253e565b60405161079e91906149ae565b60405180910390f35b6107c160048036038101906107bc9190613f5a565b6126b1565b005b6107dd60048036038101906107d89190613fec565b6126bf565b005b6107e7612a0f565b6040516107f491906149ae565b60405180910390f35b61081760048036038101906108129190613d6a565b612a97565b6040516108249190614971565b60405180910390f35b61084760048036038101906108429190613d3d565b612b2b565b604051610854919061494f565b60405180910390f35b61087760048036038101906108729190614048565b612bc5565b6040516108849190614e97565b60405180910390f35b6108a760048036038101906108a29190613d3d565b612c1b565b005b6108b1612d13565b6040516108be9190614e97565b60405180910390f35b6108e160048036038101906108dc9190614048565b612d30565b6040516108ee9190614866565b60405180910390f35b610911600480360381019061090c9190614048565b612d82565b60405161091e9190614e97565b60405180910390f35b60007f80ac58cd000000000000000000000000000000000000000000000000000000007bffffffffffffffffffffffffffffffffffffffffffffffffffffffff1916827bffffffffffffffffffffffffffffffffffffffffffffffffffffffff191614806109f257507f5b5e139f000000000000000000000000000000000000000000000000000000007bffffffffffffffffffffffffffffffffffffffffffffffffffffffff1916827bffffffffffffffffffffffffffffffffffffffffffffffffffffffff1916145b80610a025750610a0182612e01565b5b9050919050565b6060806000610a1f610a1a85612d30565b61253e565b90506000610a2c85612d82565b905060606000610a3b87610f6f565b90506000610a5d600860008a8152602001908152602001600020600401612e6b565b90506000610a7f600860008b8152602001908152602001600020600501612e6b565b90506000831115610b2b5773__$b70d6334c7ecf3dc68d4f60562c05acf01$__63a5e85b6b610ab5610ab086612d30565b61253e565b856040518363ffffffff1660e01b8152600401610ad3929190614ade565b60006040518083038186803b158015610aeb57600080fd5b505af4158015610aff573d6000803e3d6000fd5b505050506040513d6000823e3d601f19601f82011682018060405250810190610b289190613fa3565b93505b6000851115610bda5773__$b70d6334c7ecf3dc68d4f60562c05acf01$__633086a599600860008c8152602001908152602001600020600001876040518363ffffffff1660e01b8152600401610b82929190614b4c565b60006040518083038186803b158015610b9a57600080fd5b505af4158015610bae573d6000803e3d6000fd5b505050506040513d6000823e3d601f19601f82011682018060405250810190610bd79190613fa3565b96505b6000821180610be95750600081115b15610ca05773__$b70d6334c7ecf3dc68d4f60562c05acf01$__63a5b26eea8884846040518463ffffffff1660e01b8152600401610c2993929190614b0e565b60006040518083038186803b158015610c4157600080fd5b505af4158015610c55573d6000803e3d6000fd5b505050506040513d6000823e3d601f19601f82011682018060405250810190610c7e9190613fa3565b604051602001610c8e919061477d565b60405160208183030381529060405296505b73__$b70d6334c7ecf3dc68d4f60562c05acf01$__633b68322788888c886040518563ffffffff1660e01b8152600401610cdd9493929190614a07565b60006040518083038186803b158015610cf557600080fd5b505af4158015610d09573d6000803e3d6000fd5b505050506040513d6000823e3d601f19601f82011682018060405250810190610d329190613fa3565b975050505050505050919050565b606060008054610d4f90615200565b80601f0160208091040260200160405190810160405280929190818152602001828054610d7b90615200565b8015610dc85780601f10610d9d57610100808354040283529160200191610dc8565b820191906000526020600020905b815481529060010190602001808311610dab57829003601f168201915b5050505050905090565b6000610ddd82612e79565b610e1c576040517f08c379a0000000000000000000000000000000000000000000000000000000008152600401610e1390614d7c565b60405180910390fd5b6004600083815260200190815260200160002060009054906101000a900473ffffffffffffffffffffffffffffffffffffffff169050919050565b6000610e628261161a565b90508073ffffffffffffffffffffffffffffffffffffffff168373ffffffffffffffffffffffffffffffffffffffff161415610ed3576040517f08c379a0000000000000000000000000000000000000000000000000000000008152600401610eca90614dfc565b60405180910390fd5b8073ffffffffffffffffffffffffffffffffffffffff16610ef2612ee5565b73ffffffffffffffffffffffffffffffffffffffff161480610f215750610f2081610f1b612ee5565b612a97565b5b610f60576040517f08c379a0000000000000000000000000000000000000000000000000000000008152600401610f5790614cdc565b60405180910390fd5b610f6a8383612eed565b505050565b600060086000838152602001908152602001600020600301549050919050565b602081565b60008073ffffffffffffffffffffffffffffffffffffffff16600a600960008573ffffffffffffffffffffffffffffffffffffffff1673ffffffffffffffffffffffffffffffffffffffff168152602001908152602001600020600001604051610ffe9190614807565b908152602001604051809103902060009054906101000a900473ffffffffffffffffffffffffffffffffffffffff1673ffffffffffffffffffffffffffffffffffffffff1614159050919050565b61105d611057612ee5565b82612fa6565b61109c576040517f08c379a000000000000000000000000000000000000000000000000000000000815260040161109390614e1c565b60405180910390fd5b6110a7838383613084565b505050565b605581565b600073ffffffffffffffffffffffffffffffffffffffff16600a826040516110d9919061477d565b908152602001604051809103902060009054906101000a900473ffffffffffffffffffffffffffffffffffffffff1673ffffffffffffffffffffffffffffffffffffffff161461115e576040517f08c379a000000000000000000000000000000000000000000000000000000000815260040161115590614c9c565b60405180910390fd5b600073__$1c41232b8c3f9382c4bdca1a05a1ab00e7$__6311075499836040518263ffffffff1660e01b8152600401611197919061498c565b60206040518083038186803b1580156111af57600080fd5b505af41580156111c3573d6000803e3d6000fd5b505050506040513d601f19601f820116820180604052508101906111e79190614075565b9050602081111561122d576040517f08c379a000000000000000000000000000000000000000000000000000000000815260040161122490614cbc565b60405180910390fd5b81600960003373ffffffffffffffffffffffffffffffffffffffff1673ffffffffffffffffffffffffffffffffffffffff1681526020019081526020016000206000019080519060200190611283929190613a8c565b506000825111156112ec5733600a8360405161129f919061477d565b908152602001604051809103902060006101000a81548173ffffffffffffffffffffffffffffffffffffffff021916908373ffffffffffffffffffffffffffffffffffffffff1602179055505b7f55633e294f3ce7de0841784584a845596fec2f4a663a2e0415d1aaf6455a4787338360405161131d9291906148f6565b60405180910390a15050565b60608061133e61133884612bc5565b82611b67565b905080604051602001611351919061481e565b604051602081830303815290604052915050919050565b3373ffffffffffffffffffffffffffffffffffffffff168173ffffffffffffffffffffffffffffffffffffffff1614156113d7576040517f08c379a00000000000000000000000000000000000000000000000000000000081526004016113ce90614e5c565b60405180910390fd5b6113e033610f94565b61141f576040517f08c379a000000000000000000000000000000000000000000000000000000000815260040161141690614b7c565b60405180910390fd5b611469600960008373ffffffffffffffffffffffffffffffffffffffff1673ffffffffffffffffffffffffffffffffffffffff1681526020019081526020016000206002016132e0565b7ff07b382d2f86768abc22b5c039dee6457a58f9f1b8f169161de9e3bf20d20bef338260405161149a929190614881565b60405180910390a150565b600c5481565b6114c683838360405180602001604052806000815250611f75565b505050565b6114d53382612fa6565b611514576040517f08c379a000000000000000000000000000000000000000000000000000000000815260040161150b90614d9c565b60405180910390fd5b61151d81612e79565b61155c576040517f08c379a000000000000000000000000000000000000000000000000000000000815260040161155390614c1c565b60405180910390fd5b600060086000838152602001908152602001600020600301549050600860008381526020019081526020016000206000808201600061159b9190613b12565b6001820160006101000a81549073ffffffffffffffffffffffffffffffffffffffff0219169055600282016000905560038201600090556004820160008082016000905550506005820160008082016000905550505050806008600084815260200190815260200160002060030181905550611616826132f6565b5050565b6000806002600084815260200190815260200160002060009054906101000a900473ffffffffffffffffffffffffffffffffffffffff169050600073ffffffffffffffffffffffffffffffffffffffff168173ffffffffffffffffffffffffffffffffffffffff1614156116c3576040517f08c379a00000000000000000000000000000000000000000000000000000000081526004016116ba90614d1c565b60405180910390fd5b80915050919050565b6116d581612e79565b611714576040517f08c379a000000000000000000000000000000000000000000000000000000000815260040161170b90614d3c565b60405180910390fd5b61171d8161161a565b73ffffffffffffffffffffffffffffffffffffffff163373ffffffffffffffffffffffffffffffffffffffff16141561178b576040517f08c379a000000000000000000000000000000000000000000000000000000000815260040161178290614e5c565b60405180910390fd5b61179433610f94565b6117d3576040517f08c379a00000000000000000000000000000000000000000000000000000000081526004016117ca90614b7c565b60405180910390fd5b6117f1600860008381526020019081526020016000206005016132e0565b7fb70a0c4fedd186110c0530f3beac037475c92de145123c2102c24293962886a53382604051611822929190614926565b60405180910390a150565b60008073ffffffffffffffffffffffffffffffffffffffff168273ffffffffffffffffffffffffffffffffffffffff16141561189e576040517f08c379a000000000000000000000000000000000000000000000000000000000815260040161189590614cfc565b60405180910390fd5b600360008373ffffffffffffffffffffffffffffffffffffffff1673ffffffffffffffffffffffffffffffffffffffff168152602001908152602001600020549050919050565b6118ed612ee5565b73ffffffffffffffffffffffffffffffffffffffff1661190b611d78565b73ffffffffffffffffffffffffffffffffffffffff1614611961576040517f08c379a000000000000000000000000000000000000000000000000000000000815260040161195890614dbc565b60405180910390fd5b61196b6000613407565b565b611975612ee5565b73ffffffffffffffffffffffffffffffffffffffff16611993611d78565b73ffffffffffffffffffffffffffffffffffffffff16146119e9576040517f08c379a00000000000000000000000000000000000000000000000000000000081526004016119e090614dbc565b60405180910390fd5b80600c819055507f2752151e0a98c9df78d20e991139bccd52ba1733a6fca63c8f7d7d3f07faf9a681604051611a1f9190614e97565b60405180910390a150565b3373ffffffffffffffffffffffffffffffffffffffff168173ffffffffffffffffffffffffffffffffffffffff161415611a99576040517f08c379a0000000000000000000000000000000000000000000000000000000008152600401611a9090614e5c565b60405180910390fd5b611aa233610f94565b611ae1576040517f08c379a0000000000000000000000000000000000000000000000000000000008152600401611ad890614b7c565b60405180910390fd5b611b2b600960008373ffffffffffffffffffffffffffffffffffffffff1673ffffffffffffffffffffffffffffffffffffffff1681526020019081526020016000206003016132e0565b7f6b58b2cd308ecc386a2db157ee3a2bf71f1510684c8fce0890495ebce409b6563382604051611b5c929190614881565b60405180910390a150565b60606000600b6000858152602001908152602001600020805480602002602001604051908101604052809291908181526020018280548015611bc857602002820191906000526020600020905b815481526020019060010190808311611bb4575b505050505090508273__$b70d6334c7ecf3dc68d4f60562c05acf01$__63f76f950e866040518263ffffffff1660e01b8152600401611c079190614e7c565b60006040518083038186803b158015611c1f57600080fd5b505af4158015611c33573d6000803e3d6000fd5b505050506040513d6000823e3d601f19601f82011682018060405250810190611c5c9190613fa3565b604051602001611c6d929190614794565b604051602081830303815290604052925060005b8151811015611cfb57611cae828281518110611ca057611c9f615339565b5b602002602001015185611b67565b935060018251611cbe9190615116565b811015611ce85783604051602001611cd691906147e5565b60405160208183030381529060405293505b8080611cf390615263565b915050611c81565b5082604051602001611d0d91906147c3565b60405160208183030381529060405291505092915050565b6000611d71600960008473ffffffffffffffffffffffffffffffffffffffff1673ffffffffffffffffffffffffffffffffffffffff168152602001908152602001600020600201612e6b565b9050919050565b6000600660009054906101000a900473ffffffffffffffffffffffffffffffffffffffff16905090565b606060018054611db190615200565b80601f0160208091040260200160405190810160405280929190818152602001828054611ddd90615200565b8015611e2a5780601f10611dff57610100808354040283529160200191611e2a565b820191906000526020600020905b815481529060010190602001808311611e0d57829003601f168201915b5050505050905090565b6000611e3f82612e79565b611e7e576040517f08c379a0000000000000000000000000000000000000000000000000000000008152600401611e7590614d3c565b60405180910390fd5b611e9c60086000848152602001908152602001600020600401612e6b565b9050919050565b611eab612ee5565b73ffffffffffffffffffffffffffffffffffffffff16611ec9611d78565b73ffffffffffffffffffffffffffffffffffffffff1614611f1f576040517f08c379a0000000000000000000000000000000000000000000000000000000008152600401611f1690614dbc565b60405180910390fd5b611f27611d78565b73ffffffffffffffffffffffffffffffffffffffff16ff5b6000600b6000838152602001908152602001600020805490509050919050565b611f71611f6a612ee5565b83836134cd565b5050565b611f86611f80612ee5565b83612fa6565b611fc5576040517f08c379a0000000000000000000000000000000000000000000000000000000008152600401611fbc90614e1c565b60405180910390fd5b611fd18484848461363a565b50505050565b611fe081612e79565b61201f576040517f08c379a000000000000000000000000000000000000000000000000000000000815260040161201690614d3c565b60405180910390fd5b6120288161161a565b73ffffffffffffffffffffffffffffffffffffffff163373ffffffffffffffffffffffffffffffffffffffff161415612096576040517f08c379a000000000000000000000000000000000000000000000000000000000815260040161208d90614e5c565b60405180910390fd5b61209f33610f94565b6120de576040517f08c379a00000000000000000000000000000000000000000000000000000000081526004016120d590614b7c565b60405180910390fd5b6120fc600860008381526020019081526020016000206004016132e0565b7ffb54418a075541bd20e5e4e44bdbc01cea54f51e35d98a222395c2f0bce2e9f0338260405161212d929190614926565b60405180910390a150565b6060612142612d13565b82111580156121515750600082115b612190576040517f08c379a000000000000000000000000000000000000000000000000000000000815260040161218790614d3c565b60405180910390fd5b61219982612e79565b6122305773__$b70d6334c7ecf3dc68d4f60562c05acf01$__637c81358c836040518263ffffffff1660e01b81526004016121d49190614e7c565b60006040518083038186803b1580156121ec57600080fd5b505af4158015612200573d6000803e3d6000fd5b505050506040513d6000823e3d601f19601f820116820180604052508101906122299190613fa3565b9050612477565b600073__$b70d6334c7ecf3dc68d4f60562c05acf01$__635a98357b61225d61225886612d30565b61253e565b73__$1c41232b8c3f9382c4bdca1a05a1ab00e7$__636c76bd4a61228088612d30565b6040518263ffffffff1660e01b815260040161229c919061484b565b60006040518083038186803b1580156122b457600080fd5b505af41580156122c8573d6000803e3d6000fd5b505050506040513d6000823e3d601f19601f820116820180604052508101906122f19190613fa3565b6122fa87612d82565b6008600089815260200190815260200160002060030154600860008a815260200190815260200160002060020154612346600860008c8152602001908152602001600020600401612e6b565b612364600860008d8152602001908152602001600020600501612e6b565b6040518863ffffffff1660e01b81526004016123869796959493929190614a61565b60006040518083038186803b15801561239e57600080fd5b505af41580156123b2573d6000803e3d6000fd5b505050506040513d6000823e3d601f19601f820116820180604052508101906123db9190613fa3565b905073__$b70d6334c7ecf3dc68d4f60562c05acf01$__63d5f768f361240085610a09565b836040518363ffffffff1660e01b815260040161241e9291906149d0565b60006040518083038186803b15801561243657600080fd5b505af415801561244a573d6000803e3d6000fd5b505050506040513d6000823e3d601f19601f820116820180604052508101906124739190613fa3565b9150505b919050565b60006124c8600960008473ffffffffffffffffffffffffffffffffffffffff1673ffffffffffffffffffffffffffffffffffffffff168152602001908152602001600020600301612e6b565b9050919050565b60006124da82612e79565b612519576040517f08c379a000000000000000000000000000000000000000000000000000000000815260040161251090614d3c565b60405180910390fd5b61253760086000848152602001908152602001600020600501612e6b565b9050919050565b606061254982610f94565b6125de5773__$1c41232b8c3f9382c4bdca1a05a1ab00e7$__636c76bd4a836040518263ffffffff1660e01b8152600401612584919061484b565b60006040518083038186803b15801561259c57600080fd5b505af41580156125b0573d6000803e3d6000fd5b505050506040513d6000823e3d601f19601f820116820180604052508101906125d99190613fa3565b6126aa565b600960008373ffffffffffffffffffffffffffffffffffffffff1673ffffffffffffffffffffffffffffffffffffffff168152602001908152602001600020600001805461262b90615200565b80601f016020809104026020016040519081016040528092919081815260200182805461265790615200565b80156126a45780601f10612679576101008083540402835291602001916126a4565b820191906000526020600020905b81548152906001019060200180831161268757829003601f168201915b50505050505b9050919050565b6126bc8160006126bf565b50565b600042905060006126d06007612e6b565b9050600073__$1c41232b8c3f9382c4bdca1a05a1ab00e7$__6311075499866040518263ffffffff1660e01b815260040161270b919061498c565b60206040518083038186803b15801561272357600080fd5b505af4158015612737573d6000803e3d6000fd5b505050506040513d601f19601f8201168201806040525081019061275b9190614075565b905060558111156127a1576040517f08c379a000000000000000000000000000000000000000000000000000000000815260040161279890614bfc565b60405180910390fd5b600084111561282d576127b384612e79565b6127f2576040517f08c379a00000000000000000000000000000000000000000000000000000000081526004016127e990614e3c565b60405180910390fd5b600b60008581526020019081526020016000208290806001815401808255809150506001900390600052602060002001600090919091909150555b60006040518060c001604052808781526020013373ffffffffffffffffffffffffffffffffffffffff168152602001858152602001868152602001604051806020016040528060008152508152602001604051806020016040528060008152508152509050806008600085815260200190815260200160002060008201518160000190805190602001906128c2929190613a8c565b5060208201518160010160006101000a81548173ffffffffffffffffffffffffffffffffffffffff021916908373ffffffffffffffffffffffffffffffffffffffff160217905550604082015181600201556060820151816003015560808201518160040160008201518160000155505060a082015181600501600082015181600001555050905050600960003373ffffffffffffffffffffffffffffffffffffffff1673ffffffffffffffffffffffffffffffffffffffff1681526020019081526020016000206001018390806001815401808255809150506001900390600052602060002001600090919091909150556129be3384613696565b6129c860076132e0565b7f8d9871f9023b1b594fe9ab753d9a7c94ee4896bb9af6d4869ad031f84782e42383338887896040516129ff959493929190614eb2565b60405180910390a1505050505050565b606073__$b70d6334c7ecf3dc68d4f60562c05acf01$__6337929eb46040518163ffffffff1660e01b815260040160006040518083038186803b158015612a5557600080fd5b505af4158015612a69573d6000803e3d6000fd5b505050506040513d6000823e3d601f19601f82011682018060405250810190612a929190613fa3565b905090565b6000600560008473ffffffffffffffffffffffffffffffffffffffff1673ffffffffffffffffffffffffffffffffffffffff16815260200190815260200160002060008373ffffffffffffffffffffffffffffffffffffffff1673ffffffffffffffffffffffffffffffffffffffff16815260200190815260200160002060009054906101000a900460ff16905092915050565b6060600960008373ffffffffffffffffffffffffffffffffffffffff1673ffffffffffffffffffffffffffffffffffffffff168152602001908152602001600020600101805480602002602001604051908101604052809291908181526020018280548015612bb957602002820191906000526020600020905b815481526020019060010190808311612ba5575b50505050509050919050565b6000808290506000600860008581526020019081526020016000206003015490505b6000811115612c115780915060086000828152602001908152602001600020600301549050612be7565b8192505050919050565b612c23612ee5565b73ffffffffffffffffffffffffffffffffffffffff16612c41611d78565b73ffffffffffffffffffffffffffffffffffffffff1614612c97576040517f08c379a0000000000000000000000000000000000000000000000000000000008152600401612c8e90614dbc565b60405180910390fd5b600073ffffffffffffffffffffffffffffffffffffffff168173ffffffffffffffffffffffffffffffffffffffff161415612d07576040517f08c379a0000000000000000000000000000000000000000000000000000000008152600401612cfe90614bbc565b60405180910390fd5b612d1081613407565b50565b60006001612d216007612e6b565b612d2b9190615116565b905090565b6000612d3b82612e79565b612d4457600080fd5b6008600083815260200190815260200160002060010160009054906101000a900473ffffffffffffffffffffffffffffffffffffffff169050919050565b600080612d8e83611e34565b90506000612d9b846124cf565b90506000806064905082841015612dd457600c5460648585612dbd9190615116565b612dc791906150bc565b612dd1919061508b565b91505b60648210612de55760009050612df5565b816064612df29190615116565b90505b80945050505050919050565b60007f01ffc9a7000000000000000000000000000000000000000000000000000000007bffffffffffffffffffffffffffffffffffffffffffffffffffffffff1916827bffffffffffffffffffffffffffffffffffffffffffffffffffffffff1916149050919050565b600081600001549050919050565b60008073ffffffffffffffffffffffffffffffffffffffff166002600084815260200190815260200160002060009054906101000a900473ffffffffffffffffffffffffffffffffffffffff1673ffffffffffffffffffffffffffffffffffffffff1614159050919050565b600033905090565b816004600083815260200190815260200160002060006101000a81548173ffffffffffffffffffffffffffffffffffffffff021916908373ffffffffffffffffffffffffffffffffffffffff160217905550808273ffffffffffffffffffffffffffffffffffffffff16612f608361161a565b73ffffffffffffffffffffffffffffffffffffffff167f8c5be1e5ebec7d5bd14f71427d1e84f3dd0314c0f7b2291e5b200ac8c7c3b92560405160405180910390a45050565b6000612fb182612e79565b612ff0576040517f08c379a0000000000000000000000000000000000000000000000000000000008152600401612fe790614c7c565b60405180910390fd5b6000612ffb8361161a565b90508073ffffffffffffffffffffffffffffffffffffffff168473ffffffffffffffffffffffffffffffffffffffff16148061306a57508373ffffffffffffffffffffffffffffffffffffffff1661305284610dd2565b73ffffffffffffffffffffffffffffffffffffffff16145b8061307b575061307a8185612a97565b5b91505092915050565b8273ffffffffffffffffffffffffffffffffffffffff166130a48261161a565b73ffffffffffffffffffffffffffffffffffffffff16146130fa576040517f08c379a00000000000000000000000000000000000000000000000000000000081526004016130f190614ddc565b60405180910390fd5b600073ffffffffffffffffffffffffffffffffffffffff168273ffffffffffffffffffffffffffffffffffffffff16141561316a576040517f08c379a000000000000000000000000000000000000000000000000000000000815260040161316190614c3c565b60405180910390fd5b6131758383836136b4565b613180600082612eed565b6001600360008573ffffffffffffffffffffffffffffffffffffffff1673ffffffffffffffffffffffffffffffffffffffff16815260200190815260200160002060008282546131d09190615116565b925050819055506001600360008473ffffffffffffffffffffffffffffffffffffffff1673ffffffffffffffffffffffffffffffffffffffff16815260200190815260200160002060008282546132279190615035565b92505081905550816002600083815260200190815260200160002060006101000a81548173ffffffffffffffffffffffffffffffffffffffff021916908373ffffffffffffffffffffffffffffffffffffffff160217905550808273ffffffffffffffffffffffffffffffffffffffff168473ffffffffffffffffffffffffffffffffffffffff167fddf252ad1be2c89b69c2b068fc378daa952ba7f163c4a11628f55a4df523b3ef60405160405180910390a4505050565b6001816000016000828254019250508190555050565b60006133018261161a565b905061330f816000846136b4565b61331a600083612eed565b6001600360008373ffffffffffffffffffffffffffffffffffffffff1673ffffffffffffffffffffffffffffffffffffffff168152602001908152602001600020600082825461336a9190615116565b925050819055506002600083815260200190815260200160002060006101000a81549073ffffffffffffffffffffffffffffffffffffffff021916905581600073ffffffffffffffffffffffffffffffffffffffff168273ffffffffffffffffffffffffffffffffffffffff167fddf252ad1be2c89b69c2b068fc378daa952ba7f163c4a11628f55a4df523b3ef60405160405180910390a45050565b6000600660009054906101000a900473ffffffffffffffffffffffffffffffffffffffff16905081600660006101000a81548173ffffffffffffffffffffffffffffffffffffffff021916908373ffffffffffffffffffffffffffffffffffffffff1602179055508173ffffffffffffffffffffffffffffffffffffffff168173ffffffffffffffffffffffffffffffffffffffff167f8be0079c531659141344cd1fd0a4f28419497f9722a3daafe3b4186f6b6457e060405160405180910390a35050565b8173ffffffffffffffffffffffffffffffffffffffff168373ffffffffffffffffffffffffffffffffffffffff16141561353c576040517f08c379a000000000000000000000000000000000000000000000000000000000815260040161353390614c5c565b60405180910390fd5b80600560008573ffffffffffffffffffffffffffffffffffffffff1673ffffffffffffffffffffffffffffffffffffffff16815260200190815260200160002060008473ffffffffffffffffffffffffffffffffffffffff1673ffffffffffffffffffffffffffffffffffffffff16815260200190815260200160002060006101000a81548160ff0219169083151502179055508173ffffffffffffffffffffffffffffffffffffffff168373ffffffffffffffffffffffffffffffffffffffff167f17307eab39ab6107e8899845ad3d59bd9653f200f220920489ca2b5937696c318360405161362d9190614971565b60405180910390a3505050565b613645848484613084565b613651848484846136b9565b613690576040517f08c379a000000000000000000000000000000000000000000000000000000000815260040161368790614b9c565b60405180910390fd5b50505050565b6136b0828260405180602001604052806000815250613850565b5050565b505050565b60006136da8473ffffffffffffffffffffffffffffffffffffffff166138ab565b15613843578373ffffffffffffffffffffffffffffffffffffffff1663150b7a02613703612ee5565b8786866040518563ffffffff1660e01b815260040161372594939291906148aa565b602060405180830381600087803b15801561373f57600080fd5b505af192505050801561377057506040513d601f19601f8201168201806040525081019061376d9190613f2d565b60015b6137f3573d80600081146137a0576040519150601f19603f3d011682016040523d82523d6000602084013e6137a5565b606091505b506000815114156137eb576040517f08c379a00000000000000000000000000000000000000000000000000000000081526004016137e290614b9c565b60405180910390fd5b805181602001fd5b63150b7a0260e01b7bffffffffffffffffffffffffffffffffffffffffffffffffffffffff1916817bffffffffffffffffffffffffffffffffffffffffffffffffffffffff191614915050613848565b600190505b949350505050565b61385a83836138be565b61386760008484846136b9565b6138a6576040517f08c379a000000000000000000000000000000000000000000000000000000000815260040161389d90614b9c565b60405180910390fd5b505050565b600080823b905060008111915050919050565b600073ffffffffffffffffffffffffffffffffffffffff168273ffffffffffffffffffffffffffffffffffffffff16141561392e576040517f08c379a000000000000000000000000000000000000000000000000000000000815260040161392590614d5c565b60405180910390fd5b61393781612e79565b15613977576040517f08c379a000000000000000000000000000000000000000000000000000000000815260040161396e90614bdc565b60405180910390fd5b613983600083836136b4565b6001600360008473ffffffffffffffffffffffffffffffffffffffff1673ffffffffffffffffffffffffffffffffffffffff16815260200190815260200160002060008282546139d39190615035565b92505081905550816002600083815260200190815260200160002060006101000a81548173ffffffffffffffffffffffffffffffffffffffff021916908373ffffffffffffffffffffffffffffffffffffffff160217905550808273ffffffffffffffffffffffffffffffffffffffff16600073ffffffffffffffffffffffffffffffffffffffff167fddf252ad1be2c89b69c2b068fc378daa952ba7f163c4a11628f55a4df523b3ef60405160405180910390a45050565b828054613a9890615200565b90600052602060002090601f016020900481019282613aba5760008555613b01565b82601f10613ad357805160ff1916838001178555613b01565b82800160010185558215613b01579182015b82811115613b00578251825591602001919060010190613ae5565b5b509050613b0e9190613b52565b5090565b508054613b1e90615200565b6000825580601f10613b305750613b4f565b601f016020900490600052602060002090810190613b4e9190613b52565b5b50565b5b80821115613b6b576000816000905550600101613b53565b5090565b6000613b82613b7d84614f31565b614f0c565b905082815260208101848484011115613b9e57613b9d61539c565b5b613ba98482856151be565b509392505050565b6000613bc4613bbf84614f62565b614f0c565b905082815260208101848484011115613be057613bdf61539c565b5b613beb8482856151be565b509392505050565b6000613c06613c0184614f62565b614f0c565b905082815260208101848484011115613c2257613c2161539c565b5b613c2d8482856151cd565b509392505050565b600081359050613c44816159da565b92915050565b600081359050613c59816159f1565b92915050565b600081359050613c6e81615a08565b92915050565b600081519050613c8381615a08565b92915050565b600082601f830112613c9e57613c9d615397565b5b8135613cae848260208601613b6f565b91505092915050565b600082601f830112613ccc57613ccb615397565b5b8135613cdc848260208601613bb1565b91505092915050565b600082601f830112613cfa57613cf9615397565b5b8151613d0a848260208601613bf3565b91505092915050565b600081359050613d2281615a1f565b92915050565b600081519050613d3781615a1f565b92915050565b600060208284031215613d5357613d526153a6565b5b6000613d6184828501613c35565b91505092915050565b60008060408385031215613d8157613d806153a6565b5b6000613d8f85828601613c35565b9250506020613da085828601613c35565b9150509250929050565b600080600060608486031215613dc357613dc26153a6565b5b6000613dd186828701613c35565b9350506020613de286828701613c35565b9250506040613df386828701613d13565b9150509250925092565b60008060008060808587031215613e1757613e166153a6565b5b6000613e2587828801613c35565b9450506020613e3687828801613c35565b9350506040613e4787828801613d13565b925050606085013567ffffffffffffffff811115613e6857613e676153a1565b5b613e7487828801613c89565b91505092959194509250565b60008060408385031215613e9757613e966153a6565b5b6000613ea585828601613c35565b9250506020613eb685828601613c4a565b9150509250929050565b60008060408385031215613ed757613ed66153a6565b5b6000613ee585828601613c35565b9250506020613ef685828601613d13565b9150509250929050565b600060208284031215613f1657613f156153a6565b5b6000613f2484828501613c5f565b91505092915050565b600060208284031215613f4357613f426153a6565b5b6000613f5184828501613c74565b91505092915050565b600060208284031215613f7057613f6f6153a6565b5b600082013567ffffffffffffffff811115613f8e57613f8d6153a1565b5b613f9a84828501613cb7565b91505092915050565b600060208284031215613fb957613fb86153a6565b5b600082015167ffffffffffffffff811115613fd757613fd66153a1565b5b613fe384828501613ce5565b91505092915050565b60008060408385031215614003576140026153a6565b5b600083013567ffffffffffffffff811115614021576140206153a1565b5b61402d85828601613cb7565b925050602061403e85828601613d13565b9150509250929050565b60006020828403121561405e5761405d6153a6565b5b600061406c84828501613d13565b91505092915050565b60006020828403121561408b5761408a6153a6565b5b600061409984828501613d28565b91505092915050565b600080604083850312156140b9576140b86153a6565b5b60006140c785828601613d13565b925050602083013567ffffffffffffffff8111156140e8576140e76153a1565b5b6140f485828601613cb7565b9150509250929050565b600061410a8383614750565b60208301905092915050565b61411f8161514a565b82525050565b61412e8161514a565b82525050565b600061413f82614fb8565b6141498185614fe6565b935061415483614f93565b8060005b8381101561418557815161416c88826140fe565b975061417783614fd9565b925050600181019050614158565b5085935050505092915050565b61419b8161515c565b82525050565b60006141ac82614fc3565b6141b68185614ff7565b93506141c68185602086016151cd565b6141cf816153ab565b840191505092915050565b60006141e582614fce565b6141ef8185615008565b93506141ff8185602086016151cd565b614208816153ab565b840191505092915050565b600061421e82614fce565b6142288185615019565b93506142388185602086016151cd565b614241816153ab565b840191505092915050565b600061425782614fce565b614261818561502a565b93506142718185602086016151cd565b80840191505092915050565b6000815461428a81615200565b6142948186615019565b945060018216600081146142af57600181146142c1576142f4565b60ff19831686526020860193506142f4565b6142ca85614fa3565b60005b838110156142ec578154818901526001820191506020810190506142cd565b808801955050505b50505092915050565b6000815461430a81615200565b614314818661502a565b9450600182166000811461432f576001811461434057614373565b60ff19831686528186019350614373565b61434985614fa3565b60005b8381101561436b5781548189015260018201915060208101905061434c565b838801955050505b50505092915050565b6000614389600c83615008565b9150614394826153bc565b602082019050919050565b60006143ac603283615008565b91506143b7826153e5565b604082019050919050565b60006143cf602683615008565b91506143da82615434565b604082019050919050565b60006143f2601c83615008565b91506143fd82615483565b602082019050919050565b6000614415601083615008565b9150614420826154ac565b602082019050919050565b6000614438600b83615008565b9150614443826154d5565b602082019050919050565b600061445b602483615008565b9150614466826154fe565b604082019050919050565b600061447e601983615008565b91506144898261554d565b602082019050919050565b60006144a1602c83615008565b91506144ac82615576565b604082019050919050565b60006144c4600a83615008565b91506144cf826155c5565b602082019050919050565b60006144e7600883615008565b91506144f2826155ee565b602082019050919050565b600061450a603883615008565b915061451582615617565b604082019050919050565b600061452d602a83615008565b915061453882615666565b604082019050919050565b6000614550602983615008565b915061455b826156b5565b604082019050919050565b6000614573600a83615008565b915061457e82615704565b602082019050919050565b6000614596602083615008565b91506145a18261572d565b602082019050919050565b60006145b960018361502a565b91506145c482615756565b600182019050919050565b60006145dc602c83615008565b91506145e78261577f565b604082019050919050565b60006145ff600d83615008565b915061460a826157ce565b602082019050919050565b6000614622602083615008565b915061462d826157f7565b602082019050919050565b6000614645602983615008565b915061465082615820565b604082019050919050565b600061466860018361502a565b91506146738261586f565b600182019050919050565b600061468b60038361502a565b915061469682615898565b600382019050919050565b60006146ae602183615008565b91506146b9826158c1565b604082019050919050565b60006146d160028361502a565b91506146dc82615910565b600282019050919050565b60006146f4603183615008565b91506146ff82615939565b604082019050919050565b6000614717601083615008565b915061472282615988565b602082019050919050565b600061473a601883615008565b9150614745826159b1565b602082019050919050565b614759816151b4565b82525050565b614768816151b4565b82525050565b614777816151b4565b82525050565b6000614789828461424c565b915081905092915050565b60006147a0828561424c565b91506147ac828461424c565b91506147b78261467e565b91508190509392505050565b60006147cf828461424c565b91506147da826145ac565b915081905092915050565b60006147f1828461424c565b91506147fc826146c4565b915081905092915050565b600061481382846142fd565b915081905092915050565b60006148298261465b565b9150614835828461424c565b9150614840826145ac565b915081905092915050565b60006020820190506148606000830184614125565b92915050565b600060208201905061487b6000830184614116565b92915050565b60006040820190506148966000830185614116565b6148a36020830184614116565b9392505050565b60006080820190506148bf6000830187614116565b6148cc6020830186614116565b6148d9604083018561475f565b81810360608301526148eb81846141a1565b905095945050505050565b600060408201905061490b6000830185614116565b818103602083015261491d81846141da565b90509392505050565b600060408201905061493b6000830185614116565b614948602083018461475f565b9392505050565b600060208201905081810360008301526149698184614134565b905092915050565b60006020820190506149866000830184614192565b92915050565b600060208201905081810360008301526149a68184614213565b905092915050565b600060208201905081810360008301526149c881846141da565b905092915050565b600060408201905081810360008301526149ea8185614213565b905081810360208301526149fe8184614213565b90509392505050565b60006080820190508181036000830152614a218187614213565b90508181036020830152614a358186614213565b9050614a44604083018561476e565b8181036060830152614a568184614213565b905095945050505050565b600060e0820190508181036000830152614a7b818a614213565b90508181036020830152614a8f8189614213565b9050614a9e604083018861476e565b614aab606083018761476e565b614ab8608083018661476e565b614ac560a083018561476e565b614ad260c083018461476e565b98975050505050505050565b60006040820190508181036000830152614af88185614213565b9050614b07602083018461476e565b9392505050565b60006060820190508181036000830152614b288186614213565b9050614b37602083018561476e565b614b44604083018461476e565b949350505050565b60006040820190508181036000830152614b66818561427d565b9050614b75602083018461476e565b9392505050565b60006020820190508181036000830152614b958161437c565b9050919050565b60006020820190508181036000830152614bb58161439f565b9050919050565b60006020820190508181036000830152614bd5816143c2565b9050919050565b60006020820190508181036000830152614bf5816143e5565b9050919050565b60006020820190508181036000830152614c1581614408565b9050919050565b60006020820190508181036000830152614c358161442b565b9050919050565b60006020820190508181036000830152614c558161444e565b9050919050565b60006020820190508181036000830152614c7581614471565b9050919050565b60006020820190508181036000830152614c9581614494565b9050919050565b60006020820190508181036000830152614cb5816144b7565b9050919050565b60006020820190508181036000830152614cd5816144da565b9050919050565b60006020820190508181036000830152614cf5816144fd565b9050919050565b60006020820190508181036000830152614d1581614520565b9050919050565b60006020820190508181036000830152614d3581614543565b9050919050565b60006020820190508181036000830152614d5581614566565b9050919050565b60006020820190508181036000830152614d7581614589565b9050919050565b60006020820190508181036000830152614d95816145cf565b9050919050565b60006020820190508181036000830152614db5816145f2565b9050919050565b60006020820190508181036000830152614dd581614615565b9050919050565b60006020820190508181036000830152614df581614638565b9050919050565b60006020820190508181036000830152614e15816146a1565b9050919050565b60006020820190508181036000830152614e35816146e7565b9050919050565b60006020820190508181036000830152614e558161470a565b9050919050565b60006020820190508181036000830152614e758161472d565b9050919050565b6000602082019050614e91600083018461476e565b92915050565b6000602082019050614eac600083018461475f565b92915050565b600060a082019050614ec7600083018861475f565b614ed46020830187614116565b8181036040830152614ee681866141da565b9050614ef5606083018561475f565b614f02608083018461475f565b9695505050505050565b6000614f16614f27565b9050614f228282615232565b919050565b6000604051905090565b600067ffffffffffffffff821115614f4c57614f4b615368565b5b614f55826153ab565b9050602081019050919050565b600067ffffffffffffffff821115614f7d57614f7c615368565b5b614f86826153ab565b9050602081019050919050565b6000819050602082019050919050565b60008190508160005260206000209050919050565b600081519050919050565b600081519050919050565b600081519050919050565b6000602082019050919050565b600082825260208201905092915050565b600082825260208201905092915050565b600082825260208201905092915050565b600082825260208201905092915050565b600081905092915050565b6000615040826151b4565b915061504b836151b4565b9250827fffffffffffffffffffffffffffffffffffffffffffffffffffffffffffffffff038211156150805761507f6152ac565b5b828201905092915050565b6000615096826151b4565b91506150a1836151b4565b9250826150b1576150b06152db565b5b828204905092915050565b60006150c7826151b4565b91506150d2836151b4565b9250817fffffffffffffffffffffffffffffffffffffffffffffffffffffffffffffffff048311821515161561510b5761510a6152ac565b5b828202905092915050565b6000615121826151b4565b915061512c836151b4565b92508282101561513f5761513e6152ac565b5b828203905092915050565b600061515582615194565b9050919050565b60008115159050919050565b60007fffffffff0000000000000000000000000000000000000000000000000000000082169050919050565b600073ffffffffffffffffffffffffffffffffffffffff82169050919050565b6000819050919050565b82818337600083830152505050565b60005b838110156151eb5780820151818401526020810190506151d0565b838111156151fa576000848401525b50505050565b6000600282049050600182168061521857607f821691505b6020821081141561522c5761522b61530a565b5b50919050565b61523b826153ab565b810181811067ffffffffffffffff8211171561525a57615259615368565b5b80604052505050565b600061526e826151b4565b91507fffffffffffffffffffffffffffffffffffffffffffffffffffffffffffffffff8214156152a1576152a06152ac565b5b600182019050919050565b7f4e487b7100000000000000000000000000000000000000000000000000000000600052601160045260246000fd5b7f4e487b7100000000000000000000000000000000000000000000000000000000600052601260045260246000fd5b7f4e487b7100000000000000000000000000000000000000000000000000000000600052602260045260246000fd5b7f4e487b7100000000000000000000000000000000000000000000000000000000600052603260045260246000fd5b7f4e487b7100000000000000000000000000000000000000000000000000000000600052604160045260246000fd5b600080fd5b600080fd5b600080fd5b600080fd5b6000601f19601f8301169050919050565b7f556e726567697374657265640000000000000000000000000000000000000000600082015250565b7f4552433732313a207472616e7366657220746f206e6f6e20455243373231526560008201527f63656976657220696d706c656d656e7465720000000000000000000000000000602082015250565b7f4f776e61626c653a206e6577206f776e657220697320746865207a65726f206160008201527f6464726573730000000000000000000000000000000000000000000000000000602082015250565b7f4552433732313a20746f6b656e20616c7265616479206d696e74656400000000600082015250565b7f4d65737361676520746f6f206c6f6e6700000000000000000000000000000000600082015250565b7f496e76616c696420494421000000000000000000000000000000000000000000600082015250565b7f4552433732313a207472616e7366657220746f20746865207a65726f2061646460008201527f7265737300000000000000000000000000000000000000000000000000000000602082015250565b7f4552433732313a20617070726f766520746f2063616c6c657200000000000000600082015250565b7f4552433732313a206f70657261746f7220717565727920666f72206e6f6e657860008201527f697374656e7420746f6b656e0000000000000000000000000000000000000000602082015250565b7f4e616d652074616b656e00000000000000000000000000000000000000000000600082015250565b7f546f6f206c6f6e67000000000000000000000000000000000000000000000000600082015250565b7f4552433732313a20617070726f76652063616c6c6572206973206e6f74206f7760008201527f6e6572206e6f7220617070726f76656420666f7220616c6c0000000000000000602082015250565b7f4552433732313a2062616c616e636520717565727920666f7220746865207a6560008201527f726f206164647265737300000000000000000000000000000000000000000000602082015250565b7f4552433732313a206f776e657220717565727920666f72206e6f6e657869737460008201527f656e7420746f6b656e0000000000000000000000000000000000000000000000602082015250565b7f496e76616c696420494400000000000000000000000000000000000000000000600082015250565b7f4552433732313a206d696e7420746f20746865207a65726f2061646472657373600082015250565b7f7d00000000000000000000000000000000000000000000000000000000000000600082015250565b7f4552433732313a20617070726f76656420717565727920666f72206e6f6e657860008201527f697374656e7420746f6b656e0000000000000000000000000000000000000000602082015250565b7f4e6f207065726d697373696f6e00000000000000000000000000000000000000600082015250565b7f4f776e61626c653a2063616c6c6572206973206e6f7420746865206f776e6572600082015250565b7f4552433732313a207472616e73666572206f6620746f6b656e2074686174206960008201527f73206e6f74206f776e0000000000000000000000000000000000000000000000602082015250565b7f7b00000000000000000000000000000000000000000000000000000000000000600082015250565b7f3a207b0000000000000000000000000000000000000000000000000000000000600082015250565b7f4552433732313a20617070726f76616c20746f2063757272656e74206f776e6560008201527f7200000000000000000000000000000000000000000000000000000000000000602082015250565b7f2c20000000000000000000000000000000000000000000000000000000000000600082015250565b7f4552433732313a207472616e736665722063616c6c6572206973206e6f74206f60008201527f776e6572206e6f7220617070726f766564000000000000000000000000000000602082015250565b7f496e76616c6964207265706c7920496400000000000000000000000000000000600082015250565b7f43616e6e6f7420766f746520666f7220796f757273656c660000000000000000600082015250565b6159e38161514a565b81146159ee57600080fd5b50565b6159fa8161515c565b8114615a0557600080fd5b50565b615a1181615168565b8114615a1c57600080fd5b50565b615a28816151b4565b8114615a3357600080fd5b5056fea26469706673582212202c08ab78f4aa27ea31dd1bdcd14f6ac49fd533cadeb22eadf3da99e2a073adca64736f6c63430008060033",
  "linkReferences": {
    "contracts/NFtalkMetaData.sol": {
      "NFtalkMetaData": [
        {
          "length": 20,
          "start": 3450
        },
        {
          "length": 20,
          "start": 3620
        },
        {
          "length": 20,
          "start": 3806
        },
        {
          "length": 20,
          "start": 3984
        },
        {
          "length": 20,
          "start": 7872
        },
        {
          "length": 20,
          "start": 9357
        },
        {
          "length": 20,
          "start": 9506
        },
        {
          "length": 20,
          "start": 9933
        },
        {
          "length": 20,
          "start": 11521
        }
      ]
    },
    "contracts/Utils.sol": {
      "Utils": [
        {
          "length": 20,
          "start": 5200
        },
        {
          "length": 20,
          "start": 9549
        },
        {
          "length": 20,
          "start": 10301
        },
        {
          "length": 20,
          "start": 10692
        }
      ]
    }
  },
  "deployedLinkReferences": {
    "contracts/NFtalkMetaData.sol": {
      "NFtalkMetaData": [
        {
          "length": 20,
          "start": 2700
        },
        {
          "length": 20,
          "start": 2870
        },
        {
          "length": 20,
          "start": 3056
        },
        {
          "length": 20,
          "start": 3234
        },
        {
          "length": 20,
          "start": 7122
        },
        {
          "length": 20,
          "start": 8607
        },
        {
          "length": 20,
          "start": 8756
        },
        {
          "length": 20,
          "start": 9183
        },
        {
          "length": 20,
          "start": 10771
        }
      ]
    },
    "contracts/Utils.sol": {
      "Utils": [
        {
          "length": 20,
          "start": 4450
        },
        {
          "length": 20,
          "start": 8799
        },
        {
          "length": 20,
          "start": 9551
        },
        {
          "length": 20,
          "start": 9942
        }
      ]
    }
  }
}